{"abi":[{"inputs":[{"internalType":"string[]","name":"partyNames","type":"string[]"}],"stateMutability":"nonpayable","type":"constructor"},{"inputs":[],"name":"admin","outputs":[{"internalType":"address","name":"","type":"address"}],"stateMutability":"view","type":"function"},{"inputs":[],"name":"declareWinner","outputs":[{"internalType":"string","name":"winner","type":"string"}],"stateMutability":"view","type":"function"},{"inputs":[{"internalType":"uint256","name":"partyIndex","type":"uint256"}],"name":"giveVote","outputs":[],"stateMutability":"nonpayable","type":"function"},{"inputs":[{"internalType":"address","name":"voterUser","type":"address"}],"name":"makeEligibleToVote","outputs":[],"stateMutability":"nonpayable","type":"function"},{"inputs":[{"internalType":"uint256","name":"","type":"uint256"}],"name":"parties","outputs":[{"internalType":"string","name":"partyName","type":"string"},{"internalType":"uint256","name":"numberOfVotes","type":"uint256"}],"stateMutability":"view","type":"function"},{"inputs":[{"internalType":"address","name":"","type":"address"}],"name":"voters","outputs":[{"internalType":"uint256","name":"votedParty","type":"uint256"},{"internalType":"bool","name":"votingState","type":"bool"},{"internalType":"bool","name":"canVote","type":"bool"}],"stateMutability":"view","type":"function"}],"devdoc":{"kind":"dev","methods":{},"version":1},"evm":{"assembly":"    /* \"VotingContract.sol\":74:1928  contract VotingContract {... */\n  mstore(0x40, 0x80)\n    /* \"VotingContract.sol\":482:756  constructor(string[] memory partyNames) {... */\n  callvalue\n  dup1\n  iszero\n  tag_1\n  jumpi\n  0x00\n  dup1\n  revert\ntag_1:\n  pop\n  mload(0x40)\n  sub(codesize, bytecodeSize)\n  dup1\n  bytecodeSize\n  dup4\n  codecopy\n  dup2\n  dup2\n  add\n  0x40\n  mstore\n  dup2\n  add\n  swap1\n  tag_2\n  swap2\n  swap1\n  tag_3\n  jump\t// in\ntag_2:\n    /* \"VotingContract.sol\":541:551  msg.sender */\n  caller\n    /* \"VotingContract.sol\":533:538  admin */\n  0x00\n  dup1\n    /* \"VotingContract.sol\":533:551  admin = msg.sender */\n  0x0100\n  exp\n  dup2\n  sload\n  dup2\n  0xffffffffffffffffffffffffffffffffffffffff\n  mul\n  not\n  and\n  swap1\n  dup4\n  0xffffffffffffffffffffffffffffffffffffffff\n  and\n  mul\n  or\n  swap1\n  sstore\n  pop\n    /* \"VotingContract.sol\":568:574  uint i */\n  0x00\n    /* \"VotingContract.sol\":564:749  for(uint i = 0; i < partyNames.length; i++) {... */\ntag_6:\n    /* \"VotingContract.sol\":584:594  partyNames */\n  dup2\n    /* \"VotingContract.sol\":584:601  partyNames.length */\n  mload\n    /* \"VotingContract.sol\":580:581  i */\n  dup2\n    /* \"VotingContract.sol\":580:601  i < partyNames.length */\n  lt\n    /* \"VotingContract.sol\":564:749  for(uint i = 0; i < partyNames.length; i++) {... */\n  iszero\n  tag_7\n  jumpi\n    /* \"VotingContract.sol\":623:630  parties */\n  0x02\n    /* \"VotingContract.sol\":636:736  Party({... */\n  mload(0x40)\n  dup1\n  0x40\n  add\n  0x40\n  mstore\n  dup1\n    /* \"VotingContract.sol\":672:682  partyNames */\n  dup5\n    /* \"VotingContract.sol\":683:684  i */\n  dup5\n    /* \"VotingContract.sol\":672:685  partyNames[i] */\n  dup2\n  mload\n  dup2\n  lt\n  tag_9\n  jumpi\n  tag_10\n  tag_11\n  jump\t// in\ntag_10:\ntag_9:\n  0x20\n  mul\n  0x20\n  add\n  add\n  mload\n    /* \"VotingContract.sol\":636:736  Party({... */\n  dup2\n  mstore\n  0x20\n  add\n    /* \"VotingContract.sol\":719:720  0 */\n  0x00\n    /* \"VotingContract.sol\":636:736  Party({... */\n  dup2\n  mstore\n  pop\n    /* \"VotingContract.sol\":623:737  parties.push(Party({... */\n  swap1\n  dup1\n  0x01\n  dup2\n  sload\n  add\n  dup1\n  dup3\n  sstore\n  dup1\n  swap2\n  pop\n  pop\n  0x01\n  swap1\n  sub\n  swap1\n  0x00\n  mstore\n  keccak256(0x00, 0x20)\n  swap1\n  0x02\n  mul\n  add\n  0x00\n  swap1\n  swap2\n  swap1\n  swap2\n  swap1\n  swap2\n  pop\n  0x00\n  dup3\n  add\n  mload\n  dup2\n  0x00\n  add\n  swap1\n  dup1\n  mload\n  swap1\n  0x20\n  add\n  swap1\n  tag_13\n  swap3\n  swap2\n  swap1\n  tag_14\n  jump\t// in\ntag_13:\n  pop\n  0x20\n  dup3\n  add\n  mload\n  dup2\n  0x01\n  add\n  sstore\n  pop\n  pop\n    /* \"VotingContract.sol\":603:606  i++ */\n  dup1\n  dup1\n  tag_15\n  swap1\n  tag_16\n  jump\t// in\ntag_15:\n  swap2\n  pop\n  pop\n    /* \"VotingContract.sol\":564:749  for(uint i = 0; i < partyNames.length; i++) {... */\n  jump(tag_6)\ntag_7:\n  pop\n    /* \"VotingContract.sol\":482:756  constructor(string[] memory partyNames) {... */\n  pop\n    /* \"VotingContract.sol\":74:1928  contract VotingContract {... */\n  jump(tag_17)\ntag_14:\n  dup3\n  dup1\n  sload\n  tag_18\n  swap1\n  tag_19\n  jump\t// in\ntag_18:\n  swap1\n  0x00\n  mstore\n  keccak256(0x00, 0x20)\n  swap1\n  0x1f\n  add\n  0x20\n  swap1\n  div\n  dup2\n  add\n  swap3\n  dup3\n  tag_21\n  jumpi\n  0x00\n  dup6\n  sstore\n  jump(tag_20)\ntag_21:\n  dup3\n  0x1f\n  lt\n  tag_22\n  jumpi\n  dup1\n  mload\n  not(0xff)\n  and\n  dup4\n  dup1\n  add\n  or\n  dup6\n  sstore\n  jump(tag_20)\ntag_22:\n  dup3\n  dup1\n  add\n  0x01\n  add\n  dup6\n  sstore\n  dup3\n  iszero\n  tag_20\n  jumpi\n  swap2\n  dup3\n  add\ntag_23:\n  dup3\n  dup2\n  gt\n  iszero\n  tag_24\n  jumpi\n  dup3\n  mload\n  dup3\n  sstore\n  swap2\n  0x20\n  add\n  swap2\n  swap1\n  0x01\n  add\n  swap1\n  jump(tag_23)\ntag_24:\ntag_20:\n  pop\n  swap1\n  pop\n  tag_25\n  swap2\n  swap1\n  tag_26\n  jump\t// in\ntag_25:\n  pop\n  swap1\n  jump\t// out\ntag_26:\ntag_27:\n  dup1\n  dup3\n  gt\n  iszero\n  tag_28\n  jumpi\n  0x00\n  dup2\n  0x00\n  swap1\n  sstore\n  pop\n  0x01\n  add\n  jump(tag_27)\ntag_28:\n  pop\n  swap1\n  jump\t// out\n    /* \"#utility.yul\":7:82   */\ntag_29:\n    /* \"#utility.yul\":40:46   */\n  0x00\n    /* \"#utility.yul\":73:75   */\n  0x40\n    /* \"#utility.yul\":67:76   */\n  mload\n    /* \"#utility.yul\":57:76   */\n  swap1\n  pop\n    /* \"#utility.yul\":7:82   */\n  swap1\n  jump\t// out\n    /* \"#utility.yul\":88:205   */\ntag_30:\n    /* \"#utility.yul\":197:198   */\n  0x00\n    /* \"#utility.yul\":194:195   */\n  dup1\n    /* \"#utility.yul\":187:199   */\n  revert\n    /* \"#utility.yul\":211:328   */\ntag_31:\n    /* \"#utility.yul\":320:321   */\n  0x00\n    /* \"#utility.yul\":317:318   */\n  dup1\n    /* \"#utility.yul\":310:322   */\n  revert\n    /* \"#utility.yul\":334:451   */\ntag_32:\n    /* \"#utility.yul\":443:444   */\n  0x00\n    /* \"#utility.yul\":440:441   */\n  dup1\n    /* \"#utility.yul\":433:445   */\n  revert\n    /* \"#utility.yul\":457:559   */\ntag_33:\n    /* \"#utility.yul\":498:504   */\n  0x00\n    /* \"#utility.yul\":549:551   */\n  0x1f\n    /* \"#utility.yul\":545:552   */\n  not\n    /* \"#utility.yul\":540:542   */\n  0x1f\n    /* \"#utility.yul\":533:538   */\n  dup4\n    /* \"#utility.yul\":529:543   */\n  add\n    /* \"#utility.yul\":525:553   */\n  and\n    /* \"#utility.yul\":515:553   */\n  swap1\n  pop\n    /* \"#utility.yul\":457:559   */\n  swap2\n  swap1\n  pop\n  jump\t// out\n    /* \"#utility.yul\":565:745   */\ntag_34:\n    /* \"#utility.yul\":613:690   */\n  0x4e487b7100000000000000000000000000000000000000000000000000000000\n    /* \"#utility.yul\":610:611   */\n  0x00\n    /* \"#utility.yul\":603:691   */\n  mstore\n    /* \"#utility.yul\":710:714   */\n  0x41\n    /* \"#utility.yul\":707:708   */\n  0x04\n    /* \"#utility.yul\":700:715   */\n  mstore\n    /* \"#utility.yul\":734:738   */\n  0x24\n    /* \"#utility.yul\":731:732   */\n  0x00\n    /* \"#utility.yul\":724:739   */\n  revert\n    /* \"#utility.yul\":751:1032   */\ntag_35:\n    /* \"#utility.yul\":834:861   */\n  tag_57\n    /* \"#utility.yul\":856:860   */\n  dup3\n    /* \"#utility.yul\":834:861   */\n  tag_33\n  jump\t// in\ntag_57:\n    /* \"#utility.yul\":826:832   */\n  dup2\n    /* \"#utility.yul\":822:862   */\n  add\n    /* \"#utility.yul\":964:970   */\n  dup2\n    /* \"#utility.yul\":952:962   */\n  dup2\n    /* \"#utility.yul\":949:971   */\n  lt\n    /* \"#utility.yul\":928:946   */\n  0xffffffffffffffff\n    /* \"#utility.yul\":916:926   */\n  dup3\n    /* \"#utility.yul\":913:947   */\n  gt\n    /* \"#utility.yul\":910:972   */\n  or\n    /* \"#utility.yul\":907:995   */\n  iszero\n  tag_58\n  jumpi\n    /* \"#utility.yul\":975:993   */\n  tag_59\n  tag_34\n  jump\t// in\ntag_59:\n    /* \"#utility.yul\":907:995   */\ntag_58:\n    /* \"#utility.yul\":1015:1025   */\n  dup1\n    /* \"#utility.yul\":1011:1013   */\n  0x40\n    /* \"#utility.yul\":1004:1026   */\n  mstore\n    /* \"#utility.yul\":794:1032   */\n  pop\n    /* \"#utility.yul\":751:1032   */\n  pop\n  pop\n  jump\t// out\n    /* \"#utility.yul\":1038:1167   */\ntag_36:\n    /* \"#utility.yul\":1072:1078   */\n  0x00\n    /* \"#utility.yul\":1099:1119   */\n  tag_61\n  tag_29\n  jump\t// in\ntag_61:\n    /* \"#utility.yul\":1089:1119   */\n  swap1\n  pop\n    /* \"#utility.yul\":1128:1161   */\n  tag_62\n    /* \"#utility.yul\":1156:1160   */\n  dup3\n    /* \"#utility.yul\":1148:1154   */\n  dup3\n    /* \"#utility.yul\":1128:1161   */\n  tag_35\n  jump\t// in\ntag_62:\n    /* \"#utility.yul\":1038:1167   */\n  swap2\n  swap1\n  pop\n  jump\t// out\n    /* \"#utility.yul\":1173:1494   */\ntag_37:\n    /* \"#utility.yul\":1260:1264   */\n  0x00\n    /* \"#utility.yul\":1350:1368   */\n  0xffffffffffffffff\n    /* \"#utility.yul\":1342:1348   */\n  dup3\n    /* \"#utility.yul\":1339:1369   */\n  gt\n    /* \"#utility.yul\":1336:1392   */\n  iszero\n  tag_64\n  jumpi\n    /* \"#utility.yul\":1372:1390   */\n  tag_65\n  tag_34\n  jump\t// in\ntag_65:\n    /* \"#utility.yul\":1336:1392   */\ntag_64:\n    /* \"#utility.yul\":1422:1426   */\n  0x20\n    /* \"#utility.yul\":1414:1420   */\n  dup3\n    /* \"#utility.yul\":1410:1427   */\n  mul\n    /* \"#utility.yul\":1402:1427   */\n  swap1\n  pop\n    /* \"#utility.yul\":1482:1486   */\n  0x20\n    /* \"#utility.yul\":1476:1480   */\n  dup2\n    /* \"#utility.yul\":1472:1487   */\n  add\n    /* \"#utility.yul\":1464:1487   */\n  swap1\n  pop\n    /* \"#utility.yul\":1173:1494   */\n  swap2\n  swap1\n  pop\n  jump\t// out\n    /* \"#utility.yul\":1500:1617   */\ntag_38:\n    /* \"#utility.yul\":1609:1610   */\n  0x00\n    /* \"#utility.yul\":1606:1607   */\n  dup1\n    /* \"#utility.yul\":1599:1611   */\n  revert\n    /* \"#utility.yul\":1623:1740   */\ntag_39:\n    /* \"#utility.yul\":1732:1733   */\n  0x00\n    /* \"#utility.yul\":1729:1730   */\n  dup1\n    /* \"#utility.yul\":1722:1734   */\n  revert\n    /* \"#utility.yul\":1746:2054   */\ntag_40:\n    /* \"#utility.yul\":1808:1812   */\n  0x00\n    /* \"#utility.yul\":1898:1916   */\n  0xffffffffffffffff\n    /* \"#utility.yul\":1890:1896   */\n  dup3\n    /* \"#utility.yul\":1887:1917   */\n  gt\n    /* \"#utility.yul\":1884:1940   */\n  iszero\n  tag_69\n  jumpi\n    /* \"#utility.yul\":1920:1938   */\n  tag_70\n  tag_34\n  jump\t// in\ntag_70:\n    /* \"#utility.yul\":1884:1940   */\ntag_69:\n    /* \"#utility.yul\":1958:1987   */\n  tag_71\n    /* \"#utility.yul\":1980:1986   */\n  dup3\n    /* \"#utility.yul\":1958:1987   */\n  tag_33\n  jump\t// in\ntag_71:\n    /* \"#utility.yul\":1950:1987   */\n  swap1\n  pop\n    /* \"#utility.yul\":2042:2046   */\n  0x20\n    /* \"#utility.yul\":2036:2040   */\n  dup2\n    /* \"#utility.yul\":2032:2047   */\n  add\n    /* \"#utility.yul\":2024:2047   */\n  swap1\n  pop\n    /* \"#utility.yul\":1746:2054   */\n  swap2\n  swap1\n  pop\n  jump\t// out\n    /* \"#utility.yul\":2060:2367   */\ntag_41:\n    /* \"#utility.yul\":2128:2129   */\n  0x00\n    /* \"#utility.yul\":2138:2251   */\ntag_73:\n    /* \"#utility.yul\":2152:2158   */\n  dup4\n    /* \"#utility.yul\":2149:2150   */\n  dup2\n    /* \"#utility.yul\":2146:2159   */\n  lt\n    /* \"#utility.yul\":2138:2251   */\n  iszero\n  tag_75\n  jumpi\n    /* \"#utility.yul\":2237:2238   */\n  dup1\n    /* \"#utility.yul\":2232:2235   */\n  dup3\n    /* \"#utility.yul\":2228:2239   */\n  add\n    /* \"#utility.yul\":2222:2240   */\n  mload\n    /* \"#utility.yul\":2218:2219   */\n  dup2\n    /* \"#utility.yul\":2213:2216   */\n  dup5\n    /* \"#utility.yul\":2209:2220   */\n  add\n    /* \"#utility.yul\":2202:2241   */\n  mstore\n    /* \"#utility.yul\":2174:2176   */\n  0x20\n    /* \"#utility.yul\":2171:2172   */\n  dup2\n    /* \"#utility.yul\":2167:2177   */\n  add\n    /* \"#utility.yul\":2162:2177   */\n  swap1\n  pop\n    /* \"#utility.yul\":2138:2251   */\n  jump(tag_73)\ntag_75:\n    /* \"#utility.yul\":2269:2275   */\n  dup4\n    /* \"#utility.yul\":2266:2267   */\n  dup2\n    /* \"#utility.yul\":2263:2276   */\n  gt\n    /* \"#utility.yul\":2260:2361   */\n  iszero\n  tag_76\n  jumpi\n    /* \"#utility.yul\":2349:2350   */\n  0x00\n    /* \"#utility.yul\":2340:2346   */\n  dup5\n    /* \"#utility.yul\":2335:2338   */\n  dup5\n    /* \"#utility.yul\":2331:2347   */\n  add\n    /* \"#utility.yul\":2324:2351   */\n  mstore\n    /* \"#utility.yul\":2260:2361   */\ntag_76:\n    /* \"#utility.yul\":2109:2367   */\n  pop\n    /* \"#utility.yul\":2060:2367   */\n  pop\n  pop\n  pop\n  jump\t// out\n    /* \"#utility.yul\":2373:2794   */\ntag_42:\n    /* \"#utility.yul\":2462:2467   */\n  0x00\n    /* \"#utility.yul\":2487:2553   */\n  tag_78\n    /* \"#utility.yul\":2503:2552   */\n  tag_79\n    /* \"#utility.yul\":2545:2551   */\n  dup5\n    /* \"#utility.yul\":2503:2552   */\n  tag_40\n  jump\t// in\ntag_79:\n    /* \"#utility.yul\":2487:2553   */\n  tag_36\n  jump\t// in\ntag_78:\n    /* \"#utility.yul\":2478:2553   */\n  swap1\n  pop\n    /* \"#utility.yul\":2576:2582   */\n  dup3\n    /* \"#utility.yul\":2569:2574   */\n  dup2\n    /* \"#utility.yul\":2562:2583   */\n  mstore\n    /* \"#utility.yul\":2614:2618   */\n  0x20\n    /* \"#utility.yul\":2607:2612   */\n  dup2\n    /* \"#utility.yul\":2603:2619   */\n  add\n    /* \"#utility.yul\":2652:2655   */\n  dup5\n    /* \"#utility.yul\":2643:2649   */\n  dup5\n    /* \"#utility.yul\":2638:2641   */\n  dup5\n    /* \"#utility.yul\":2634:2650   */\n  add\n    /* \"#utility.yul\":2631:2656   */\n  gt\n    /* \"#utility.yul\":2628:2740   */\n  iszero\n  tag_80\n  jumpi\n    /* \"#utility.yul\":2659:2738   */\n  tag_81\n  tag_39\n  jump\t// in\ntag_81:\n    /* \"#utility.yul\":2628:2740   */\ntag_80:\n    /* \"#utility.yul\":2749:2788   */\n  tag_82\n    /* \"#utility.yul\":2781:2787   */\n  dup5\n    /* \"#utility.yul\":2776:2779   */\n  dup3\n    /* \"#utility.yul\":2771:2774   */\n  dup6\n    /* \"#utility.yul\":2749:2788   */\n  tag_41\n  jump\t// in\ntag_82:\n    /* \"#utility.yul\":2468:2794   */\n  pop\n    /* \"#utility.yul\":2373:2794   */\n  swap4\n  swap3\n  pop\n  pop\n  pop\n  jump\t// out\n    /* \"#utility.yul\":2814:3169   */\ntag_43:\n    /* \"#utility.yul\":2881:2886   */\n  0x00\n    /* \"#utility.yul\":2930:2933   */\n  dup3\n    /* \"#utility.yul\":2923:2927   */\n  0x1f\n    /* \"#utility.yul\":2915:2921   */\n  dup4\n    /* \"#utility.yul\":2911:2928   */\n  add\n    /* \"#utility.yul\":2907:2934   */\n  slt\n    /* \"#utility.yul\":2897:3019   */\n  tag_84\n  jumpi\n    /* \"#utility.yul\":2938:3017   */\n  tag_85\n  tag_32\n  jump\t// in\ntag_85:\n    /* \"#utility.yul\":2897:3019   */\ntag_84:\n    /* \"#utility.yul\":3048:3054   */\n  dup2\n    /* \"#utility.yul\":3042:3055   */\n  mload\n    /* \"#utility.yul\":3073:3163   */\n  tag_86\n    /* \"#utility.yul\":3159:3162   */\n  dup5\n    /* \"#utility.yul\":3151:3157   */\n  dup3\n    /* \"#utility.yul\":3144:3148   */\n  0x20\n    /* \"#utility.yul\":3136:3142   */\n  dup7\n    /* \"#utility.yul\":3132:3149   */\n  add\n    /* \"#utility.yul\":3073:3163   */\n  tag_42\n  jump\t// in\ntag_86:\n    /* \"#utility.yul\":3064:3163   */\n  swap2\n  pop\n    /* \"#utility.yul\":2887:3169   */\n  pop\n    /* \"#utility.yul\":2814:3169   */\n  swap3\n  swap2\n  pop\n  pop\n  jump\t// out\n    /* \"#utility.yul\":3191:4151   */\ntag_44:\n    /* \"#utility.yul\":3308:3313   */\n  0x00\n    /* \"#utility.yul\":3333:3424   */\n  tag_88\n    /* \"#utility.yul\":3349:3423   */\n  tag_89\n    /* \"#utility.yul\":3416:3422   */\n  dup5\n    /* \"#utility.yul\":3349:3423   */\n  tag_37\n  jump\t// in\ntag_89:\n    /* \"#utility.yul\":3333:3424   */\n  tag_36\n  jump\t// in\ntag_88:\n    /* \"#utility.yul\":3324:3424   */\n  swap1\n  pop\n    /* \"#utility.yul\":3444:3449   */\n  dup1\n    /* \"#utility.yul\":3473:3479   */\n  dup4\n    /* \"#utility.yul\":3466:3471   */\n  dup3\n    /* \"#utility.yul\":3459:3480   */\n  mstore\n    /* \"#utility.yul\":3507:3511   */\n  0x20\n    /* \"#utility.yul\":3500:3505   */\n  dup3\n    /* \"#utility.yul\":3496:3512   */\n  add\n    /* \"#utility.yul\":3489:3512   */\n  swap1\n  pop\n    /* \"#utility.yul\":3560:3564   */\n  0x20\n    /* \"#utility.yul\":3552:3558   */\n  dup5\n    /* \"#utility.yul\":3548:3565   */\n  mul\n    /* \"#utility.yul\":3540:3546   */\n  dup4\n    /* \"#utility.yul\":3536:3566   */\n  add\n    /* \"#utility.yul\":3589:3592   */\n  dup6\n    /* \"#utility.yul\":3581:3587   */\n  dup2\n    /* \"#utility.yul\":3578:3593   */\n  gt\n    /* \"#utility.yul\":3575:3697   */\n  iszero\n  tag_90\n  jumpi\n    /* \"#utility.yul\":3608:3687   */\n  tag_91\n  tag_38\n  jump\t// in\ntag_91:\n    /* \"#utility.yul\":3575:3697   */\ntag_90:\n    /* \"#utility.yul\":3723:3729   */\n  dup4\n    /* \"#utility.yul\":3706:4145   */\ntag_92:\n    /* \"#utility.yul\":3740:3746   */\n  dup2\n    /* \"#utility.yul\":3735:3738   */\n  dup2\n    /* \"#utility.yul\":3732:3747   */\n  lt\n    /* \"#utility.yul\":3706:4145   */\n  iszero\n  tag_94\n  jumpi\n    /* \"#utility.yul\":3822:3825   */\n  dup1\n    /* \"#utility.yul\":3816:3826   */\n  mload\n    /* \"#utility.yul\":3858:3876   */\n  0xffffffffffffffff\n    /* \"#utility.yul\":3845:3856   */\n  dup2\n    /* \"#utility.yul\":3842:3877   */\n  gt\n    /* \"#utility.yul\":3839:3961   */\n  iszero\n  tag_95\n  jumpi\n    /* \"#utility.yul\":3880:3959   */\n  tag_96\n  tag_32\n  jump\t// in\ntag_96:\n    /* \"#utility.yul\":3839:3961   */\ntag_95:\n    /* \"#utility.yul\":4004:4015   */\n  dup1\n    /* \"#utility.yul\":3996:4002   */\n  dup7\n    /* \"#utility.yul\":3992:4016   */\n  add\n    /* \"#utility.yul\":4042:4100   */\n  tag_97\n    /* \"#utility.yul\":4096:4099   */\n  dup10\n    /* \"#utility.yul\":4084:4094   */\n  dup3\n    /* \"#utility.yul\":4042:4100   */\n  tag_43\n  jump\t// in\ntag_97:\n    /* \"#utility.yul\":4037:4040   */\n  dup6\n    /* \"#utility.yul\":4030:4101   */\n  mstore\n    /* \"#utility.yul\":4130:4134   */\n  0x20\n    /* \"#utility.yul\":4125:4128   */\n  dup6\n    /* \"#utility.yul\":4121:4135   */\n  add\n    /* \"#utility.yul\":4114:4135   */\n  swap5\n  pop\n    /* \"#utility.yul\":3782:4145   */\n  pop\n  pop\n    /* \"#utility.yul\":3766:3770   */\n  0x20\n    /* \"#utility.yul\":3761:3764   */\n  dup2\n    /* \"#utility.yul\":3757:3771   */\n  add\n    /* \"#utility.yul\":3750:3771   */\n  swap1\n  pop\n    /* \"#utility.yul\":3706:4145   */\n  jump(tag_92)\ntag_94:\n    /* \"#utility.yul\":3710:3731   */\n  pop\n    /* \"#utility.yul\":3314:4151   */\n  pop\n  pop\n    /* \"#utility.yul\":3191:4151   */\n  swap4\n  swap3\n  pop\n  pop\n  pop\n  jump\t// out\n    /* \"#utility.yul\":4173:4578   */\ntag_45:\n    /* \"#utility.yul\":4265:4270   */\n  0x00\n    /* \"#utility.yul\":4314:4317   */\n  dup3\n    /* \"#utility.yul\":4307:4311   */\n  0x1f\n    /* \"#utility.yul\":4299:4305   */\n  dup4\n    /* \"#utility.yul\":4295:4312   */\n  add\n    /* \"#utility.yul\":4291:4318   */\n  slt\n    /* \"#utility.yul\":4281:4403   */\n  tag_99\n  jumpi\n    /* \"#utility.yul\":4322:4401   */\n  tag_100\n  tag_32\n  jump\t// in\ntag_100:\n    /* \"#utility.yul\":4281:4403   */\ntag_99:\n    /* \"#utility.yul\":4432:4438   */\n  dup2\n    /* \"#utility.yul\":4426:4439   */\n  mload\n    /* \"#utility.yul\":4457:4572   */\n  tag_101\n    /* \"#utility.yul\":4568:4571   */\n  dup5\n    /* \"#utility.yul\":4560:4566   */\n  dup3\n    /* \"#utility.yul\":4553:4557   */\n  0x20\n    /* \"#utility.yul\":4545:4551   */\n  dup7\n    /* \"#utility.yul\":4541:4558   */\n  add\n    /* \"#utility.yul\":4457:4572   */\n  tag_44\n  jump\t// in\ntag_101:\n    /* \"#utility.yul\":4448:4572   */\n  swap2\n  pop\n    /* \"#utility.yul\":4271:4578   */\n  pop\n    /* \"#utility.yul\":4173:4578   */\n  swap3\n  swap2\n  pop\n  pop\n  jump\t// out\n    /* \"#utility.yul\":4584:5158   */\ntag_3:\n    /* \"#utility.yul\":4689:4695   */\n  0x00\n    /* \"#utility.yul\":4738:4740   */\n  0x20\n    /* \"#utility.yul\":4726:4735   */\n  dup3\n    /* \"#utility.yul\":4717:4724   */\n  dup5\n    /* \"#utility.yul\":4713:4736   */\n  sub\n    /* \"#utility.yul\":4709:4741   */\n  slt\n    /* \"#utility.yul\":4706:4825   */\n  iszero\n  tag_103\n  jumpi\n    /* \"#utility.yul\":4744:4823   */\n  tag_104\n  tag_30\n  jump\t// in\ntag_104:\n    /* \"#utility.yul\":4706:4825   */\ntag_103:\n    /* \"#utility.yul\":4885:4886   */\n  0x00\n    /* \"#utility.yul\":4874:4883   */\n  dup3\n    /* \"#utility.yul\":4870:4887   */\n  add\n    /* \"#utility.yul\":4864:4888   */\n  mload\n    /* \"#utility.yul\":4915:4933   */\n  0xffffffffffffffff\n    /* \"#utility.yul\":4907:4913   */\n  dup2\n    /* \"#utility.yul\":4904:4934   */\n  gt\n    /* \"#utility.yul\":4901:5018   */\n  iszero\n  tag_105\n  jumpi\n    /* \"#utility.yul\":4937:5016   */\n  tag_106\n  tag_31\n  jump\t// in\ntag_106:\n    /* \"#utility.yul\":4901:5018   */\ntag_105:\n    /* \"#utility.yul\":5042:5141   */\n  tag_107\n    /* \"#utility.yul\":5133:5140   */\n  dup5\n    /* \"#utility.yul\":5124:5130   */\n  dup3\n    /* \"#utility.yul\":5113:5122   */\n  dup6\n    /* \"#utility.yul\":5109:5131   */\n  add\n    /* \"#utility.yul\":5042:5141   */\n  tag_45\n  jump\t// in\ntag_107:\n    /* \"#utility.yul\":5032:5141   */\n  swap2\n  pop\n    /* \"#utility.yul\":4835:5151   */\n  pop\n    /* \"#utility.yul\":4584:5158   */\n  swap3\n  swap2\n  pop\n  pop\n  jump\t// out\n    /* \"#utility.yul\":5164:5344   */\ntag_11:\n    /* \"#utility.yul\":5212:5289   */\n  0x4e487b7100000000000000000000000000000000000000000000000000000000\n    /* \"#utility.yul\":5209:5210   */\n  0x00\n    /* \"#utility.yul\":5202:5290   */\n  mstore\n    /* \"#utility.yul\":5309:5313   */\n  0x32\n    /* \"#utility.yul\":5306:5307   */\n  0x04\n    /* \"#utility.yul\":5299:5314   */\n  mstore\n    /* \"#utility.yul\":5333:5337   */\n  0x24\n    /* \"#utility.yul\":5330:5331   */\n  0x00\n    /* \"#utility.yul\":5323:5338   */\n  revert\n    /* \"#utility.yul\":5350:5530   */\ntag_46:\n    /* \"#utility.yul\":5398:5475   */\n  0x4e487b7100000000000000000000000000000000000000000000000000000000\n    /* \"#utility.yul\":5395:5396   */\n  0x00\n    /* \"#utility.yul\":5388:5476   */\n  mstore\n    /* \"#utility.yul\":5495:5499   */\n  0x11\n    /* \"#utility.yul\":5492:5493   */\n  0x04\n    /* \"#utility.yul\":5485:5500   */\n  mstore\n    /* \"#utility.yul\":5519:5523   */\n  0x24\n    /* \"#utility.yul\":5516:5517   */\n  0x00\n    /* \"#utility.yul\":5509:5524   */\n  revert\n    /* \"#utility.yul\":5536:5613   */\ntag_47:\n    /* \"#utility.yul\":5573:5580   */\n  0x00\n    /* \"#utility.yul\":5602:5607   */\n  dup2\n    /* \"#utility.yul\":5591:5607   */\n  swap1\n  pop\n    /* \"#utility.yul\":5536:5613   */\n  swap2\n  swap1\n  pop\n  jump\t// out\n    /* \"#utility.yul\":5619:5852   */\ntag_16:\n    /* \"#utility.yul\":5658:5661   */\n  0x00\n    /* \"#utility.yul\":5681:5705   */\n  tag_112\n    /* \"#utility.yul\":5699:5704   */\n  dup3\n    /* \"#utility.yul\":5681:5705   */\n  tag_47\n  jump\t// in\ntag_112:\n    /* \"#utility.yul\":5672:5705   */\n  swap2\n  pop\n    /* \"#utility.yul\":5727:5793   */\n  0xffffffffffffffffffffffffffffffffffffffffffffffffffffffffffffffff\n    /* \"#utility.yul\":5720:5725   */\n  dup3\n    /* \"#utility.yul\":5717:5794   */\n  sub\n    /* \"#utility.yul\":5714:5817   */\n  tag_113\n  jumpi\n    /* \"#utility.yul\":5797:5815   */\n  tag_114\n  tag_46\n  jump\t// in\ntag_114:\n    /* \"#utility.yul\":5714:5817   */\ntag_113:\n    /* \"#utility.yul\":5844:5845   */\n  0x01\n    /* \"#utility.yul\":5837:5842   */\n  dup3\n    /* \"#utility.yul\":5833:5846   */\n  add\n    /* \"#utility.yul\":5826:5846   */\n  swap1\n  pop\n    /* \"#utility.yul\":5619:5852   */\n  swap2\n  swap1\n  pop\n  jump\t// out\n    /* \"#utility.yul\":5858:6038   */\ntag_48:\n    /* \"#utility.yul\":5906:5983   */\n  0x4e487b7100000000000000000000000000000000000000000000000000000000\n    /* \"#utility.yul\":5903:5904   */\n  0x00\n    /* \"#utility.yul\":5896:5984   */\n  mstore\n    /* \"#utility.yul\":6003:6007   */\n  0x22\n    /* \"#utility.yul\":6000:6001   */\n  0x04\n    /* \"#utility.yul\":5993:6008   */\n  mstore\n    /* \"#utility.yul\":6027:6031   */\n  0x24\n    /* \"#utility.yul\":6024:6025   */\n  0x00\n    /* \"#utility.yul\":6017:6032   */\n  revert\n    /* \"#utility.yul\":6044:6364   */\ntag_19:\n    /* \"#utility.yul\":6088:6094   */\n  0x00\n    /* \"#utility.yul\":6125:6126   */\n  0x02\n    /* \"#utility.yul\":6119:6123   */\n  dup3\n    /* \"#utility.yul\":6115:6127   */\n  div\n    /* \"#utility.yul\":6105:6127   */\n  swap1\n  pop\n    /* \"#utility.yul\":6172:6173   */\n  0x01\n    /* \"#utility.yul\":6166:6170   */\n  dup3\n    /* \"#utility.yul\":6162:6174   */\n  and\n    /* \"#utility.yul\":6193:6211   */\n  dup1\n    /* \"#utility.yul\":6183:6264   */\n  tag_117\n  jumpi\n    /* \"#utility.yul\":6249:6253   */\n  0x7f\n    /* \"#utility.yul\":6241:6247   */\n  dup3\n    /* \"#utility.yul\":6237:6254   */\n  and\n    /* \"#utility.yul\":6227:6254   */\n  swap2\n  pop\n    /* \"#utility.yul\":6183:6264   */\ntag_117:\n    /* \"#utility.yul\":6311:6313   */\n  0x20\n    /* \"#utility.yul\":6303:6309   */\n  dup3\n    /* \"#utility.yul\":6300:6314   */\n  lt\n    /* \"#utility.yul\":6280:6298   */\n  dup2\n    /* \"#utility.yul\":6277:6315   */\n  sub\n    /* \"#utility.yul\":6274:6358   */\n  tag_118\n  jumpi\n    /* \"#utility.yul\":6330:6348   */\n  tag_119\n  tag_48\n  jump\t// in\ntag_119:\n    /* \"#utility.yul\":6274:6358   */\ntag_118:\n    /* \"#utility.yul\":6095:6364   */\n  pop\n    /* \"#utility.yul\":6044:6364   */\n  swap2\n  swap1\n  pop\n  jump\t// out\n    /* \"VotingContract.sol\":74:1928  contract VotingContract {... */\ntag_17:\n  dataSize(sub_0)\n  dup1\n  dataOffset(sub_0)\n  0x00\n  codecopy\n  0x00\n  return\nstop\n\nsub_0: assembly {\n        /* \"VotingContract.sol\":74:1928  contract VotingContract {... */\n      mstore(0x40, 0x80)\n      callvalue\n      dup1\n      iszero\n      tag_1\n      jumpi\n      0x00\n      dup1\n      revert\n    tag_1:\n      pop\n      jumpi(tag_2, lt(calldatasize, 0x04))\n      shr(0xe0, calldataload(0x00))\n      dup1\n      0x14034bd2\n      eq\n      tag_3\n      jumpi\n      dup1\n      0x70651a18\n      eq\n      tag_4\n      jumpi\n      dup1\n      0x7f178f2e\n      eq\n      tag_5\n      jumpi\n      dup1\n      0xa3ec138d\n      eq\n      tag_6\n      jumpi\n      dup1\n      0xb72d153d\n      eq\n      tag_7\n      jumpi\n      dup1\n      0xf851a440\n      eq\n      tag_8\n      jumpi\n    tag_2:\n      0x00\n      dup1\n      revert\n        /* \"VotingContract.sol\":1080:1609  function declareWinner() external view... */\n    tag_3:\n      tag_9\n      tag_10\n      jump\t// in\n    tag_9:\n      mload(0x40)\n      tag_11\n      swap2\n      swap1\n      tag_12\n      jump\t// in\n    tag_11:\n      mload(0x40)\n      dup1\n      swap2\n      sub\n      swap1\n      return\n        /* \"VotingContract.sol\":451:473  Party[] public parties */\n    tag_4:\n      tag_13\n      0x04\n      dup1\n      calldatasize\n      sub\n      dup2\n      add\n      swap1\n      tag_14\n      swap2\n      swap1\n      tag_15\n      jump\t// in\n    tag_14:\n      tag_16\n      jump\t// in\n    tag_13:\n      mload(0x40)\n      tag_17\n      swap3\n      swap2\n      swap1\n      tag_18\n      jump\t// in\n    tag_17:\n      mload(0x40)\n      dup1\n      swap2\n      sub\n      swap1\n      return\n        /* \"VotingContract.sol\":764:1072  function giveVote(uint partyIndex) external {... */\n    tag_5:\n      tag_19\n      0x04\n      dup1\n      calldatasize\n      sub\n      dup2\n      add\n      swap1\n      tag_20\n      swap2\n      swap1\n      tag_15\n      jump\t// in\n    tag_20:\n      tag_21\n      jump\t// in\n    tag_19:\n      stop\n        /* \"VotingContract.sol\":398:442  mapping (address => VoterUser) public voters */\n    tag_6:\n      tag_22\n      0x04\n      dup1\n      calldatasize\n      sub\n      dup2\n      add\n      swap1\n      tag_23\n      swap2\n      swap1\n      tag_24\n      jump\t// in\n    tag_23:\n      tag_25\n      jump\t// in\n    tag_22:\n      mload(0x40)\n      tag_26\n      swap4\n      swap3\n      swap2\n      swap1\n      tag_27\n      jump\t// in\n    tag_26:\n      mload(0x40)\n      dup1\n      swap2\n      sub\n      swap1\n      return\n        /* \"VotingContract.sol\":1617:1922  function makeEligibleToVote(address voterUser) external {... */\n    tag_7:\n      tag_28\n      0x04\n      dup1\n      calldatasize\n      sub\n      dup2\n      add\n      swap1\n      tag_29\n      swap2\n      swap1\n      tag_24\n      jump\t// in\n    tag_29:\n      tag_30\n      jump\t// in\n    tag_28:\n      stop\n        /* \"VotingContract.sol\":111:131  address public admin */\n    tag_8:\n      tag_31\n      tag_32\n      jump\t// in\n    tag_31:\n      mload(0x40)\n      tag_33\n      swap2\n      swap1\n      tag_34\n      jump\t// in\n    tag_33:\n      mload(0x40)\n      dup1\n      swap2\n      sub\n      swap1\n      return\n        /* \"VotingContract.sol\":1080:1609  function declareWinner() external view... */\n    tag_10:\n        /* \"VotingContract.sol\":1136:1156  string memory winner */\n      0x60\n        /* \"VotingContract.sol\":1244:1249  admin */\n      0x00\n      dup1\n      sload\n      swap1\n      0x0100\n      exp\n      swap1\n      div\n      0xffffffffffffffffffffffffffffffffffffffff\n      and\n        /* \"VotingContract.sol\":1230:1249  msg.sender == admin */\n      0xffffffffffffffffffffffffffffffffffffffff\n      and\n        /* \"VotingContract.sol\":1230:1240  msg.sender */\n      caller\n        /* \"VotingContract.sol\":1230:1249  msg.sender == admin */\n      0xffffffffffffffffffffffffffffffffffffffff\n      and\n      eq\n        /* \"VotingContract.sol\":1208:1260  require(... */\n      tag_36\n      jumpi\n      0x00\n      dup1\n      revert\n    tag_36:\n        /* \"VotingContract.sol\":1271:1288  uint winningIndex */\n      0x00\n        /* \"VotingContract.sol\":1299:1315  uint voteCounter */\n      dup1\n        /* \"VotingContract.sol\":1318:1319  0 */\n      0x00\n        /* \"VotingContract.sol\":1299:1319  uint voteCounter = 0 */\n      swap1\n      pop\n        /* \"VotingContract.sol\":1334:1340  uint i */\n      0x00\n        /* \"VotingContract.sol\":1330:1548  for(uint i = 0; i < parties.length; i++) {... */\n    tag_37:\n        /* \"VotingContract.sol\":1350:1357  parties */\n      0x02\n        /* \"VotingContract.sol\":1350:1364  parties.length */\n      dup1\n      sload\n      swap1\n      pop\n        /* \"VotingContract.sol\":1346:1347  i */\n      dup2\n        /* \"VotingContract.sol\":1346:1364  i < parties.length */\n      lt\n        /* \"VotingContract.sol\":1330:1548  for(uint i = 0; i < parties.length; i++) {... */\n      iszero\n      tag_38\n      jumpi\n        /* \"VotingContract.sol\":1416:1427  voteCounter */\n      dup2\n        /* \"VotingContract.sol\":1389:1396  parties */\n      0x02\n        /* \"VotingContract.sol\":1397:1398  i */\n      dup3\n        /* \"VotingContract.sol\":1389:1399  parties[i] */\n      dup2\n      sload\n      dup2\n      lt\n      tag_40\n      jumpi\n      tag_41\n      tag_42\n      jump\t// in\n    tag_41:\n    tag_40:\n      swap1\n      0x00\n      mstore\n      keccak256(0x00, 0x20)\n      swap1\n      0x02\n      mul\n      add\n        /* \"VotingContract.sol\":1389:1413  parties[i].numberOfVotes */\n      0x01\n      add\n      sload\n        /* \"VotingContract.sol\":1389:1427  parties[i].numberOfVotes > voteCounter */\n      gt\n        /* \"VotingContract.sol\":1386:1537  if(parties[i].numberOfVotes > voteCounter) {... */\n      iszero\n      tag_44\n      jumpi\n        /* \"VotingContract.sol\":1462:1469  parties */\n      0x02\n        /* \"VotingContract.sol\":1470:1471  i */\n      dup2\n        /* \"VotingContract.sol\":1462:1472  parties[i] */\n      dup2\n      sload\n      dup2\n      lt\n      tag_45\n      jumpi\n      tag_46\n      tag_42\n      jump\t// in\n    tag_46:\n    tag_45:\n      swap1\n      0x00\n      mstore\n      keccak256(0x00, 0x20)\n      swap1\n      0x02\n      mul\n      add\n        /* \"VotingContract.sol\":1462:1486  parties[i].numberOfVotes */\n      0x01\n      add\n      sload\n        /* \"VotingContract.sol\":1448:1486  voteCounter = parties[i].numberOfVotes */\n      swap2\n      pop\n        /* \"VotingContract.sol\":1520:1521  i */\n      dup1\n        /* \"VotingContract.sol\":1505:1521  winningIndex = i */\n      swap3\n      pop\n        /* \"VotingContract.sol\":1386:1537  if(parties[i].numberOfVotes > voteCounter) {... */\n    tag_44:\n        /* \"VotingContract.sol\":1366:1369  i++ */\n      dup1\n      dup1\n      tag_48\n      swap1\n      tag_49\n      jump\t// in\n    tag_48:\n      swap2\n      pop\n      pop\n        /* \"VotingContract.sol\":1330:1548  for(uint i = 0; i < parties.length; i++) {... */\n      jump(tag_37)\n    tag_38:\n      pop\n        /* \"VotingContract.sol\":1569:1576  parties */\n      0x02\n        /* \"VotingContract.sol\":1577:1589  winningIndex */\n      dup3\n        /* \"VotingContract.sol\":1569:1590  parties[winningIndex] */\n      dup2\n      sload\n      dup2\n      lt\n      tag_50\n      jumpi\n      tag_51\n      tag_42\n      jump\t// in\n    tag_51:\n    tag_50:\n      swap1\n      0x00\n      mstore\n      keccak256(0x00, 0x20)\n      swap1\n      0x02\n      mul\n      add\n        /* \"VotingContract.sol\":1569:1600  parties[winningIndex].partyName */\n      0x00\n      add\n        /* \"VotingContract.sol\":1560:1600  winner = parties[winningIndex].partyName */\n      dup1\n      sload\n      tag_53\n      swap1\n      tag_54\n      jump\t// in\n    tag_53:\n      dup1\n      0x1f\n      add\n      0x20\n      dup1\n      swap2\n      div\n      mul\n      0x20\n      add\n      mload(0x40)\n      swap1\n      dup2\n      add\n      0x40\n      mstore\n      dup1\n      swap3\n      swap2\n      swap1\n      dup2\n      dup2\n      mstore\n      0x20\n      add\n      dup3\n      dup1\n      sload\n      tag_55\n      swap1\n      tag_54\n      jump\t// in\n    tag_55:\n      dup1\n      iszero\n      tag_56\n      jumpi\n      dup1\n      0x1f\n      lt\n      tag_57\n      jumpi\n      0x0100\n      dup1\n      dup4\n      sload\n      div\n      mul\n      dup4\n      mstore\n      swap2\n      0x20\n      add\n      swap2\n      jump(tag_56)\n    tag_57:\n      dup3\n      add\n      swap2\n      swap1\n      0x00\n      mstore\n      keccak256(0x00, 0x20)\n      swap1\n    tag_58:\n      dup2\n      sload\n      dup2\n      mstore\n      swap1\n      0x01\n      add\n      swap1\n      0x20\n      add\n      dup1\n      dup4\n      gt\n      tag_58\n      jumpi\n      dup3\n      swap1\n      sub\n      0x1f\n      and\n      dup3\n      add\n      swap2\n    tag_56:\n      pop\n      pop\n      pop\n      pop\n      pop\n      swap3\n      pop\n        /* \"VotingContract.sol\":1157:1609  {... */\n      pop\n      pop\n        /* \"VotingContract.sol\":1080:1609  function declareWinner() external view... */\n      swap1\n      jump\t// out\n        /* \"VotingContract.sol\":451:473  Party[] public parties */\n    tag_16:\n      0x02\n      dup2\n      dup2\n      sload\n      dup2\n      lt\n      tag_59\n      jumpi\n      0x00\n      dup1\n      revert\n    tag_59:\n      swap1\n      0x00\n      mstore\n      keccak256(0x00, 0x20)\n      swap1\n      0x02\n      mul\n      add\n      0x00\n      swap2\n      pop\n      swap1\n      pop\n      dup1\n      0x00\n      add\n      dup1\n      sload\n      tag_61\n      swap1\n      tag_54\n      jump\t// in\n    tag_61:\n      dup1\n      0x1f\n      add\n      0x20\n      dup1\n      swap2\n      div\n      mul\n      0x20\n      add\n      mload(0x40)\n      swap1\n      dup2\n      add\n      0x40\n      mstore\n      dup1\n      swap3\n      swap2\n      swap1\n      dup2\n      dup2\n      mstore\n      0x20\n      add\n      dup3\n      dup1\n      sload\n      tag_62\n      swap1\n      tag_54\n      jump\t// in\n    tag_62:\n      dup1\n      iszero\n      tag_63\n      jumpi\n      dup1\n      0x1f\n      lt\n      tag_64\n      jumpi\n      0x0100\n      dup1\n      dup4\n      sload\n      div\n      mul\n      dup4\n      mstore\n      swap2\n      0x20\n      add\n      swap2\n      jump(tag_63)\n    tag_64:\n      dup3\n      add\n      swap2\n      swap1\n      0x00\n      mstore\n      keccak256(0x00, 0x20)\n      swap1\n    tag_65:\n      dup2\n      sload\n      dup2\n      mstore\n      swap1\n      0x01\n      add\n      swap1\n      0x20\n      add\n      dup1\n      dup4\n      gt\n      tag_65\n      jumpi\n      dup3\n      swap1\n      sub\n      0x1f\n      and\n      dup3\n      add\n      swap2\n    tag_63:\n      pop\n      pop\n      pop\n      pop\n      pop\n      swap1\n      dup1\n      0x01\n      add\n      sload\n      swap1\n      pop\n      dup3\n      jump\t// out\n        /* \"VotingContract.sol\":764:1072  function giveVote(uint partyIndex) external {... */\n    tag_21:\n        /* \"VotingContract.sol\":819:843  VoterUser storage caller */\n      0x00\n        /* \"VotingContract.sol\":846:852  voters */\n      0x01\n        /* \"VotingContract.sol\":846:864  voters[msg.sender] */\n      0x00\n        /* \"VotingContract.sol\":853:863  msg.sender */\n      caller\n        /* \"VotingContract.sol\":846:864  voters[msg.sender] */\n      0xffffffffffffffffffffffffffffffffffffffff\n      and\n      0xffffffffffffffffffffffffffffffffffffffff\n      and\n      dup2\n      mstore\n      0x20\n      add\n      swap1\n      dup2\n      mstore\n      0x20\n      add\n      0x00\n      keccak256\n        /* \"VotingContract.sol\":819:864  VoterUser storage caller = voters[msg.sender] */\n      swap1\n      pop\n        /* \"VotingContract.sol\":883:889  caller */\n      dup1\n        /* \"VotingContract.sol\":883:897  caller.canVote */\n      0x01\n      add\n      0x01\n      swap1\n      sload\n      swap1\n      0x0100\n      exp\n      swap1\n      div\n      0xff\n      and\n        /* \"VotingContract.sol\":875:898  require(caller.canVote) */\n      tag_67\n      jumpi\n      0x00\n      dup1\n      revert\n    tag_67:\n        /* \"VotingContract.sol\":918:924  caller */\n      dup1\n        /* \"VotingContract.sol\":918:936  caller.votingState */\n      0x01\n      add\n      0x00\n      swap1\n      sload\n      swap1\n      0x0100\n      exp\n      swap1\n      div\n      0xff\n      and\n        /* \"VotingContract.sol\":917:936  !caller.votingState */\n      iszero\n        /* \"VotingContract.sol\":909:937  require(!caller.votingState) */\n      tag_68\n      jumpi\n      0x00\n      dup1\n      revert\n    tag_68:\n        /* \"VotingContract.sol\":969:973  true */\n      0x01\n        /* \"VotingContract.sol\":948:954  caller */\n      dup2\n        /* \"VotingContract.sol\":948:966  caller.votingState */\n      0x01\n      add\n      0x00\n        /* \"VotingContract.sol\":948:973  caller.votingState = true */\n      0x0100\n      exp\n      dup2\n      sload\n      dup2\n      0xff\n      mul\n      not\n      and\n      swap1\n      dup4\n      iszero\n      iszero\n      mul\n      or\n      swap1\n      sstore\n      pop\n        /* \"VotingContract.sol\":1004:1014  partyIndex */\n      dup2\n        /* \"VotingContract.sol\":984:990  caller */\n      dup2\n        /* \"VotingContract.sol\":984:1001  caller.votedParty */\n      0x00\n      add\n        /* \"VotingContract.sol\":984:1014  caller.votedParty = partyIndex */\n      dup2\n      swap1\n      sstore\n      pop\n        /* \"VotingContract.sol\":1062:1063  1 */\n      0x01\n        /* \"VotingContract.sol\":1025:1032  parties */\n      0x02\n        /* \"VotingContract.sol\":1033:1043  partyIndex */\n      dup4\n        /* \"VotingContract.sol\":1025:1044  parties[partyIndex] */\n      dup2\n      sload\n      dup2\n      lt\n      tag_69\n      jumpi\n      tag_70\n      tag_42\n      jump\t// in\n    tag_70:\n    tag_69:\n      swap1\n      0x00\n      mstore\n      keccak256(0x00, 0x20)\n      swap1\n      0x02\n      mul\n      add\n        /* \"VotingContract.sol\":1025:1058  parties[partyIndex].numberOfVotes */\n      0x01\n      add\n      0x00\n        /* \"VotingContract.sol\":1025:1063  parties[partyIndex].numberOfVotes += 1 */\n      dup3\n      dup3\n      sload\n      tag_72\n      swap2\n      swap1\n      tag_73\n      jump\t// in\n    tag_72:\n      swap3\n      pop\n      pop\n      dup2\n      swap1\n      sstore\n      pop\n        /* \"VotingContract.sol\":808:1072  {... */\n      pop\n        /* \"VotingContract.sol\":764:1072  function giveVote(uint partyIndex) external {... */\n      pop\n      jump\t// out\n        /* \"VotingContract.sol\":398:442  mapping (address => VoterUser) public voters */\n    tag_25:\n      mstore(0x20, 0x01)\n      dup1\n      0x00\n      mstore\n      keccak256(0x00, 0x40)\n      0x00\n      swap2\n      pop\n      swap1\n      pop\n      dup1\n      0x00\n      add\n      sload\n      swap1\n      dup1\n      0x01\n      add\n      0x00\n      swap1\n      sload\n      swap1\n      0x0100\n      exp\n      swap1\n      div\n      0xff\n      and\n      swap1\n      dup1\n      0x01\n      add\n      0x01\n      swap1\n      sload\n      swap1\n      0x0100\n      exp\n      swap1\n      div\n      0xff\n      and\n      swap1\n      pop\n      dup4\n      jump\t// out\n        /* \"VotingContract.sol\":1617:1922  function makeEligibleToVote(address voterUser) external {... */\n    tag_30:\n        /* \"VotingContract.sol\":1720:1725  admin */\n      0x00\n      dup1\n      sload\n      swap1\n      0x0100\n      exp\n      swap1\n      div\n      0xffffffffffffffffffffffffffffffffffffffff\n      and\n        /* \"VotingContract.sol\":1706:1725  msg.sender == admin */\n      0xffffffffffffffffffffffffffffffffffffffff\n      and\n        /* \"VotingContract.sol\":1706:1716  msg.sender */\n      caller\n        /* \"VotingContract.sol\":1706:1725  msg.sender == admin */\n      0xffffffffffffffffffffffffffffffffffffffff\n      and\n      eq\n        /* \"VotingContract.sol\":1684:1736  require(... */\n      tag_75\n      jumpi\n      0x00\n      dup1\n      revert\n    tag_75:\n        /* \"VotingContract.sol\":1770:1776  voters */\n      0x01\n        /* \"VotingContract.sol\":1770:1787  voters[voterUser] */\n      0x00\n        /* \"VotingContract.sol\":1777:1786  voterUser */\n      dup3\n        /* \"VotingContract.sol\":1770:1787  voters[voterUser] */\n      0xffffffffffffffffffffffffffffffffffffffff\n      and\n      0xffffffffffffffffffffffffffffffffffffffff\n      and\n      dup2\n      mstore\n      0x20\n      add\n      swap1\n      dup2\n      mstore\n      0x20\n      add\n      0x00\n      keccak256\n        /* \"VotingContract.sol\":1770:1799  voters[voterUser].votingState */\n      0x01\n      add\n      0x00\n      swap1\n      sload\n      swap1\n      0x0100\n      exp\n      swap1\n      div\n      0xff\n      and\n        /* \"VotingContract.sol\":1769:1799  !voters[voterUser].votingState */\n      iszero\n        /* \"VotingContract.sol\":1747:1811  require(... */\n      tag_76\n      jumpi\n      0x00\n      dup1\n      revert\n    tag_76:\n        /* \"VotingContract.sol\":1826:1832  voters */\n      0x01\n        /* \"VotingContract.sol\":1826:1843  voters[voterUser] */\n      0x00\n        /* \"VotingContract.sol\":1833:1842  voterUser */\n      dup3\n        /* \"VotingContract.sol\":1826:1843  voters[voterUser] */\n      0xffffffffffffffffffffffffffffffffffffffff\n      and\n      0xffffffffffffffffffffffffffffffffffffffff\n      and\n      dup2\n      mstore\n      0x20\n      add\n      swap1\n      dup2\n      mstore\n      0x20\n      add\n      0x00\n      keccak256\n        /* \"VotingContract.sol\":1826:1851  voters[voterUser].canVote */\n      0x01\n      add\n      0x01\n      swap1\n      sload\n      swap1\n      0x0100\n      exp\n      swap1\n      div\n      0xff\n      and\n        /* \"VotingContract.sol\":1822:1912  if(!voters[voterUser].canVote) {... */\n      tag_77\n      jumpi\n        /* \"VotingContract.sol\":1896:1900  true */\n      0x01\n        /* \"VotingContract.sol\":1868:1874  voters */\n      dup1\n        /* \"VotingContract.sol\":1868:1885  voters[voterUser] */\n      0x00\n        /* \"VotingContract.sol\":1875:1884  voterUser */\n      dup4\n        /* \"VotingContract.sol\":1868:1885  voters[voterUser] */\n      0xffffffffffffffffffffffffffffffffffffffff\n      and\n      0xffffffffffffffffffffffffffffffffffffffff\n      and\n      dup2\n      mstore\n      0x20\n      add\n      swap1\n      dup2\n      mstore\n      0x20\n      add\n      0x00\n      keccak256\n        /* \"VotingContract.sol\":1868:1893  voters[voterUser].canVote */\n      0x01\n      add\n      0x01\n        /* \"VotingContract.sol\":1868:1900  voters[voterUser].canVote = true */\n      0x0100\n      exp\n      dup2\n      sload\n      dup2\n      0xff\n      mul\n      not\n      and\n      swap1\n      dup4\n      iszero\n      iszero\n      mul\n      or\n      swap1\n      sstore\n      pop\n        /* \"VotingContract.sol\":1822:1912  if(!voters[voterUser].canVote) {... */\n    tag_77:\n        /* \"VotingContract.sol\":1617:1922  function makeEligibleToVote(address voterUser) external {... */\n      pop\n      jump\t// out\n        /* \"VotingContract.sol\":111:131  address public admin */\n    tag_32:\n      0x00\n      dup1\n      sload\n      swap1\n      0x0100\n      exp\n      swap1\n      div\n      0xffffffffffffffffffffffffffffffffffffffff\n      and\n      dup2\n      jump\t// out\n        /* \"#utility.yul\":7:106   */\n    tag_78:\n        /* \"#utility.yul\":59:65   */\n      0x00\n        /* \"#utility.yul\":93:98   */\n      dup2\n        /* \"#utility.yul\":87:99   */\n      mload\n        /* \"#utility.yul\":77:99   */\n      swap1\n      pop\n        /* \"#utility.yul\":7:106   */\n      swap2\n      swap1\n      pop\n      jump\t// out\n        /* \"#utility.yul\":112:281   */\n    tag_79:\n        /* \"#utility.yul\":196:207   */\n      0x00\n        /* \"#utility.yul\":230:236   */\n      dup3\n        /* \"#utility.yul\":225:228   */\n      dup3\n        /* \"#utility.yul\":218:237   */\n      mstore\n        /* \"#utility.yul\":270:274   */\n      0x20\n        /* \"#utility.yul\":265:268   */\n      dup3\n        /* \"#utility.yul\":261:275   */\n      add\n        /* \"#utility.yul\":246:275   */\n      swap1\n      pop\n        /* \"#utility.yul\":112:281   */\n      swap3\n      swap2\n      pop\n      pop\n      jump\t// out\n        /* \"#utility.yul\":287:594   */\n    tag_80:\n        /* \"#utility.yul\":355:356   */\n      0x00\n        /* \"#utility.yul\":365:478   */\n    tag_103:\n        /* \"#utility.yul\":379:385   */\n      dup4\n        /* \"#utility.yul\":376:377   */\n      dup2\n        /* \"#utility.yul\":373:386   */\n      lt\n        /* \"#utility.yul\":365:478   */\n      iszero\n      tag_105\n      jumpi\n        /* \"#utility.yul\":464:465   */\n      dup1\n        /* \"#utility.yul\":459:462   */\n      dup3\n        /* \"#utility.yul\":455:466   */\n      add\n        /* \"#utility.yul\":449:467   */\n      mload\n        /* \"#utility.yul\":445:446   */\n      dup2\n        /* \"#utility.yul\":440:443   */\n      dup5\n        /* \"#utility.yul\":436:447   */\n      add\n        /* \"#utility.yul\":429:468   */\n      mstore\n        /* \"#utility.yul\":401:403   */\n      0x20\n        /* \"#utility.yul\":398:399   */\n      dup2\n        /* \"#utility.yul\":394:404   */\n      add\n        /* \"#utility.yul\":389:404   */\n      swap1\n      pop\n        /* \"#utility.yul\":365:478   */\n      jump(tag_103)\n    tag_105:\n        /* \"#utility.yul\":496:502   */\n      dup4\n        /* \"#utility.yul\":493:494   */\n      dup2\n        /* \"#utility.yul\":490:503   */\n      gt\n        /* \"#utility.yul\":487:588   */\n      iszero\n      tag_106\n      jumpi\n        /* \"#utility.yul\":576:577   */\n      0x00\n        /* \"#utility.yul\":567:573   */\n      dup5\n        /* \"#utility.yul\":562:565   */\n      dup5\n        /* \"#utility.yul\":558:574   */\n      add\n        /* \"#utility.yul\":551:578   */\n      mstore\n        /* \"#utility.yul\":487:588   */\n    tag_106:\n        /* \"#utility.yul\":336:594   */\n      pop\n        /* \"#utility.yul\":287:594   */\n      pop\n      pop\n      pop\n      jump\t// out\n        /* \"#utility.yul\":600:702   */\n    tag_81:\n        /* \"#utility.yul\":641:647   */\n      0x00\n        /* \"#utility.yul\":692:694   */\n      0x1f\n        /* \"#utility.yul\":688:695   */\n      not\n        /* \"#utility.yul\":683:685   */\n      0x1f\n        /* \"#utility.yul\":676:681   */\n      dup4\n        /* \"#utility.yul\":672:686   */\n      add\n        /* \"#utility.yul\":668:696   */\n      and\n        /* \"#utility.yul\":658:696   */\n      swap1\n      pop\n        /* \"#utility.yul\":600:702   */\n      swap2\n      swap1\n      pop\n      jump\t// out\n        /* \"#utility.yul\":708:1072   */\n    tag_82:\n        /* \"#utility.yul\":796:799   */\n      0x00\n        /* \"#utility.yul\":824:863   */\n      tag_109\n        /* \"#utility.yul\":857:862   */\n      dup3\n        /* \"#utility.yul\":824:863   */\n      tag_78\n      jump\t// in\n    tag_109:\n        /* \"#utility.yul\":879:950   */\n      tag_110\n        /* \"#utility.yul\":943:949   */\n      dup2\n        /* \"#utility.yul\":938:941   */\n      dup6\n        /* \"#utility.yul\":879:950   */\n      tag_79\n      jump\t// in\n    tag_110:\n        /* \"#utility.yul\":872:950   */\n      swap4\n      pop\n        /* \"#utility.yul\":959:1011   */\n      tag_111\n        /* \"#utility.yul\":1004:1010   */\n      dup2\n        /* \"#utility.yul\":999:1002   */\n      dup6\n        /* \"#utility.yul\":992:996   */\n      0x20\n        /* \"#utility.yul\":985:990   */\n      dup7\n        /* \"#utility.yul\":981:997   */\n      add\n        /* \"#utility.yul\":959:1011   */\n      tag_80\n      jump\t// in\n    tag_111:\n        /* \"#utility.yul\":1036:1065   */\n      tag_112\n        /* \"#utility.yul\":1058:1064   */\n      dup2\n        /* \"#utility.yul\":1036:1065   */\n      tag_81\n      jump\t// in\n    tag_112:\n        /* \"#utility.yul\":1031:1034   */\n      dup5\n        /* \"#utility.yul\":1027:1066   */\n      add\n        /* \"#utility.yul\":1020:1066   */\n      swap2\n      pop\n        /* \"#utility.yul\":800:1072   */\n      pop\n        /* \"#utility.yul\":708:1072   */\n      swap3\n      swap2\n      pop\n      pop\n      jump\t// out\n        /* \"#utility.yul\":1078:1391   */\n    tag_12:\n        /* \"#utility.yul\":1191:1195   */\n      0x00\n        /* \"#utility.yul\":1229:1231   */\n      0x20\n        /* \"#utility.yul\":1218:1227   */\n      dup3\n        /* \"#utility.yul\":1214:1232   */\n      add\n        /* \"#utility.yul\":1206:1232   */\n      swap1\n      pop\n        /* \"#utility.yul\":1278:1287   */\n      dup2\n        /* \"#utility.yul\":1272:1276   */\n      dup2\n        /* \"#utility.yul\":1268:1288   */\n      sub\n        /* \"#utility.yul\":1264:1265   */\n      0x00\n        /* \"#utility.yul\":1253:1262   */\n      dup4\n        /* \"#utility.yul\":1249:1266   */\n      add\n        /* \"#utility.yul\":1242:1289   */\n      mstore\n        /* \"#utility.yul\":1306:1384   */\n      tag_114\n        /* \"#utility.yul\":1379:1383   */\n      dup2\n        /* \"#utility.yul\":1370:1376   */\n      dup5\n        /* \"#utility.yul\":1306:1384   */\n      tag_82\n      jump\t// in\n    tag_114:\n        /* \"#utility.yul\":1298:1384   */\n      swap1\n      pop\n        /* \"#utility.yul\":1078:1391   */\n      swap3\n      swap2\n      pop\n      pop\n      jump\t// out\n        /* \"#utility.yul\":1478:1595   */\n    tag_84:\n        /* \"#utility.yul\":1587:1588   */\n      0x00\n        /* \"#utility.yul\":1584:1585   */\n      dup1\n        /* \"#utility.yul\":1577:1589   */\n      revert\n        /* \"#utility.yul\":1724:1801   */\n    tag_86:\n        /* \"#utility.yul\":1761:1768   */\n      0x00\n        /* \"#utility.yul\":1790:1795   */\n      dup2\n        /* \"#utility.yul\":1779:1795   */\n      swap1\n      pop\n        /* \"#utility.yul\":1724:1801   */\n      swap2\n      swap1\n      pop\n      jump\t// out\n        /* \"#utility.yul\":1807:1929   */\n    tag_87:\n        /* \"#utility.yul\":1880:1904   */\n      tag_120\n        /* \"#utility.yul\":1898:1903   */\n      dup2\n        /* \"#utility.yul\":1880:1904   */\n      tag_86\n      jump\t// in\n    tag_120:\n        /* \"#utility.yul\":1873:1878   */\n      dup2\n        /* \"#utility.yul\":1870:1905   */\n      eq\n        /* \"#utility.yul\":1860:1923   */\n      tag_121\n      jumpi\n        /* \"#utility.yul\":1919:1920   */\n      0x00\n        /* \"#utility.yul\":1916:1917   */\n      dup1\n        /* \"#utility.yul\":1909:1921   */\n      revert\n        /* \"#utility.yul\":1860:1923   */\n    tag_121:\n        /* \"#utility.yul\":1807:1929   */\n      pop\n      jump\t// out\n        /* \"#utility.yul\":1935:2074   */\n    tag_88:\n        /* \"#utility.yul\":1981:1986   */\n      0x00\n        /* \"#utility.yul\":2019:2025   */\n      dup2\n        /* \"#utility.yul\":2006:2026   */\n      calldataload\n        /* \"#utility.yul\":1997:2026   */\n      swap1\n      pop\n        /* \"#utility.yul\":2035:2068   */\n      tag_123\n        /* \"#utility.yul\":2062:2067   */\n      dup2\n        /* \"#utility.yul\":2035:2068   */\n      tag_87\n      jump\t// in\n    tag_123:\n        /* \"#utility.yul\":1935:2074   */\n      swap3\n      swap2\n      pop\n      pop\n      jump\t// out\n        /* \"#utility.yul\":2080:2409   */\n    tag_15:\n        /* \"#utility.yul\":2139:2145   */\n      0x00\n        /* \"#utility.yul\":2188:2190   */\n      0x20\n        /* \"#utility.yul\":2176:2185   */\n      dup3\n        /* \"#utility.yul\":2167:2174   */\n      dup5\n        /* \"#utility.yul\":2163:2186   */\n      sub\n        /* \"#utility.yul\":2159:2191   */\n      slt\n        /* \"#utility.yul\":2156:2275   */\n      iszero\n      tag_125\n      jumpi\n        /* \"#utility.yul\":2194:2273   */\n      tag_126\n      tag_84\n      jump\t// in\n    tag_126:\n        /* \"#utility.yul\":2156:2275   */\n    tag_125:\n        /* \"#utility.yul\":2314:2315   */\n      0x00\n        /* \"#utility.yul\":2339:2392   */\n      tag_127\n        /* \"#utility.yul\":2384:2391   */\n      dup5\n        /* \"#utility.yul\":2375:2381   */\n      dup3\n        /* \"#utility.yul\":2364:2373   */\n      dup6\n        /* \"#utility.yul\":2360:2382   */\n      add\n        /* \"#utility.yul\":2339:2392   */\n      tag_88\n      jump\t// in\n    tag_127:\n        /* \"#utility.yul\":2329:2392   */\n      swap2\n      pop\n        /* \"#utility.yul\":2285:2402   */\n      pop\n        /* \"#utility.yul\":2080:2409   */\n      swap3\n      swap2\n      pop\n      pop\n      jump\t// out\n        /* \"#utility.yul\":2415:2533   */\n    tag_89:\n        /* \"#utility.yul\":2502:2526   */\n      tag_129\n        /* \"#utility.yul\":2520:2525   */\n      dup2\n        /* \"#utility.yul\":2502:2526   */\n      tag_86\n      jump\t// in\n    tag_129:\n        /* \"#utility.yul\":2497:2500   */\n      dup3\n        /* \"#utility.yul\":2490:2527   */\n      mstore\n        /* \"#utility.yul\":2415:2533   */\n      pop\n      pop\n      jump\t// out\n        /* \"#utility.yul\":2539:2962   */\n    tag_18:\n        /* \"#utility.yul\":2680:2684   */\n      0x00\n        /* \"#utility.yul\":2718:2720   */\n      0x40\n        /* \"#utility.yul\":2707:2716   */\n      dup3\n        /* \"#utility.yul\":2703:2721   */\n      add\n        /* \"#utility.yul\":2695:2721   */\n      swap1\n      pop\n        /* \"#utility.yul\":2767:2776   */\n      dup2\n        /* \"#utility.yul\":2761:2765   */\n      dup2\n        /* \"#utility.yul\":2757:2777   */\n      sub\n        /* \"#utility.yul\":2753:2754   */\n      0x00\n        /* \"#utility.yul\":2742:2751   */\n      dup4\n        /* \"#utility.yul\":2738:2755   */\n      add\n        /* \"#utility.yul\":2731:2778   */\n      mstore\n        /* \"#utility.yul\":2795:2873   */\n      tag_131\n        /* \"#utility.yul\":2868:2872   */\n      dup2\n        /* \"#utility.yul\":2859:2865   */\n      dup6\n        /* \"#utility.yul\":2795:2873   */\n      tag_82\n      jump\t// in\n    tag_131:\n        /* \"#utility.yul\":2787:2873   */\n      swap1\n      pop\n        /* \"#utility.yul\":2883:2955   */\n      tag_132\n        /* \"#utility.yul\":2951:2953   */\n      0x20\n        /* \"#utility.yul\":2940:2949   */\n      dup4\n        /* \"#utility.yul\":2936:2954   */\n      add\n        /* \"#utility.yul\":2927:2933   */\n      dup5\n        /* \"#utility.yul\":2883:2955   */\n      tag_89\n      jump\t// in\n    tag_132:\n        /* \"#utility.yul\":2539:2962   */\n      swap4\n      swap3\n      pop\n      pop\n      pop\n      jump\t// out\n        /* \"#utility.yul\":2968:3094   */\n    tag_90:\n        /* \"#utility.yul\":3005:3012   */\n      0x00\n        /* \"#utility.yul\":3045:3087   */\n      0xffffffffffffffffffffffffffffffffffffffff\n        /* \"#utility.yul\":3038:3043   */\n      dup3\n        /* \"#utility.yul\":3034:3088   */\n      and\n        /* \"#utility.yul\":3023:3088   */\n      swap1\n      pop\n        /* \"#utility.yul\":2968:3094   */\n      swap2\n      swap1\n      pop\n      jump\t// out\n        /* \"#utility.yul\":3100:3196   */\n    tag_91:\n        /* \"#utility.yul\":3137:3144   */\n      0x00\n        /* \"#utility.yul\":3166:3190   */\n      tag_135\n        /* \"#utility.yul\":3184:3189   */\n      dup3\n        /* \"#utility.yul\":3166:3190   */\n      tag_90\n      jump\t// in\n    tag_135:\n        /* \"#utility.yul\":3155:3190   */\n      swap1\n      pop\n        /* \"#utility.yul\":3100:3196   */\n      swap2\n      swap1\n      pop\n      jump\t// out\n        /* \"#utility.yul\":3202:3324   */\n    tag_92:\n        /* \"#utility.yul\":3275:3299   */\n      tag_137\n        /* \"#utility.yul\":3293:3298   */\n      dup2\n        /* \"#utility.yul\":3275:3299   */\n      tag_91\n      jump\t// in\n    tag_137:\n        /* \"#utility.yul\":3268:3273   */\n      dup2\n        /* \"#utility.yul\":3265:3300   */\n      eq\n        /* \"#utility.yul\":3255:3318   */\n      tag_138\n      jumpi\n        /* \"#utility.yul\":3314:3315   */\n      0x00\n        /* \"#utility.yul\":3311:3312   */\n      dup1\n        /* \"#utility.yul\":3304:3316   */\n      revert\n        /* \"#utility.yul\":3255:3318   */\n    tag_138:\n        /* \"#utility.yul\":3202:3324   */\n      pop\n      jump\t// out\n        /* \"#utility.yul\":3330:3469   */\n    tag_93:\n        /* \"#utility.yul\":3376:3381   */\n      0x00\n        /* \"#utility.yul\":3414:3420   */\n      dup2\n        /* \"#utility.yul\":3401:3421   */\n      calldataload\n        /* \"#utility.yul\":3392:3421   */\n      swap1\n      pop\n        /* \"#utility.yul\":3430:3463   */\n      tag_140\n        /* \"#utility.yul\":3457:3462   */\n      dup2\n        /* \"#utility.yul\":3430:3463   */\n      tag_92\n      jump\t// in\n    tag_140:\n        /* \"#utility.yul\":3330:3469   */\n      swap3\n      swap2\n      pop\n      pop\n      jump\t// out\n        /* \"#utility.yul\":3475:3804   */\n    tag_24:\n        /* \"#utility.yul\":3534:3540   */\n      0x00\n        /* \"#utility.yul\":3583:3585   */\n      0x20\n        /* \"#utility.yul\":3571:3580   */\n      dup3\n        /* \"#utility.yul\":3562:3569   */\n      dup5\n        /* \"#utility.yul\":3558:3581   */\n      sub\n        /* \"#utility.yul\":3554:3586   */\n      slt\n        /* \"#utility.yul\":3551:3670   */\n      iszero\n      tag_142\n      jumpi\n        /* \"#utility.yul\":3589:3668   */\n      tag_143\n      tag_84\n      jump\t// in\n    tag_143:\n        /* \"#utility.yul\":3551:3670   */\n    tag_142:\n        /* \"#utility.yul\":3709:3710   */\n      0x00\n        /* \"#utility.yul\":3734:3787   */\n      tag_144\n        /* \"#utility.yul\":3779:3786   */\n      dup5\n        /* \"#utility.yul\":3770:3776   */\n      dup3\n        /* \"#utility.yul\":3759:3768   */\n      dup6\n        /* \"#utility.yul\":3755:3777   */\n      add\n        /* \"#utility.yul\":3734:3787   */\n      tag_93\n      jump\t// in\n    tag_144:\n        /* \"#utility.yul\":3724:3787   */\n      swap2\n      pop\n        /* \"#utility.yul\":3680:3797   */\n      pop\n        /* \"#utility.yul\":3475:3804   */\n      swap3\n      swap2\n      pop\n      pop\n      jump\t// out\n        /* \"#utility.yul\":3810:3900   */\n    tag_94:\n        /* \"#utility.yul\":3844:3851   */\n      0x00\n        /* \"#utility.yul\":3887:3892   */\n      dup2\n        /* \"#utility.yul\":3880:3893   */\n      iszero\n        /* \"#utility.yul\":3873:3894   */\n      iszero\n        /* \"#utility.yul\":3862:3894   */\n      swap1\n      pop\n        /* \"#utility.yul\":3810:3900   */\n      swap2\n      swap1\n      pop\n      jump\t// out\n        /* \"#utility.yul\":3906:4015   */\n    tag_95:\n        /* \"#utility.yul\":3987:4008   */\n      tag_147\n        /* \"#utility.yul\":4002:4007   */\n      dup2\n        /* \"#utility.yul\":3987:4008   */\n      tag_94\n      jump\t// in\n    tag_147:\n        /* \"#utility.yul\":3982:3985   */\n      dup3\n        /* \"#utility.yul\":3975:4009   */\n      mstore\n        /* \"#utility.yul\":3906:4015   */\n      pop\n      pop\n      jump\t// out\n        /* \"#utility.yul\":4021:4439   */\n    tag_27:\n        /* \"#utility.yul\":4158:4162   */\n      0x00\n        /* \"#utility.yul\":4196:4198   */\n      0x60\n        /* \"#utility.yul\":4185:4194   */\n      dup3\n        /* \"#utility.yul\":4181:4199   */\n      add\n        /* \"#utility.yul\":4173:4199   */\n      swap1\n      pop\n        /* \"#utility.yul\":4209:4280   */\n      tag_149\n        /* \"#utility.yul\":4277:4278   */\n      0x00\n        /* \"#utility.yul\":4266:4275   */\n      dup4\n        /* \"#utility.yul\":4262:4279   */\n      add\n        /* \"#utility.yul\":4253:4259   */\n      dup7\n        /* \"#utility.yul\":4209:4280   */\n      tag_89\n      jump\t// in\n    tag_149:\n        /* \"#utility.yul\":4290:4356   */\n      tag_150\n        /* \"#utility.yul\":4352:4354   */\n      0x20\n        /* \"#utility.yul\":4341:4350   */\n      dup4\n        /* \"#utility.yul\":4337:4355   */\n      add\n        /* \"#utility.yul\":4328:4334   */\n      dup6\n        /* \"#utility.yul\":4290:4356   */\n      tag_95\n      jump\t// in\n    tag_150:\n        /* \"#utility.yul\":4366:4432   */\n      tag_151\n        /* \"#utility.yul\":4428:4430   */\n      0x40\n        /* \"#utility.yul\":4417:4426   */\n      dup4\n        /* \"#utility.yul\":4413:4431   */\n      add\n        /* \"#utility.yul\":4404:4410   */\n      dup5\n        /* \"#utility.yul\":4366:4432   */\n      tag_95\n      jump\t// in\n    tag_151:\n        /* \"#utility.yul\":4021:4439   */\n      swap5\n      swap4\n      pop\n      pop\n      pop\n      pop\n      jump\t// out\n        /* \"#utility.yul\":4445:4563   */\n    tag_96:\n        /* \"#utility.yul\":4532:4556   */\n      tag_153\n        /* \"#utility.yul\":4550:4555   */\n      dup2\n        /* \"#utility.yul\":4532:4556   */\n      tag_91\n      jump\t// in\n    tag_153:\n        /* \"#utility.yul\":4527:4530   */\n      dup3\n        /* \"#utility.yul\":4520:4557   */\n      mstore\n        /* \"#utility.yul\":4445:4563   */\n      pop\n      pop\n      jump\t// out\n        /* \"#utility.yul\":4569:4791   */\n    tag_34:\n        /* \"#utility.yul\":4662:4666   */\n      0x00\n        /* \"#utility.yul\":4700:4702   */\n      0x20\n        /* \"#utility.yul\":4689:4698   */\n      dup3\n        /* \"#utility.yul\":4685:4703   */\n      add\n        /* \"#utility.yul\":4677:4703   */\n      swap1\n      pop\n        /* \"#utility.yul\":4713:4784   */\n      tag_155\n        /* \"#utility.yul\":4781:4782   */\n      0x00\n        /* \"#utility.yul\":4770:4779   */\n      dup4\n        /* \"#utility.yul\":4766:4783   */\n      add\n        /* \"#utility.yul\":4757:4763   */\n      dup5\n        /* \"#utility.yul\":4713:4784   */\n      tag_96\n      jump\t// in\n    tag_155:\n        /* \"#utility.yul\":4569:4791   */\n      swap3\n      swap2\n      pop\n      pop\n      jump\t// out\n        /* \"#utility.yul\":4797:4977   */\n    tag_42:\n        /* \"#utility.yul\":4845:4922   */\n      0x4e487b7100000000000000000000000000000000000000000000000000000000\n        /* \"#utility.yul\":4842:4843   */\n      0x00\n        /* \"#utility.yul\":4835:4923   */\n      mstore\n        /* \"#utility.yul\":4942:4946   */\n      0x32\n        /* \"#utility.yul\":4939:4940   */\n      0x04\n        /* \"#utility.yul\":4932:4947   */\n      mstore\n        /* \"#utility.yul\":4966:4970   */\n      0x24\n        /* \"#utility.yul\":4963:4964   */\n      0x00\n        /* \"#utility.yul\":4956:4971   */\n      revert\n        /* \"#utility.yul\":4983:5163   */\n    tag_97:\n        /* \"#utility.yul\":5031:5108   */\n      0x4e487b7100000000000000000000000000000000000000000000000000000000\n        /* \"#utility.yul\":5028:5029   */\n      0x00\n        /* \"#utility.yul\":5021:5109   */\n      mstore\n        /* \"#utility.yul\":5128:5132   */\n      0x11\n        /* \"#utility.yul\":5125:5126   */\n      0x04\n        /* \"#utility.yul\":5118:5133   */\n      mstore\n        /* \"#utility.yul\":5152:5156   */\n      0x24\n        /* \"#utility.yul\":5149:5150   */\n      0x00\n        /* \"#utility.yul\":5142:5157   */\n      revert\n        /* \"#utility.yul\":5169:5402   */\n    tag_49:\n        /* \"#utility.yul\":5208:5211   */\n      0x00\n        /* \"#utility.yul\":5231:5255   */\n      tag_159\n        /* \"#utility.yul\":5249:5254   */\n      dup3\n        /* \"#utility.yul\":5231:5255   */\n      tag_86\n      jump\t// in\n    tag_159:\n        /* \"#utility.yul\":5222:5255   */\n      swap2\n      pop\n        /* \"#utility.yul\":5277:5343   */\n      0xffffffffffffffffffffffffffffffffffffffffffffffffffffffffffffffff\n        /* \"#utility.yul\":5270:5275   */\n      dup3\n        /* \"#utility.yul\":5267:5344   */\n      sub\n        /* \"#utility.yul\":5264:5367   */\n      tag_160\n      jumpi\n        /* \"#utility.yul\":5347:5365   */\n      tag_161\n      tag_97\n      jump\t// in\n    tag_161:\n        /* \"#utility.yul\":5264:5367   */\n    tag_160:\n        /* \"#utility.yul\":5394:5395   */\n      0x01\n        /* \"#utility.yul\":5387:5392   */\n      dup3\n        /* \"#utility.yul\":5383:5396   */\n      add\n        /* \"#utility.yul\":5376:5396   */\n      swap1\n      pop\n        /* \"#utility.yul\":5169:5402   */\n      swap2\n      swap1\n      pop\n      jump\t// out\n        /* \"#utility.yul\":5408:5588   */\n    tag_98:\n        /* \"#utility.yul\":5456:5533   */\n      0x4e487b7100000000000000000000000000000000000000000000000000000000\n        /* \"#utility.yul\":5453:5454   */\n      0x00\n        /* \"#utility.yul\":5446:5534   */\n      mstore\n        /* \"#utility.yul\":5553:5557   */\n      0x22\n        /* \"#utility.yul\":5550:5551   */\n      0x04\n        /* \"#utility.yul\":5543:5558   */\n      mstore\n        /* \"#utility.yul\":5577:5581   */\n      0x24\n        /* \"#utility.yul\":5574:5575   */\n      0x00\n        /* \"#utility.yul\":5567:5582   */\n      revert\n        /* \"#utility.yul\":5594:5914   */\n    tag_54:\n        /* \"#utility.yul\":5638:5644   */\n      0x00\n        /* \"#utility.yul\":5675:5676   */\n      0x02\n        /* \"#utility.yul\":5669:5673   */\n      dup3\n        /* \"#utility.yul\":5665:5677   */\n      div\n        /* \"#utility.yul\":5655:5677   */\n      swap1\n      pop\n        /* \"#utility.yul\":5722:5723   */\n      0x01\n        /* \"#utility.yul\":5716:5720   */\n      dup3\n        /* \"#utility.yul\":5712:5724   */\n      and\n        /* \"#utility.yul\":5743:5761   */\n      dup1\n        /* \"#utility.yul\":5733:5814   */\n      tag_164\n      jumpi\n        /* \"#utility.yul\":5799:5803   */\n      0x7f\n        /* \"#utility.yul\":5791:5797   */\n      dup3\n        /* \"#utility.yul\":5787:5804   */\n      and\n        /* \"#utility.yul\":5777:5804   */\n      swap2\n      pop\n        /* \"#utility.yul\":5733:5814   */\n    tag_164:\n        /* \"#utility.yul\":5861:5863   */\n      0x20\n        /* \"#utility.yul\":5853:5859   */\n      dup3\n        /* \"#utility.yul\":5850:5864   */\n      lt\n        /* \"#utility.yul\":5830:5848   */\n      dup2\n        /* \"#utility.yul\":5827:5865   */\n      sub\n        /* \"#utility.yul\":5824:5908   */\n      tag_165\n      jumpi\n        /* \"#utility.yul\":5880:5898   */\n      tag_166\n      tag_98\n      jump\t// in\n    tag_166:\n        /* \"#utility.yul\":5824:5908   */\n    tag_165:\n        /* \"#utility.yul\":5645:5914   */\n      pop\n        /* \"#utility.yul\":5594:5914   */\n      swap2\n      swap1\n      pop\n      jump\t// out\n        /* \"#utility.yul\":5920:6225   */\n    tag_73:\n        /* \"#utility.yul\":5960:5963   */\n      0x00\n        /* \"#utility.yul\":5979:5999   */\n      tag_168\n        /* \"#utility.yul\":5997:5998   */\n      dup3\n        /* \"#utility.yul\":5979:5999   */\n      tag_86\n      jump\t// in\n    tag_168:\n        /* \"#utility.yul\":5974:5999   */\n      swap2\n      pop\n        /* \"#utility.yul\":6013:6033   */\n      tag_169\n        /* \"#utility.yul\":6031:6032   */\n      dup4\n        /* \"#utility.yul\":6013:6033   */\n      tag_86\n      jump\t// in\n    tag_169:\n        /* \"#utility.yul\":6008:6033   */\n      swap3\n      pop\n        /* \"#utility.yul\":6167:6168   */\n      dup3\n        /* \"#utility.yul\":6099:6165   */\n      0xffffffffffffffffffffffffffffffffffffffffffffffffffffffffffffffff\n        /* \"#utility.yul\":6095:6169   */\n      sub\n        /* \"#utility.yul\":6092:6093   */\n      dup3\n        /* \"#utility.yul\":6089:6170   */\n      gt\n        /* \"#utility.yul\":6086:6193   */\n      iszero\n      tag_170\n      jumpi\n        /* \"#utility.yul\":6173:6191   */\n      tag_171\n      tag_97\n      jump\t// in\n    tag_171:\n        /* \"#utility.yul\":6086:6193   */\n    tag_170:\n        /* \"#utility.yul\":6217:6218   */\n      dup3\n        /* \"#utility.yul\":6214:6215   */\n      dup3\n        /* \"#utility.yul\":6210:6219   */\n      add\n        /* \"#utility.yul\":6203:6219   */\n      swap1\n      pop\n        /* \"#utility.yul\":5920:6225   */\n      swap3\n      swap2\n      pop\n      pop\n      jump\t// out\n\n    auxdata: 0xa26469706673582212203c896a96b10842b6655523300c20213fb36b9cf1d0fe7b1fe24ed2a207782a9d64736f6c634300080d0033\n}\n","bytecode":{"linkReferences":{},"object":"60806040523480156200001157600080fd5b506040516200102338038062001023833981810160405281019062000037919062000474565b336000806101000a81548173ffffffffffffffffffffffffffffffffffffffff021916908373ffffffffffffffffffffffffffffffffffffffff16021790555060005b8151811015620001235760026040518060400160405280848481518110620000a757620000a6620004c5565b5b60200260200101518152602001600081525090806001815401808255809150506001900390600052602060002090600202016000909190919091506000820151816000019080519060200190620001009291906200012b565b5060208201518160010155505080806200011a906200052d565b9150506200007a565b5050620005de565b8280546200013990620005a9565b90600052602060002090601f0160209004810192826200015d5760008555620001a9565b82601f106200017857805160ff1916838001178555620001a9565b82800160010185558215620001a9579182015b82811115620001a85782518255916020019190600101906200018b565b5b509050620001b89190620001bc565b5090565b5b80821115620001d7576000816000905550600101620001bd565b5090565b6000604051905090565b600080fd5b600080fd5b600080fd5b6000601f19601f8301169050919050565b7f4e487b7100000000000000000000000000000000000000000000000000000000600052604160045260246000fd5b6200023f82620001f4565b810181811067ffffffffffffffff8211171562000261576200026062000205565b5b80604052505050565b600062000276620001db565b905062000284828262000234565b919050565b600067ffffffffffffffff821115620002a757620002a662000205565b5b602082029050602081019050919050565b600080fd5b600080fd5b600067ffffffffffffffff821115620002e057620002df62000205565b5b620002eb82620001f4565b9050602081019050919050565b60005b8381101562000318578082015181840152602081019050620002fb565b8381111562000328576000848401525b50505050565b6000620003456200033f84620002c2565b6200026a565b905082815260208101848484011115620003645762000363620002bd565b5b62000371848285620002f8565b509392505050565b600082601f830112620003915762000390620001ef565b5b8151620003a38482602086016200032e565b91505092915050565b6000620003c3620003bd8462000289565b6200026a565b90508083825260208201905060208402830185811115620003e957620003e8620002b8565b5b835b818110156200043757805167ffffffffffffffff811115620004125762000411620001ef565b5b80860162000421898262000379565b85526020850194505050602081019050620003eb565b5050509392505050565b600082601f830112620004595762000458620001ef565b5b81516200046b848260208601620003ac565b91505092915050565b6000602082840312156200048d576200048c620001e5565b5b600082015167ffffffffffffffff811115620004ae57620004ad620001ea565b5b620004bc8482850162000441565b91505092915050565b7f4e487b7100000000000000000000000000000000000000000000000000000000600052603260045260246000fd5b7f4e487b7100000000000000000000000000000000000000000000000000000000600052601160045260246000fd5b6000819050919050565b60006200053a8262000523565b91507fffffffffffffffffffffffffffffffffffffffffffffffffffffffffffffffff82036200056f576200056e620004f4565b5b600182019050919050565b7f4e487b7100000000000000000000000000000000000000000000000000000000600052602260045260246000fd5b60006002820490506001821680620005c257607f821691505b602082108103620005d857620005d76200057a565b5b50919050565b610a3580620005ee6000396000f3fe608060405234801561001057600080fd5b50600436106100625760003560e01c806314034bd21461006757806370651a18146100855780637f178f2e146100b6578063a3ec138d146100d2578063b72d153d14610104578063f851a44014610120575b600080fd5b61006f61013e565b60405161007c91906106d3565b60405180910390f35b61009f600480360381019061009a9190610730565b6102d1565b6040516100ad92919061076c565b60405180910390f35b6100d060048036038101906100cb9190610730565b61038d565b005b6100ec60048036038101906100e791906107fa565b61046e565b6040516100fb93929190610842565b60405180910390f35b61011e600480360381019061011991906107fa565b6104b2565b005b610128610616565b6040516101359190610888565b60405180910390f35b606060008054906101000a900473ffffffffffffffffffffffffffffffffffffffff1673ffffffffffffffffffffffffffffffffffffffff163373ffffffffffffffffffffffffffffffffffffffff161461019857600080fd5b6000806000905060005b60028054905081101561021b5781600282815481106101c4576101c36108a3565b5b906000526020600020906002020160010154111561020857600281815481106101f0576101ef6108a3565b5b90600052602060002090600202016001015491508092505b808061021390610901565b9150506101a2565b50600282815481106102305761022f6108a3565b5b9060005260206000209060020201600001805461024c90610978565b80601f016020809104026020016040519081016040528092919081815260200182805461027890610978565b80156102c55780601f1061029a576101008083540402835291602001916102c5565b820191906000526020600020905b8154815290600101906020018083116102a857829003601f168201915b50505050509250505090565b600281815481106102e157600080fd5b906000526020600020906002020160009150905080600001805461030490610978565b80601f016020809104026020016040519081016040528092919081815260200182805461033090610978565b801561037d5780601f106103525761010080835404028352916020019161037d565b820191906000526020600020905b81548152906001019060200180831161036057829003601f168201915b5050505050908060010154905082565b6000600160003373ffffffffffffffffffffffffffffffffffffffff1673ffffffffffffffffffffffffffffffffffffffff16815260200190815260200160002090508060010160019054906101000a900460ff166103eb57600080fd5b8060010160009054906101000a900460ff161561040757600080fd5b60018160010160006101000a81548160ff021916908315150217905550818160000181905550600160028381548110610443576104426108a3565b5b9060005260206000209060020201600101600082825461046391906109a9565b925050819055505050565b60016020528060005260406000206000915090508060000154908060010160009054906101000a900460ff16908060010160019054906101000a900460ff16905083565b60008054906101000a900473ffffffffffffffffffffffffffffffffffffffff1673ffffffffffffffffffffffffffffffffffffffff163373ffffffffffffffffffffffffffffffffffffffff161461050a57600080fd5b600160008273ffffffffffffffffffffffffffffffffffffffff1673ffffffffffffffffffffffffffffffffffffffff16815260200190815260200160002060010160009054906101000a900460ff161561056457600080fd5b600160008273ffffffffffffffffffffffffffffffffffffffff1673ffffffffffffffffffffffffffffffffffffffff16815260200190815260200160002060010160019054906101000a900460ff166106135760018060008373ffffffffffffffffffffffffffffffffffffffff1673ffffffffffffffffffffffffffffffffffffffff16815260200190815260200160002060010160016101000a81548160ff0219169083151502179055505b50565b60008054906101000a900473ffffffffffffffffffffffffffffffffffffffff1681565b600081519050919050565b600082825260208201905092915050565b60005b83811015610674578082015181840152602081019050610659565b83811115610683576000848401525b50505050565b6000601f19601f8301169050919050565b60006106a58261063a565b6106af8185610645565b93506106bf818560208601610656565b6106c881610689565b840191505092915050565b600060208201905081810360008301526106ed818461069a565b905092915050565b600080fd5b6000819050919050565b61070d816106fa565b811461071857600080fd5b50565b60008135905061072a81610704565b92915050565b600060208284031215610746576107456106f5565b5b60006107548482850161071b565b91505092915050565b610766816106fa565b82525050565b60006040820190508181036000830152610786818561069a565b9050610795602083018461075d565b9392505050565b600073ffffffffffffffffffffffffffffffffffffffff82169050919050565b60006107c78261079c565b9050919050565b6107d7816107bc565b81146107e257600080fd5b50565b6000813590506107f4816107ce565b92915050565b6000602082840312156108105761080f6106f5565b5b600061081e848285016107e5565b91505092915050565b60008115159050919050565b61083c81610827565b82525050565b6000606082019050610857600083018661075d565b6108646020830185610833565b6108716040830184610833565b949350505050565b610882816107bc565b82525050565b600060208201905061089d6000830184610879565b92915050565b7f4e487b7100000000000000000000000000000000000000000000000000000000600052603260045260246000fd5b7f4e487b7100000000000000000000000000000000000000000000000000000000600052601160045260246000fd5b600061090c826106fa565b91507fffffffffffffffffffffffffffffffffffffffffffffffffffffffffffffffff820361093e5761093d6108d2565b5b600182019050919050565b7f4e487b7100000000000000000000000000000000000000000000000000000000600052602260045260246000fd5b6000600282049050600182168061099057607f821691505b6020821081036109a3576109a2610949565b5b50919050565b60006109b4826106fa565b91506109bf836106fa565b9250827fffffffffffffffffffffffffffffffffffffffffffffffffffffffffffffffff038211156109f4576109f36108d2565b5b82820190509291505056fea26469706673582212203c896a96b10842b6655523300c20213fb36b9cf1d0fe7b1fe24ed2a207782a9d64736f6c634300080d0033","opcodes":"PUSH1 0x80 PUSH1 0x40 MSTORE CALLVALUE DUP1 ISZERO PUSH3 0x11 JUMPI PUSH1 0x0 DUP1 REVERT JUMPDEST POP PUSH1 0x40 MLOAD PUSH3 0x1023 CODESIZE SUB DUP1 PUSH3 0x1023 DUP4 CODECOPY DUP2 DUP2 ADD PUSH1 0x40 MSTORE DUP2 ADD SWAP1 PUSH3 0x37 SWAP2 SWAP1 PUSH3 0x474 JUMP JUMPDEST CALLER PUSH1 0x0 DUP1 PUSH2 0x100 EXP DUP2 SLOAD DUP2 PUSH20 0xFFFFFFFFFFFFFFFFFFFFFFFFFFFFFFFFFFFFFFFF MUL NOT AND SWAP1 DUP4 PUSH20 0xFFFFFFFFFFFFFFFFFFFFFFFFFFFFFFFFFFFFFFFF AND MUL OR SWAP1 SSTORE POP PUSH1 0x0 JUMPDEST DUP2 MLOAD DUP2 LT ISZERO PUSH3 0x123 JUMPI PUSH1 0x2 PUSH1 0x40 MLOAD DUP1 PUSH1 0x40 ADD PUSH1 0x40 MSTORE DUP1 DUP5 DUP5 DUP2 MLOAD DUP2 LT PUSH3 0xA7 JUMPI PUSH3 0xA6 PUSH3 0x4C5 JUMP JUMPDEST JUMPDEST PUSH1 0x20 MUL PUSH1 0x20 ADD ADD MLOAD DUP2 MSTORE PUSH1 0x20 ADD PUSH1 0x0 DUP2 MSTORE POP SWAP1 DUP1 PUSH1 0x1 DUP2 SLOAD ADD DUP1 DUP3 SSTORE DUP1 SWAP2 POP POP PUSH1 0x1 SWAP1 SUB SWAP1 PUSH1 0x0 MSTORE PUSH1 0x20 PUSH1 0x0 KECCAK256 SWAP1 PUSH1 0x2 MUL ADD PUSH1 0x0 SWAP1 SWAP2 SWAP1 SWAP2 SWAP1 SWAP2 POP PUSH1 0x0 DUP3 ADD MLOAD DUP2 PUSH1 0x0 ADD SWAP1 DUP1 MLOAD SWAP1 PUSH1 0x20 ADD SWAP1 PUSH3 0x100 SWAP3 SWAP2 SWAP1 PUSH3 0x12B JUMP JUMPDEST POP PUSH1 0x20 DUP3 ADD MLOAD DUP2 PUSH1 0x1 ADD SSTORE POP POP DUP1 DUP1 PUSH3 0x11A SWAP1 PUSH3 0x52D JUMP JUMPDEST SWAP2 POP POP PUSH3 0x7A JUMP JUMPDEST POP POP PUSH3 0x5DE JUMP JUMPDEST DUP3 DUP1 SLOAD PUSH3 0x139 SWAP1 PUSH3 0x5A9 JUMP JUMPDEST SWAP1 PUSH1 0x0 MSTORE PUSH1 0x20 PUSH1 0x0 KECCAK256 SWAP1 PUSH1 0x1F ADD PUSH1 0x20 SWAP1 DIV DUP2 ADD SWAP3 DUP3 PUSH3 0x15D JUMPI PUSH1 0x0 DUP6 SSTORE PUSH3 0x1A9 JUMP JUMPDEST DUP3 PUSH1 0x1F LT PUSH3 0x178 JUMPI DUP1 MLOAD PUSH1 0xFF NOT AND DUP4 DUP1 ADD OR DUP6 SSTORE PUSH3 0x1A9 JUMP JUMPDEST DUP3 DUP1 ADD PUSH1 0x1 ADD DUP6 SSTORE DUP3 ISZERO PUSH3 0x1A9 JUMPI SWAP2 DUP3 ADD JUMPDEST DUP3 DUP2 GT ISZERO PUSH3 0x1A8 JUMPI DUP3 MLOAD DUP3 SSTORE SWAP2 PUSH1 0x20 ADD SWAP2 SWAP1 PUSH1 0x1 ADD SWAP1 PUSH3 0x18B JUMP JUMPDEST JUMPDEST POP SWAP1 POP PUSH3 0x1B8 SWAP2 SWAP1 PUSH3 0x1BC JUMP JUMPDEST POP SWAP1 JUMP JUMPDEST JUMPDEST DUP1 DUP3 GT ISZERO PUSH3 0x1D7 JUMPI PUSH1 0x0 DUP2 PUSH1 0x0 SWAP1 SSTORE POP PUSH1 0x1 ADD PUSH3 0x1BD JUMP JUMPDEST POP SWAP1 JUMP JUMPDEST PUSH1 0x0 PUSH1 0x40 MLOAD SWAP1 POP SWAP1 JUMP JUMPDEST PUSH1 0x0 DUP1 REVERT JUMPDEST PUSH1 0x0 DUP1 REVERT JUMPDEST PUSH1 0x0 DUP1 REVERT JUMPDEST PUSH1 0x0 PUSH1 0x1F NOT PUSH1 0x1F DUP4 ADD AND SWAP1 POP SWAP2 SWAP1 POP JUMP JUMPDEST PUSH32 0x4E487B7100000000000000000000000000000000000000000000000000000000 PUSH1 0x0 MSTORE PUSH1 0x41 PUSH1 0x4 MSTORE PUSH1 0x24 PUSH1 0x0 REVERT JUMPDEST PUSH3 0x23F DUP3 PUSH3 0x1F4 JUMP JUMPDEST DUP2 ADD DUP2 DUP2 LT PUSH8 0xFFFFFFFFFFFFFFFF DUP3 GT OR ISZERO PUSH3 0x261 JUMPI PUSH3 0x260 PUSH3 0x205 JUMP JUMPDEST JUMPDEST DUP1 PUSH1 0x40 MSTORE POP POP POP JUMP JUMPDEST PUSH1 0x0 PUSH3 0x276 PUSH3 0x1DB JUMP JUMPDEST SWAP1 POP PUSH3 0x284 DUP3 DUP3 PUSH3 0x234 JUMP JUMPDEST SWAP2 SWAP1 POP JUMP JUMPDEST PUSH1 0x0 PUSH8 0xFFFFFFFFFFFFFFFF DUP3 GT ISZERO PUSH3 0x2A7 JUMPI PUSH3 0x2A6 PUSH3 0x205 JUMP JUMPDEST JUMPDEST PUSH1 0x20 DUP3 MUL SWAP1 POP PUSH1 0x20 DUP2 ADD SWAP1 POP SWAP2 SWAP1 POP JUMP JUMPDEST PUSH1 0x0 DUP1 REVERT JUMPDEST PUSH1 0x0 DUP1 REVERT JUMPDEST PUSH1 0x0 PUSH8 0xFFFFFFFFFFFFFFFF DUP3 GT ISZERO PUSH3 0x2E0 JUMPI PUSH3 0x2DF PUSH3 0x205 JUMP JUMPDEST JUMPDEST PUSH3 0x2EB DUP3 PUSH3 0x1F4 JUMP JUMPDEST SWAP1 POP PUSH1 0x20 DUP2 ADD SWAP1 POP SWAP2 SWAP1 POP JUMP JUMPDEST PUSH1 0x0 JUMPDEST DUP4 DUP2 LT ISZERO PUSH3 0x318 JUMPI DUP1 DUP3 ADD MLOAD DUP2 DUP5 ADD MSTORE PUSH1 0x20 DUP2 ADD SWAP1 POP PUSH3 0x2FB JUMP JUMPDEST DUP4 DUP2 GT ISZERO PUSH3 0x328 JUMPI PUSH1 0x0 DUP5 DUP5 ADD MSTORE JUMPDEST POP POP POP POP JUMP JUMPDEST PUSH1 0x0 PUSH3 0x345 PUSH3 0x33F DUP5 PUSH3 0x2C2 JUMP JUMPDEST PUSH3 0x26A JUMP JUMPDEST SWAP1 POP DUP3 DUP2 MSTORE PUSH1 0x20 DUP2 ADD DUP5 DUP5 DUP5 ADD GT ISZERO PUSH3 0x364 JUMPI PUSH3 0x363 PUSH3 0x2BD JUMP JUMPDEST JUMPDEST PUSH3 0x371 DUP5 DUP3 DUP6 PUSH3 0x2F8 JUMP JUMPDEST POP SWAP4 SWAP3 POP POP POP JUMP JUMPDEST PUSH1 0x0 DUP3 PUSH1 0x1F DUP4 ADD SLT PUSH3 0x391 JUMPI PUSH3 0x390 PUSH3 0x1EF JUMP JUMPDEST JUMPDEST DUP2 MLOAD PUSH3 0x3A3 DUP5 DUP3 PUSH1 0x20 DUP7 ADD PUSH3 0x32E JUMP JUMPDEST SWAP2 POP POP SWAP3 SWAP2 POP POP JUMP JUMPDEST PUSH1 0x0 PUSH3 0x3C3 PUSH3 0x3BD DUP5 PUSH3 0x289 JUMP JUMPDEST PUSH3 0x26A JUMP JUMPDEST SWAP1 POP DUP1 DUP4 DUP3 MSTORE PUSH1 0x20 DUP3 ADD SWAP1 POP PUSH1 0x20 DUP5 MUL DUP4 ADD DUP6 DUP2 GT ISZERO PUSH3 0x3E9 JUMPI PUSH3 0x3E8 PUSH3 0x2B8 JUMP JUMPDEST JUMPDEST DUP4 JUMPDEST DUP2 DUP2 LT ISZERO PUSH3 0x437 JUMPI DUP1 MLOAD PUSH8 0xFFFFFFFFFFFFFFFF DUP2 GT ISZERO PUSH3 0x412 JUMPI PUSH3 0x411 PUSH3 0x1EF JUMP JUMPDEST JUMPDEST DUP1 DUP7 ADD PUSH3 0x421 DUP10 DUP3 PUSH3 0x379 JUMP JUMPDEST DUP6 MSTORE PUSH1 0x20 DUP6 ADD SWAP5 POP POP POP PUSH1 0x20 DUP2 ADD SWAP1 POP PUSH3 0x3EB JUMP JUMPDEST POP POP POP SWAP4 SWAP3 POP POP POP JUMP JUMPDEST PUSH1 0x0 DUP3 PUSH1 0x1F DUP4 ADD SLT PUSH3 0x459 JUMPI PUSH3 0x458 PUSH3 0x1EF JUMP JUMPDEST JUMPDEST DUP2 MLOAD PUSH3 0x46B DUP5 DUP3 PUSH1 0x20 DUP7 ADD PUSH3 0x3AC JUMP JUMPDEST SWAP2 POP POP SWAP3 SWAP2 POP POP JUMP JUMPDEST PUSH1 0x0 PUSH1 0x20 DUP3 DUP5 SUB SLT ISZERO PUSH3 0x48D JUMPI PUSH3 0x48C PUSH3 0x1E5 JUMP JUMPDEST JUMPDEST PUSH1 0x0 DUP3 ADD MLOAD PUSH8 0xFFFFFFFFFFFFFFFF DUP2 GT ISZERO PUSH3 0x4AE JUMPI PUSH3 0x4AD PUSH3 0x1EA JUMP JUMPDEST JUMPDEST PUSH3 0x4BC DUP5 DUP3 DUP6 ADD PUSH3 0x441 JUMP JUMPDEST SWAP2 POP POP SWAP3 SWAP2 POP POP JUMP JUMPDEST PUSH32 0x4E487B7100000000000000000000000000000000000000000000000000000000 PUSH1 0x0 MSTORE PUSH1 0x32 PUSH1 0x4 MSTORE PUSH1 0x24 PUSH1 0x0 REVERT JUMPDEST PUSH32 0x4E487B7100000000000000000000000000000000000000000000000000000000 PUSH1 0x0 MSTORE PUSH1 0x11 PUSH1 0x4 MSTORE PUSH1 0x24 PUSH1 0x0 REVERT JUMPDEST PUSH1 0x0 DUP2 SWAP1 POP SWAP2 SWAP1 POP JUMP JUMPDEST PUSH1 0x0 PUSH3 0x53A DUP3 PUSH3 0x523 JUMP JUMPDEST SWAP2 POP PUSH32 0xFFFFFFFFFFFFFFFFFFFFFFFFFFFFFFFFFFFFFFFFFFFFFFFFFFFFFFFFFFFFFFFF DUP3 SUB PUSH3 0x56F JUMPI PUSH3 0x56E PUSH3 0x4F4 JUMP JUMPDEST JUMPDEST PUSH1 0x1 DUP3 ADD SWAP1 POP SWAP2 SWAP1 POP JUMP JUMPDEST PUSH32 0x4E487B7100000000000000000000000000000000000000000000000000000000 PUSH1 0x0 MSTORE PUSH1 0x22 PUSH1 0x4 MSTORE PUSH1 0x24 PUSH1 0x0 REVERT JUMPDEST PUSH1 0x0 PUSH1 0x2 DUP3 DIV SWAP1 POP PUSH1 0x1 DUP3 AND DUP1 PUSH3 0x5C2 JUMPI PUSH1 0x7F DUP3 AND SWAP2 POP JUMPDEST PUSH1 0x20 DUP3 LT DUP2 SUB PUSH3 0x5D8 JUMPI PUSH3 0x5D7 PUSH3 0x57A JUMP JUMPDEST JUMPDEST POP SWAP2 SWAP1 POP JUMP JUMPDEST PUSH2 0xA35 DUP1 PUSH3 0x5EE PUSH1 0x0 CODECOPY PUSH1 0x0 RETURN INVALID PUSH1 0x80 PUSH1 0x40 MSTORE CALLVALUE DUP1 ISZERO PUSH2 0x10 JUMPI PUSH1 0x0 DUP1 REVERT JUMPDEST POP PUSH1 0x4 CALLDATASIZE LT PUSH2 0x62 JUMPI PUSH1 0x0 CALLDATALOAD PUSH1 0xE0 SHR DUP1 PUSH4 0x14034BD2 EQ PUSH2 0x67 JUMPI DUP1 PUSH4 0x70651A18 EQ PUSH2 0x85 JUMPI DUP1 PUSH4 0x7F178F2E EQ PUSH2 0xB6 JUMPI DUP1 PUSH4 0xA3EC138D EQ PUSH2 0xD2 JUMPI DUP1 PUSH4 0xB72D153D EQ PUSH2 0x104 JUMPI DUP1 PUSH4 0xF851A440 EQ PUSH2 0x120 JUMPI JUMPDEST PUSH1 0x0 DUP1 REVERT JUMPDEST PUSH2 0x6F PUSH2 0x13E JUMP JUMPDEST PUSH1 0x40 MLOAD PUSH2 0x7C SWAP2 SWAP1 PUSH2 0x6D3 JUMP JUMPDEST PUSH1 0x40 MLOAD DUP1 SWAP2 SUB SWAP1 RETURN JUMPDEST PUSH2 0x9F PUSH1 0x4 DUP1 CALLDATASIZE SUB DUP2 ADD SWAP1 PUSH2 0x9A SWAP2 SWAP1 PUSH2 0x730 JUMP JUMPDEST PUSH2 0x2D1 JUMP JUMPDEST PUSH1 0x40 MLOAD PUSH2 0xAD SWAP3 SWAP2 SWAP1 PUSH2 0x76C JUMP JUMPDEST PUSH1 0x40 MLOAD DUP1 SWAP2 SUB SWAP1 RETURN JUMPDEST PUSH2 0xD0 PUSH1 0x4 DUP1 CALLDATASIZE SUB DUP2 ADD SWAP1 PUSH2 0xCB SWAP2 SWAP1 PUSH2 0x730 JUMP JUMPDEST PUSH2 0x38D JUMP JUMPDEST STOP JUMPDEST PUSH2 0xEC PUSH1 0x4 DUP1 CALLDATASIZE SUB DUP2 ADD SWAP1 PUSH2 0xE7 SWAP2 SWAP1 PUSH2 0x7FA JUMP JUMPDEST PUSH2 0x46E JUMP JUMPDEST PUSH1 0x40 MLOAD PUSH2 0xFB SWAP4 SWAP3 SWAP2 SWAP1 PUSH2 0x842 JUMP JUMPDEST PUSH1 0x40 MLOAD DUP1 SWAP2 SUB SWAP1 RETURN JUMPDEST PUSH2 0x11E PUSH1 0x4 DUP1 CALLDATASIZE SUB DUP2 ADD SWAP1 PUSH2 0x119 SWAP2 SWAP1 PUSH2 0x7FA JUMP JUMPDEST PUSH2 0x4B2 JUMP JUMPDEST STOP JUMPDEST PUSH2 0x128 PUSH2 0x616 JUMP JUMPDEST PUSH1 0x40 MLOAD PUSH2 0x135 SWAP2 SWAP1 PUSH2 0x888 JUMP JUMPDEST PUSH1 0x40 MLOAD DUP1 SWAP2 SUB SWAP1 RETURN JUMPDEST PUSH1 0x60 PUSH1 0x0 DUP1 SLOAD SWAP1 PUSH2 0x100 EXP SWAP1 DIV PUSH20 0xFFFFFFFFFFFFFFFFFFFFFFFFFFFFFFFFFFFFFFFF AND PUSH20 0xFFFFFFFFFFFFFFFFFFFFFFFFFFFFFFFFFFFFFFFF AND CALLER PUSH20 0xFFFFFFFFFFFFFFFFFFFFFFFFFFFFFFFFFFFFFFFF AND EQ PUSH2 0x198 JUMPI PUSH1 0x0 DUP1 REVERT JUMPDEST PUSH1 0x0 DUP1 PUSH1 0x0 SWAP1 POP PUSH1 0x0 JUMPDEST PUSH1 0x2 DUP1 SLOAD SWAP1 POP DUP2 LT ISZERO PUSH2 0x21B JUMPI DUP2 PUSH1 0x2 DUP3 DUP2 SLOAD DUP2 LT PUSH2 0x1C4 JUMPI PUSH2 0x1C3 PUSH2 0x8A3 JUMP JUMPDEST JUMPDEST SWAP1 PUSH1 0x0 MSTORE PUSH1 0x20 PUSH1 0x0 KECCAK256 SWAP1 PUSH1 0x2 MUL ADD PUSH1 0x1 ADD SLOAD GT ISZERO PUSH2 0x208 JUMPI PUSH1 0x2 DUP2 DUP2 SLOAD DUP2 LT PUSH2 0x1F0 JUMPI PUSH2 0x1EF PUSH2 0x8A3 JUMP JUMPDEST JUMPDEST SWAP1 PUSH1 0x0 MSTORE PUSH1 0x20 PUSH1 0x0 KECCAK256 SWAP1 PUSH1 0x2 MUL ADD PUSH1 0x1 ADD SLOAD SWAP2 POP DUP1 SWAP3 POP JUMPDEST DUP1 DUP1 PUSH2 0x213 SWAP1 PUSH2 0x901 JUMP JUMPDEST SWAP2 POP POP PUSH2 0x1A2 JUMP JUMPDEST POP PUSH1 0x2 DUP3 DUP2 SLOAD DUP2 LT PUSH2 0x230 JUMPI PUSH2 0x22F PUSH2 0x8A3 JUMP JUMPDEST JUMPDEST SWAP1 PUSH1 0x0 MSTORE PUSH1 0x20 PUSH1 0x0 KECCAK256 SWAP1 PUSH1 0x2 MUL ADD PUSH1 0x0 ADD DUP1 SLOAD PUSH2 0x24C SWAP1 PUSH2 0x978 JUMP JUMPDEST DUP1 PUSH1 0x1F ADD PUSH1 0x20 DUP1 SWAP2 DIV MUL PUSH1 0x20 ADD PUSH1 0x40 MLOAD SWAP1 DUP2 ADD PUSH1 0x40 MSTORE DUP1 SWAP3 SWAP2 SWAP1 DUP2 DUP2 MSTORE PUSH1 0x20 ADD DUP3 DUP1 SLOAD PUSH2 0x278 SWAP1 PUSH2 0x978 JUMP JUMPDEST DUP1 ISZERO PUSH2 0x2C5 JUMPI DUP1 PUSH1 0x1F LT PUSH2 0x29A JUMPI PUSH2 0x100 DUP1 DUP4 SLOAD DIV MUL DUP4 MSTORE SWAP2 PUSH1 0x20 ADD SWAP2 PUSH2 0x2C5 JUMP JUMPDEST DUP3 ADD SWAP2 SWAP1 PUSH1 0x0 MSTORE PUSH1 0x20 PUSH1 0x0 KECCAK256 SWAP1 JUMPDEST DUP2 SLOAD DUP2 MSTORE SWAP1 PUSH1 0x1 ADD SWAP1 PUSH1 0x20 ADD DUP1 DUP4 GT PUSH2 0x2A8 JUMPI DUP3 SWAP1 SUB PUSH1 0x1F AND DUP3 ADD SWAP2 JUMPDEST POP POP POP POP POP SWAP3 POP POP POP SWAP1 JUMP JUMPDEST PUSH1 0x2 DUP2 DUP2 SLOAD DUP2 LT PUSH2 0x2E1 JUMPI PUSH1 0x0 DUP1 REVERT JUMPDEST SWAP1 PUSH1 0x0 MSTORE PUSH1 0x20 PUSH1 0x0 KECCAK256 SWAP1 PUSH1 0x2 MUL ADD PUSH1 0x0 SWAP2 POP SWAP1 POP DUP1 PUSH1 0x0 ADD DUP1 SLOAD PUSH2 0x304 SWAP1 PUSH2 0x978 JUMP JUMPDEST DUP1 PUSH1 0x1F ADD PUSH1 0x20 DUP1 SWAP2 DIV MUL PUSH1 0x20 ADD PUSH1 0x40 MLOAD SWAP1 DUP2 ADD PUSH1 0x40 MSTORE DUP1 SWAP3 SWAP2 SWAP1 DUP2 DUP2 MSTORE PUSH1 0x20 ADD DUP3 DUP1 SLOAD PUSH2 0x330 SWAP1 PUSH2 0x978 JUMP JUMPDEST DUP1 ISZERO PUSH2 0x37D JUMPI DUP1 PUSH1 0x1F LT PUSH2 0x352 JUMPI PUSH2 0x100 DUP1 DUP4 SLOAD DIV MUL DUP4 MSTORE SWAP2 PUSH1 0x20 ADD SWAP2 PUSH2 0x37D JUMP JUMPDEST DUP3 ADD SWAP2 SWAP1 PUSH1 0x0 MSTORE PUSH1 0x20 PUSH1 0x0 KECCAK256 SWAP1 JUMPDEST DUP2 SLOAD DUP2 MSTORE SWAP1 PUSH1 0x1 ADD SWAP1 PUSH1 0x20 ADD DUP1 DUP4 GT PUSH2 0x360 JUMPI DUP3 SWAP1 SUB PUSH1 0x1F AND DUP3 ADD SWAP2 JUMPDEST POP POP POP POP POP SWAP1 DUP1 PUSH1 0x1 ADD SLOAD SWAP1 POP DUP3 JUMP JUMPDEST PUSH1 0x0 PUSH1 0x1 PUSH1 0x0 CALLER PUSH20 0xFFFFFFFFFFFFFFFFFFFFFFFFFFFFFFFFFFFFFFFF AND PUSH20 0xFFFFFFFFFFFFFFFFFFFFFFFFFFFFFFFFFFFFFFFF AND DUP2 MSTORE PUSH1 0x20 ADD SWAP1 DUP2 MSTORE PUSH1 0x20 ADD PUSH1 0x0 KECCAK256 SWAP1 POP DUP1 PUSH1 0x1 ADD PUSH1 0x1 SWAP1 SLOAD SWAP1 PUSH2 0x100 EXP SWAP1 DIV PUSH1 0xFF AND PUSH2 0x3EB JUMPI PUSH1 0x0 DUP1 REVERT JUMPDEST DUP1 PUSH1 0x1 ADD PUSH1 0x0 SWAP1 SLOAD SWAP1 PUSH2 0x100 EXP SWAP1 DIV PUSH1 0xFF AND ISZERO PUSH2 0x407 JUMPI PUSH1 0x0 DUP1 REVERT JUMPDEST PUSH1 0x1 DUP2 PUSH1 0x1 ADD PUSH1 0x0 PUSH2 0x100 EXP DUP2 SLOAD DUP2 PUSH1 0xFF MUL NOT AND SWAP1 DUP4 ISZERO ISZERO MUL OR SWAP1 SSTORE POP DUP2 DUP2 PUSH1 0x0 ADD DUP2 SWAP1 SSTORE POP PUSH1 0x1 PUSH1 0x2 DUP4 DUP2 SLOAD DUP2 LT PUSH2 0x443 JUMPI PUSH2 0x442 PUSH2 0x8A3 JUMP JUMPDEST JUMPDEST SWAP1 PUSH1 0x0 MSTORE PUSH1 0x20 PUSH1 0x0 KECCAK256 SWAP1 PUSH1 0x2 MUL ADD PUSH1 0x1 ADD PUSH1 0x0 DUP3 DUP3 SLOAD PUSH2 0x463 SWAP2 SWAP1 PUSH2 0x9A9 JUMP JUMPDEST SWAP3 POP POP DUP2 SWAP1 SSTORE POP POP POP JUMP JUMPDEST PUSH1 0x1 PUSH1 0x20 MSTORE DUP1 PUSH1 0x0 MSTORE PUSH1 0x40 PUSH1 0x0 KECCAK256 PUSH1 0x0 SWAP2 POP SWAP1 POP DUP1 PUSH1 0x0 ADD SLOAD SWAP1 DUP1 PUSH1 0x1 ADD PUSH1 0x0 SWAP1 SLOAD SWAP1 PUSH2 0x100 EXP SWAP1 DIV PUSH1 0xFF AND SWAP1 DUP1 PUSH1 0x1 ADD PUSH1 0x1 SWAP1 SLOAD SWAP1 PUSH2 0x100 EXP SWAP1 DIV PUSH1 0xFF AND SWAP1 POP DUP4 JUMP JUMPDEST PUSH1 0x0 DUP1 SLOAD SWAP1 PUSH2 0x100 EXP SWAP1 DIV PUSH20 0xFFFFFFFFFFFFFFFFFFFFFFFFFFFFFFFFFFFFFFFF AND PUSH20 0xFFFFFFFFFFFFFFFFFFFFFFFFFFFFFFFFFFFFFFFF AND CALLER PUSH20 0xFFFFFFFFFFFFFFFFFFFFFFFFFFFFFFFFFFFFFFFF AND EQ PUSH2 0x50A JUMPI PUSH1 0x0 DUP1 REVERT JUMPDEST PUSH1 0x1 PUSH1 0x0 DUP3 PUSH20 0xFFFFFFFFFFFFFFFFFFFFFFFFFFFFFFFFFFFFFFFF AND PUSH20 0xFFFFFFFFFFFFFFFFFFFFFFFFFFFFFFFFFFFFFFFF AND DUP2 MSTORE PUSH1 0x20 ADD SWAP1 DUP2 MSTORE PUSH1 0x20 ADD PUSH1 0x0 KECCAK256 PUSH1 0x1 ADD PUSH1 0x0 SWAP1 SLOAD SWAP1 PUSH2 0x100 EXP SWAP1 DIV PUSH1 0xFF AND ISZERO PUSH2 0x564 JUMPI PUSH1 0x0 DUP1 REVERT JUMPDEST PUSH1 0x1 PUSH1 0x0 DUP3 PUSH20 0xFFFFFFFFFFFFFFFFFFFFFFFFFFFFFFFFFFFFFFFF AND PUSH20 0xFFFFFFFFFFFFFFFFFFFFFFFFFFFFFFFFFFFFFFFF AND DUP2 MSTORE PUSH1 0x20 ADD SWAP1 DUP2 MSTORE PUSH1 0x20 ADD PUSH1 0x0 KECCAK256 PUSH1 0x1 ADD PUSH1 0x1 SWAP1 SLOAD SWAP1 PUSH2 0x100 EXP SWAP1 DIV PUSH1 0xFF AND PUSH2 0x613 JUMPI PUSH1 0x1 DUP1 PUSH1 0x0 DUP4 PUSH20 0xFFFFFFFFFFFFFFFFFFFFFFFFFFFFFFFFFFFFFFFF AND PUSH20 0xFFFFFFFFFFFFFFFFFFFFFFFFFFFFFFFFFFFFFFFF AND DUP2 MSTORE PUSH1 0x20 ADD SWAP1 DUP2 MSTORE PUSH1 0x20 ADD PUSH1 0x0 KECCAK256 PUSH1 0x1 ADD PUSH1 0x1 PUSH2 0x100 EXP DUP2 SLOAD DUP2 PUSH1 0xFF MUL NOT AND SWAP1 DUP4 ISZERO ISZERO MUL OR SWAP1 SSTORE POP JUMPDEST POP JUMP JUMPDEST PUSH1 0x0 DUP1 SLOAD SWAP1 PUSH2 0x100 EXP SWAP1 DIV PUSH20 0xFFFFFFFFFFFFFFFFFFFFFFFFFFFFFFFFFFFFFFFF AND DUP2 JUMP JUMPDEST PUSH1 0x0 DUP2 MLOAD SWAP1 POP SWAP2 SWAP1 POP JUMP JUMPDEST PUSH1 0x0 DUP3 DUP3 MSTORE PUSH1 0x20 DUP3 ADD SWAP1 POP SWAP3 SWAP2 POP POP JUMP JUMPDEST PUSH1 0x0 JUMPDEST DUP4 DUP2 LT ISZERO PUSH2 0x674 JUMPI DUP1 DUP3 ADD MLOAD DUP2 DUP5 ADD MSTORE PUSH1 0x20 DUP2 ADD SWAP1 POP PUSH2 0x659 JUMP JUMPDEST DUP4 DUP2 GT ISZERO PUSH2 0x683 JUMPI PUSH1 0x0 DUP5 DUP5 ADD MSTORE JUMPDEST POP POP POP POP JUMP JUMPDEST PUSH1 0x0 PUSH1 0x1F NOT PUSH1 0x1F DUP4 ADD AND SWAP1 POP SWAP2 SWAP1 POP JUMP JUMPDEST PUSH1 0x0 PUSH2 0x6A5 DUP3 PUSH2 0x63A JUMP JUMPDEST PUSH2 0x6AF DUP2 DUP6 PUSH2 0x645 JUMP JUMPDEST SWAP4 POP PUSH2 0x6BF DUP2 DUP6 PUSH1 0x20 DUP7 ADD PUSH2 0x656 JUMP JUMPDEST PUSH2 0x6C8 DUP2 PUSH2 0x689 JUMP JUMPDEST DUP5 ADD SWAP2 POP POP SWAP3 SWAP2 POP POP JUMP JUMPDEST PUSH1 0x0 PUSH1 0x20 DUP3 ADD SWAP1 POP DUP2 DUP2 SUB PUSH1 0x0 DUP4 ADD MSTORE PUSH2 0x6ED DUP2 DUP5 PUSH2 0x69A JUMP JUMPDEST SWAP1 POP SWAP3 SWAP2 POP POP JUMP JUMPDEST PUSH1 0x0 DUP1 REVERT JUMPDEST PUSH1 0x0 DUP2 SWAP1 POP SWAP2 SWAP1 POP JUMP JUMPDEST PUSH2 0x70D DUP2 PUSH2 0x6FA JUMP JUMPDEST DUP2 EQ PUSH2 0x718 JUMPI PUSH1 0x0 DUP1 REVERT JUMPDEST POP JUMP JUMPDEST PUSH1 0x0 DUP2 CALLDATALOAD SWAP1 POP PUSH2 0x72A DUP2 PUSH2 0x704 JUMP JUMPDEST SWAP3 SWAP2 POP POP JUMP JUMPDEST PUSH1 0x0 PUSH1 0x20 DUP3 DUP5 SUB SLT ISZERO PUSH2 0x746 JUMPI PUSH2 0x745 PUSH2 0x6F5 JUMP JUMPDEST JUMPDEST PUSH1 0x0 PUSH2 0x754 DUP5 DUP3 DUP6 ADD PUSH2 0x71B JUMP JUMPDEST SWAP2 POP POP SWAP3 SWAP2 POP POP JUMP JUMPDEST PUSH2 0x766 DUP2 PUSH2 0x6FA JUMP JUMPDEST DUP3 MSTORE POP POP JUMP JUMPDEST PUSH1 0x0 PUSH1 0x40 DUP3 ADD SWAP1 POP DUP2 DUP2 SUB PUSH1 0x0 DUP4 ADD MSTORE PUSH2 0x786 DUP2 DUP6 PUSH2 0x69A JUMP JUMPDEST SWAP1 POP PUSH2 0x795 PUSH1 0x20 DUP4 ADD DUP5 PUSH2 0x75D JUMP JUMPDEST SWAP4 SWAP3 POP POP POP JUMP JUMPDEST PUSH1 0x0 PUSH20 0xFFFFFFFFFFFFFFFFFFFFFFFFFFFFFFFFFFFFFFFF DUP3 AND SWAP1 POP SWAP2 SWAP1 POP JUMP JUMPDEST PUSH1 0x0 PUSH2 0x7C7 DUP3 PUSH2 0x79C JUMP JUMPDEST SWAP1 POP SWAP2 SWAP1 POP JUMP JUMPDEST PUSH2 0x7D7 DUP2 PUSH2 0x7BC JUMP JUMPDEST DUP2 EQ PUSH2 0x7E2 JUMPI PUSH1 0x0 DUP1 REVERT JUMPDEST POP JUMP JUMPDEST PUSH1 0x0 DUP2 CALLDATALOAD SWAP1 POP PUSH2 0x7F4 DUP2 PUSH2 0x7CE JUMP JUMPDEST SWAP3 SWAP2 POP POP JUMP JUMPDEST PUSH1 0x0 PUSH1 0x20 DUP3 DUP5 SUB SLT ISZERO PUSH2 0x810 JUMPI PUSH2 0x80F PUSH2 0x6F5 JUMP JUMPDEST JUMPDEST PUSH1 0x0 PUSH2 0x81E DUP5 DUP3 DUP6 ADD PUSH2 0x7E5 JUMP JUMPDEST SWAP2 POP POP SWAP3 SWAP2 POP POP JUMP JUMPDEST PUSH1 0x0 DUP2 ISZERO ISZERO SWAP1 POP SWAP2 SWAP1 POP JUMP JUMPDEST PUSH2 0x83C DUP2 PUSH2 0x827 JUMP JUMPDEST DUP3 MSTORE POP POP JUMP JUMPDEST PUSH1 0x0 PUSH1 0x60 DUP3 ADD SWAP1 POP PUSH2 0x857 PUSH1 0x0 DUP4 ADD DUP7 PUSH2 0x75D JUMP JUMPDEST PUSH2 0x864 PUSH1 0x20 DUP4 ADD DUP6 PUSH2 0x833 JUMP JUMPDEST PUSH2 0x871 PUSH1 0x40 DUP4 ADD DUP5 PUSH2 0x833 JUMP JUMPDEST SWAP5 SWAP4 POP POP POP POP JUMP JUMPDEST PUSH2 0x882 DUP2 PUSH2 0x7BC JUMP JUMPDEST DUP3 MSTORE POP POP JUMP JUMPDEST PUSH1 0x0 PUSH1 0x20 DUP3 ADD SWAP1 POP PUSH2 0x89D PUSH1 0x0 DUP4 ADD DUP5 PUSH2 0x879 JUMP JUMPDEST SWAP3 SWAP2 POP POP JUMP JUMPDEST PUSH32 0x4E487B7100000000000000000000000000000000000000000000000000000000 PUSH1 0x0 MSTORE PUSH1 0x32 PUSH1 0x4 MSTORE PUSH1 0x24 PUSH1 0x0 REVERT JUMPDEST PUSH32 0x4E487B7100000000000000000000000000000000000000000000000000000000 PUSH1 0x0 MSTORE PUSH1 0x11 PUSH1 0x4 MSTORE PUSH1 0x24 PUSH1 0x0 REVERT JUMPDEST PUSH1 0x0 PUSH2 0x90C DUP3 PUSH2 0x6FA JUMP JUMPDEST SWAP2 POP PUSH32 0xFFFFFFFFFFFFFFFFFFFFFFFFFFFFFFFFFFFFFFFFFFFFFFFFFFFFFFFFFFFFFFFF DUP3 SUB PUSH2 0x93E JUMPI PUSH2 0x93D PUSH2 0x8D2 JUMP JUMPDEST JUMPDEST PUSH1 0x1 DUP3 ADD SWAP1 POP SWAP2 SWAP1 POP JUMP JUMPDEST PUSH32 0x4E487B7100000000000000000000000000000000000000000000000000000000 PUSH1 0x0 MSTORE PUSH1 0x22 PUSH1 0x4 MSTORE PUSH1 0x24 PUSH1 0x0 REVERT JUMPDEST PUSH1 0x0 PUSH1 0x2 DUP3 DIV SWAP1 POP PUSH1 0x1 DUP3 AND DUP1 PUSH2 0x990 JUMPI PUSH1 0x7F DUP3 AND SWAP2 POP JUMPDEST PUSH1 0x20 DUP3 LT DUP2 SUB PUSH2 0x9A3 JUMPI PUSH2 0x9A2 PUSH2 0x949 JUMP JUMPDEST JUMPDEST POP SWAP2 SWAP1 POP JUMP JUMPDEST PUSH1 0x0 PUSH2 0x9B4 DUP3 PUSH2 0x6FA JUMP JUMPDEST SWAP2 POP PUSH2 0x9BF DUP4 PUSH2 0x6FA JUMP JUMPDEST SWAP3 POP DUP3 PUSH32 0xFFFFFFFFFFFFFFFFFFFFFFFFFFFFFFFFFFFFFFFFFFFFFFFFFFFFFFFFFFFFFFFF SUB DUP3 GT ISZERO PUSH2 0x9F4 JUMPI PUSH2 0x9F3 PUSH2 0x8D2 JUMP JUMPDEST JUMPDEST DUP3 DUP3 ADD SWAP1 POP SWAP3 SWAP2 POP POP JUMP INVALID LOG2 PUSH5 0x6970667358 0x22 SLT KECCAK256 EXTCODECOPY DUP10 PUSH11 0x96B10842B6655523300C20 0x21 EXTCODEHASH 0xB3 PUSH12 0x9CF1D0FE7B1FE24ED2A20778 0x2A SWAP14 PUSH5 0x736F6C6343 STOP ADDMOD 0xD STOP CALLER "},"gasEstimates":{"creation":{"codeDepositCost":"522600","executionCost":"infinite","totalCost":"infinite"},"external":{"admin()":"2599","declareWinner()":"infinite","giveVote(uint256)":"infinite","makeEligibleToVote(address)":"31652","parties(uint256)":"infinite","voters(address)":"infinite"}},"methodIdentifiers":{"admin()":"f851a440","declareWinner()":"14034bd2","giveVote(uint256)":"7f178f2e","makeEligibleToVote(address)":"b72d153d","parties(uint256)":"70651a18","voters(address)":"a3ec138d"}},"storageLayout":{"storage":[{"astId":3,"contract":"VotingContract.sol:VotingContract","label":"admin","offset":0,"slot":"0","type":"t_address"},{"astId":20,"contract":"VotingContract.sol:VotingContract","label":"voters","offset":0,"slot":"1","type":"t_mapping(t_address,t_struct(VoterUser)15_storage)"},{"astId":24,"contract":"VotingContract.sol:VotingContract","label":"parties","offset":0,"slot":"2","type":"t_array(t_struct(Party)8_storage)dyn_storage"}],"types":{"t_address":{"encoding":"inplace","label":"address","numberOfBytes":"20"},"t_array(t_struct(Party)8_storage)dyn_storage":{"base":"t_struct(Party)8_storage","encoding":"dynamic_array","label":"struct VotingContract.Party[]","numberOfBytes":"32"},"t_bool":{"encoding":"inplace","label":"bool","numberOfBytes":"1"},"t_mapping(t_address,t_struct(VoterUser)15_storage)":{"encoding":"mapping","key":"t_address","label":"mapping(address => struct VotingContract.VoterUser)","numberOfBytes":"32","value":"t_struct(VoterUser)15_storage"},"t_string_storage":{"encoding":"bytes","label":"string","numberOfBytes":"32"},"t_struct(Party)8_storage":{"encoding":"inplace","label":"struct VotingContract.Party","members":[{"astId":5,"contract":"VotingContract.sol:VotingContract","label":"partyName","offset":0,"slot":"0","type":"t_string_storage"},{"astId":7,"contract":"VotingContract.sol:VotingContract","label":"numberOfVotes","offset":0,"slot":"1","type":"t_uint256"}],"numberOfBytes":"64"},"t_struct(VoterUser)15_storage":{"encoding":"inplace","label":"struct VotingContract.VoterUser","members":[{"astId":10,"contract":"VotingContract.sol:VotingContract","label":"votedParty","offset":0,"slot":"0","type":"t_uint256"},{"astId":12,"contract":"VotingContract.sol:VotingContract","label":"votingState","offset":0,"slot":"1","type":"t_bool"},{"astId":14,"contract":"VotingContract.sol:VotingContract","label":"canVote","offset":1,"slot":"1","type":"t_bool"}],"numberOfBytes":"64"},"t_uint256":{"encoding":"inplace","label":"uint256","numberOfBytes":"32"}}},"userdoc":{"kind":"user","methods":{},"version":1}}