{"abi":[{"inputs":[{"internalType":"string[]","name":"partyNames","type":"string[]"}],"stateMutability":"nonpayable","type":"constructor"},{"inputs":[],"name":"admin","outputs":[{"internalType":"address","name":"","type":"address"}],"stateMutability":"view","type":"function"},{"inputs":[],"name":"declareWinner","outputs":[],"stateMutability":"nonpayable","type":"function"},{"inputs":[],"name":"getPartyNumber","outputs":[{"internalType":"uint256","name":"","type":"uint256"}],"stateMutability":"view","type":"function"},{"inputs":[{"internalType":"uint256","name":"partyIndex","type":"uint256"}],"name":"giveVote","outputs":[],"stateMutability":"nonpayable","type":"function"},{"inputs":[{"internalType":"address","name":"voterUser","type":"address"}],"name":"makeEligibleToVote","outputs":[],"stateMutability":"nonpayable","type":"function"},{"inputs":[{"internalType":"uint256","name":"","type":"uint256"}],"name":"parties","outputs":[{"internalType":"string","name":"partyName","type":"string"},{"internalType":"uint256","name":"numberOfVotes","type":"uint256"}],"stateMutability":"view","type":"function"},{"inputs":[{"internalType":"address","name":"","type":"address"}],"name":"voters","outputs":[{"internalType":"uint256","name":"votedParty","type":"uint256"},{"internalType":"bool","name":"votingState","type":"bool"},{"internalType":"bool","name":"canVote","type":"bool"}],"stateMutability":"view","type":"function"},{"inputs":[],"name":"winner","outputs":[{"internalType":"string","name":"","type":"string"}],"stateMutability":"view","type":"function"}],"devdoc":{"kind":"dev","methods":{},"version":1},"evm":{"assembly":"    /* \"VotingContract.sol\":74:2045  contract VotingContract {... */\n  mstore(0x40, 0x80)\n    /* \"VotingContract.sol\":509:783  constructor(string[] memory partyNames) {... */\n  callvalue\n  dup1\n  iszero\n  tag_1\n  jumpi\n  0x00\n  dup1\n  revert\ntag_1:\n  pop\n  mload(0x40)\n  sub(codesize, bytecodeSize)\n  dup1\n  bytecodeSize\n  dup4\n  codecopy\n  dup2\n  dup2\n  add\n  0x40\n  mstore\n  dup2\n  add\n  swap1\n  tag_2\n  swap2\n  swap1\n  tag_3\n  jump\t// in\ntag_2:\n    /* \"VotingContract.sol\":568:578  msg.sender */\n  caller\n    /* \"VotingContract.sol\":560:565  admin */\n  0x00\n  dup1\n    /* \"VotingContract.sol\":560:578  admin = msg.sender */\n  0x0100\n  exp\n  dup2\n  sload\n  dup2\n  0xffffffffffffffffffffffffffffffffffffffff\n  mul\n  not\n  and\n  swap1\n  dup4\n  0xffffffffffffffffffffffffffffffffffffffff\n  and\n  mul\n  or\n  swap1\n  sstore\n  pop\n    /* \"VotingContract.sol\":595:601  uint i */\n  0x00\n    /* \"VotingContract.sol\":591:776  for(uint i = 0; i < partyNames.length; i++) {... */\ntag_6:\n    /* \"VotingContract.sol\":611:621  partyNames */\n  dup2\n    /* \"VotingContract.sol\":611:628  partyNames.length */\n  mload\n    /* \"VotingContract.sol\":607:608  i */\n  dup2\n    /* \"VotingContract.sol\":607:628  i < partyNames.length */\n  lt\n    /* \"VotingContract.sol\":591:776  for(uint i = 0; i < partyNames.length; i++) {... */\n  iszero\n  tag_7\n  jumpi\n    /* \"VotingContract.sol\":650:657  parties */\n  0x03\n    /* \"VotingContract.sol\":663:763  Party({... */\n  mload(0x40)\n  dup1\n  0x40\n  add\n  0x40\n  mstore\n  dup1\n    /* \"VotingContract.sol\":699:709  partyNames */\n  dup5\n    /* \"VotingContract.sol\":710:711  i */\n  dup5\n    /* \"VotingContract.sol\":699:712  partyNames[i] */\n  dup2\n  mload\n  dup2\n  lt\n  tag_9\n  jumpi\n  tag_10\n  tag_11\n  jump\t// in\ntag_10:\ntag_9:\n  0x20\n  mul\n  0x20\n  add\n  add\n  mload\n    /* \"VotingContract.sol\":663:763  Party({... */\n  dup2\n  mstore\n  0x20\n  add\n    /* \"VotingContract.sol\":746:747  0 */\n  0x00\n    /* \"VotingContract.sol\":663:763  Party({... */\n  dup2\n  mstore\n  pop\n    /* \"VotingContract.sol\":650:764  parties.push(Party({... */\n  swap1\n  dup1\n  0x01\n  dup2\n  sload\n  add\n  dup1\n  dup3\n  sstore\n  dup1\n  swap2\n  pop\n  pop\n  0x01\n  swap1\n  sub\n  swap1\n  0x00\n  mstore\n  keccak256(0x00, 0x20)\n  swap1\n  0x02\n  mul\n  add\n  0x00\n  swap1\n  swap2\n  swap1\n  swap2\n  swap1\n  swap2\n  pop\n  0x00\n  dup3\n  add\n  mload\n  dup2\n  0x00\n  add\n  swap1\n  dup1\n  mload\n  swap1\n  0x20\n  add\n  swap1\n  tag_13\n  swap3\n  swap2\n  swap1\n  tag_14\n  jump\t// in\ntag_13:\n  pop\n  0x20\n  dup3\n  add\n  mload\n  dup2\n  0x01\n  add\n  sstore\n  pop\n  pop\n    /* \"VotingContract.sol\":630:633  i++ */\n  dup1\n  dup1\n  tag_15\n  swap1\n  tag_16\n  jump\t// in\ntag_15:\n  swap2\n  pop\n  pop\n    /* \"VotingContract.sol\":591:776  for(uint i = 0; i < partyNames.length; i++) {... */\n  jump(tag_6)\ntag_7:\n  pop\n    /* \"VotingContract.sol\":509:783  constructor(string[] memory partyNames) {... */\n  pop\n    /* \"VotingContract.sol\":74:2045  contract VotingContract {... */\n  jump(tag_17)\ntag_14:\n  dup3\n  dup1\n  sload\n  tag_18\n  swap1\n  tag_19\n  jump\t// in\ntag_18:\n  swap1\n  0x00\n  mstore\n  keccak256(0x00, 0x20)\n  swap1\n  0x1f\n  add\n  0x20\n  swap1\n  div\n  dup2\n  add\n  swap3\n  dup3\n  tag_21\n  jumpi\n  0x00\n  dup6\n  sstore\n  jump(tag_20)\ntag_21:\n  dup3\n  0x1f\n  lt\n  tag_22\n  jumpi\n  dup1\n  mload\n  not(0xff)\n  and\n  dup4\n  dup1\n  add\n  or\n  dup6\n  sstore\n  jump(tag_20)\ntag_22:\n  dup3\n  dup1\n  add\n  0x01\n  add\n  dup6\n  sstore\n  dup3\n  iszero\n  tag_20\n  jumpi\n  swap2\n  dup3\n  add\ntag_23:\n  dup3\n  dup2\n  gt\n  iszero\n  tag_24\n  jumpi\n  dup3\n  mload\n  dup3\n  sstore\n  swap2\n  0x20\n  add\n  swap2\n  swap1\n  0x01\n  add\n  swap1\n  jump(tag_23)\ntag_24:\ntag_20:\n  pop\n  swap1\n  pop\n  tag_25\n  swap2\n  swap1\n  tag_26\n  jump\t// in\ntag_25:\n  pop\n  swap1\n  jump\t// out\ntag_26:\ntag_27:\n  dup1\n  dup3\n  gt\n  iszero\n  tag_28\n  jumpi\n  0x00\n  dup2\n  0x00\n  swap1\n  sstore\n  pop\n  0x01\n  add\n  jump(tag_27)\ntag_28:\n  pop\n  swap1\n  jump\t// out\n    /* \"#utility.yul\":7:82   */\ntag_29:\n    /* \"#utility.yul\":40:46   */\n  0x00\n    /* \"#utility.yul\":73:75   */\n  0x40\n    /* \"#utility.yul\":67:76   */\n  mload\n    /* \"#utility.yul\":57:76   */\n  swap1\n  pop\n    /* \"#utility.yul\":7:82   */\n  swap1\n  jump\t// out\n    /* \"#utility.yul\":88:205   */\ntag_30:\n    /* \"#utility.yul\":197:198   */\n  0x00\n    /* \"#utility.yul\":194:195   */\n  dup1\n    /* \"#utility.yul\":187:199   */\n  revert\n    /* \"#utility.yul\":211:328   */\ntag_31:\n    /* \"#utility.yul\":320:321   */\n  0x00\n    /* \"#utility.yul\":317:318   */\n  dup1\n    /* \"#utility.yul\":310:322   */\n  revert\n    /* \"#utility.yul\":334:451   */\ntag_32:\n    /* \"#utility.yul\":443:444   */\n  0x00\n    /* \"#utility.yul\":440:441   */\n  dup1\n    /* \"#utility.yul\":433:445   */\n  revert\n    /* \"#utility.yul\":457:559   */\ntag_33:\n    /* \"#utility.yul\":498:504   */\n  0x00\n    /* \"#utility.yul\":549:551   */\n  0x1f\n    /* \"#utility.yul\":545:552   */\n  not\n    /* \"#utility.yul\":540:542   */\n  0x1f\n    /* \"#utility.yul\":533:538   */\n  dup4\n    /* \"#utility.yul\":529:543   */\n  add\n    /* \"#utility.yul\":525:553   */\n  and\n    /* \"#utility.yul\":515:553   */\n  swap1\n  pop\n    /* \"#utility.yul\":457:559   */\n  swap2\n  swap1\n  pop\n  jump\t// out\n    /* \"#utility.yul\":565:745   */\ntag_34:\n    /* \"#utility.yul\":613:690   */\n  0x4e487b7100000000000000000000000000000000000000000000000000000000\n    /* \"#utility.yul\":610:611   */\n  0x00\n    /* \"#utility.yul\":603:691   */\n  mstore\n    /* \"#utility.yul\":710:714   */\n  0x41\n    /* \"#utility.yul\":707:708   */\n  0x04\n    /* \"#utility.yul\":700:715   */\n  mstore\n    /* \"#utility.yul\":734:738   */\n  0x24\n    /* \"#utility.yul\":731:732   */\n  0x00\n    /* \"#utility.yul\":724:739   */\n  revert\n    /* \"#utility.yul\":751:1032   */\ntag_35:\n    /* \"#utility.yul\":834:861   */\n  tag_57\n    /* \"#utility.yul\":856:860   */\n  dup3\n    /* \"#utility.yul\":834:861   */\n  tag_33\n  jump\t// in\ntag_57:\n    /* \"#utility.yul\":826:832   */\n  dup2\n    /* \"#utility.yul\":822:862   */\n  add\n    /* \"#utility.yul\":964:970   */\n  dup2\n    /* \"#utility.yul\":952:962   */\n  dup2\n    /* \"#utility.yul\":949:971   */\n  lt\n    /* \"#utility.yul\":928:946   */\n  0xffffffffffffffff\n    /* \"#utility.yul\":916:926   */\n  dup3\n    /* \"#utility.yul\":913:947   */\n  gt\n    /* \"#utility.yul\":910:972   */\n  or\n    /* \"#utility.yul\":907:995   */\n  iszero\n  tag_58\n  jumpi\n    /* \"#utility.yul\":975:993   */\n  tag_59\n  tag_34\n  jump\t// in\ntag_59:\n    /* \"#utility.yul\":907:995   */\ntag_58:\n    /* \"#utility.yul\":1015:1025   */\n  dup1\n    /* \"#utility.yul\":1011:1013   */\n  0x40\n    /* \"#utility.yul\":1004:1026   */\n  mstore\n    /* \"#utility.yul\":794:1032   */\n  pop\n    /* \"#utility.yul\":751:1032   */\n  pop\n  pop\n  jump\t// out\n    /* \"#utility.yul\":1038:1167   */\ntag_36:\n    /* \"#utility.yul\":1072:1078   */\n  0x00\n    /* \"#utility.yul\":1099:1119   */\n  tag_61\n  tag_29\n  jump\t// in\ntag_61:\n    /* \"#utility.yul\":1089:1119   */\n  swap1\n  pop\n    /* \"#utility.yul\":1128:1161   */\n  tag_62\n    /* \"#utility.yul\":1156:1160   */\n  dup3\n    /* \"#utility.yul\":1148:1154   */\n  dup3\n    /* \"#utility.yul\":1128:1161   */\n  tag_35\n  jump\t// in\ntag_62:\n    /* \"#utility.yul\":1038:1167   */\n  swap2\n  swap1\n  pop\n  jump\t// out\n    /* \"#utility.yul\":1173:1494   */\ntag_37:\n    /* \"#utility.yul\":1260:1264   */\n  0x00\n    /* \"#utility.yul\":1350:1368   */\n  0xffffffffffffffff\n    /* \"#utility.yul\":1342:1348   */\n  dup3\n    /* \"#utility.yul\":1339:1369   */\n  gt\n    /* \"#utility.yul\":1336:1392   */\n  iszero\n  tag_64\n  jumpi\n    /* \"#utility.yul\":1372:1390   */\n  tag_65\n  tag_34\n  jump\t// in\ntag_65:\n    /* \"#utility.yul\":1336:1392   */\ntag_64:\n    /* \"#utility.yul\":1422:1426   */\n  0x20\n    /* \"#utility.yul\":1414:1420   */\n  dup3\n    /* \"#utility.yul\":1410:1427   */\n  mul\n    /* \"#utility.yul\":1402:1427   */\n  swap1\n  pop\n    /* \"#utility.yul\":1482:1486   */\n  0x20\n    /* \"#utility.yul\":1476:1480   */\n  dup2\n    /* \"#utility.yul\":1472:1487   */\n  add\n    /* \"#utility.yul\":1464:1487   */\n  swap1\n  pop\n    /* \"#utility.yul\":1173:1494   */\n  swap2\n  swap1\n  pop\n  jump\t// out\n    /* \"#utility.yul\":1500:1617   */\ntag_38:\n    /* \"#utility.yul\":1609:1610   */\n  0x00\n    /* \"#utility.yul\":1606:1607   */\n  dup1\n    /* \"#utility.yul\":1599:1611   */\n  revert\n    /* \"#utility.yul\":1623:1740   */\ntag_39:\n    /* \"#utility.yul\":1732:1733   */\n  0x00\n    /* \"#utility.yul\":1729:1730   */\n  dup1\n    /* \"#utility.yul\":1722:1734   */\n  revert\n    /* \"#utility.yul\":1746:2054   */\ntag_40:\n    /* \"#utility.yul\":1808:1812   */\n  0x00\n    /* \"#utility.yul\":1898:1916   */\n  0xffffffffffffffff\n    /* \"#utility.yul\":1890:1896   */\n  dup3\n    /* \"#utility.yul\":1887:1917   */\n  gt\n    /* \"#utility.yul\":1884:1940   */\n  iszero\n  tag_69\n  jumpi\n    /* \"#utility.yul\":1920:1938   */\n  tag_70\n  tag_34\n  jump\t// in\ntag_70:\n    /* \"#utility.yul\":1884:1940   */\ntag_69:\n    /* \"#utility.yul\":1958:1987   */\n  tag_71\n    /* \"#utility.yul\":1980:1986   */\n  dup3\n    /* \"#utility.yul\":1958:1987   */\n  tag_33\n  jump\t// in\ntag_71:\n    /* \"#utility.yul\":1950:1987   */\n  swap1\n  pop\n    /* \"#utility.yul\":2042:2046   */\n  0x20\n    /* \"#utility.yul\":2036:2040   */\n  dup2\n    /* \"#utility.yul\":2032:2047   */\n  add\n    /* \"#utility.yul\":2024:2047   */\n  swap1\n  pop\n    /* \"#utility.yul\":1746:2054   */\n  swap2\n  swap1\n  pop\n  jump\t// out\n    /* \"#utility.yul\":2060:2367   */\ntag_41:\n    /* \"#utility.yul\":2128:2129   */\n  0x00\n    /* \"#utility.yul\":2138:2251   */\ntag_73:\n    /* \"#utility.yul\":2152:2158   */\n  dup4\n    /* \"#utility.yul\":2149:2150   */\n  dup2\n    /* \"#utility.yul\":2146:2159   */\n  lt\n    /* \"#utility.yul\":2138:2251   */\n  iszero\n  tag_75\n  jumpi\n    /* \"#utility.yul\":2237:2238   */\n  dup1\n    /* \"#utility.yul\":2232:2235   */\n  dup3\n    /* \"#utility.yul\":2228:2239   */\n  add\n    /* \"#utility.yul\":2222:2240   */\n  mload\n    /* \"#utility.yul\":2218:2219   */\n  dup2\n    /* \"#utility.yul\":2213:2216   */\n  dup5\n    /* \"#utility.yul\":2209:2220   */\n  add\n    /* \"#utility.yul\":2202:2241   */\n  mstore\n    /* \"#utility.yul\":2174:2176   */\n  0x20\n    /* \"#utility.yul\":2171:2172   */\n  dup2\n    /* \"#utility.yul\":2167:2177   */\n  add\n    /* \"#utility.yul\":2162:2177   */\n  swap1\n  pop\n    /* \"#utility.yul\":2138:2251   */\n  jump(tag_73)\ntag_75:\n    /* \"#utility.yul\":2269:2275   */\n  dup4\n    /* \"#utility.yul\":2266:2267   */\n  dup2\n    /* \"#utility.yul\":2263:2276   */\n  gt\n    /* \"#utility.yul\":2260:2361   */\n  iszero\n  tag_76\n  jumpi\n    /* \"#utility.yul\":2349:2350   */\n  0x00\n    /* \"#utility.yul\":2340:2346   */\n  dup5\n    /* \"#utility.yul\":2335:2338   */\n  dup5\n    /* \"#utility.yul\":2331:2347   */\n  add\n    /* \"#utility.yul\":2324:2351   */\n  mstore\n    /* \"#utility.yul\":2260:2361   */\ntag_76:\n    /* \"#utility.yul\":2109:2367   */\n  pop\n    /* \"#utility.yul\":2060:2367   */\n  pop\n  pop\n  pop\n  jump\t// out\n    /* \"#utility.yul\":2373:2794   */\ntag_42:\n    /* \"#utility.yul\":2462:2467   */\n  0x00\n    /* \"#utility.yul\":2487:2553   */\n  tag_78\n    /* \"#utility.yul\":2503:2552   */\n  tag_79\n    /* \"#utility.yul\":2545:2551   */\n  dup5\n    /* \"#utility.yul\":2503:2552   */\n  tag_40\n  jump\t// in\ntag_79:\n    /* \"#utility.yul\":2487:2553   */\n  tag_36\n  jump\t// in\ntag_78:\n    /* \"#utility.yul\":2478:2553   */\n  swap1\n  pop\n    /* \"#utility.yul\":2576:2582   */\n  dup3\n    /* \"#utility.yul\":2569:2574   */\n  dup2\n    /* \"#utility.yul\":2562:2583   */\n  mstore\n    /* \"#utility.yul\":2614:2618   */\n  0x20\n    /* \"#utility.yul\":2607:2612   */\n  dup2\n    /* \"#utility.yul\":2603:2619   */\n  add\n    /* \"#utility.yul\":2652:2655   */\n  dup5\n    /* \"#utility.yul\":2643:2649   */\n  dup5\n    /* \"#utility.yul\":2638:2641   */\n  dup5\n    /* \"#utility.yul\":2634:2650   */\n  add\n    /* \"#utility.yul\":2631:2656   */\n  gt\n    /* \"#utility.yul\":2628:2740   */\n  iszero\n  tag_80\n  jumpi\n    /* \"#utility.yul\":2659:2738   */\n  tag_81\n  tag_39\n  jump\t// in\ntag_81:\n    /* \"#utility.yul\":2628:2740   */\ntag_80:\n    /* \"#utility.yul\":2749:2788   */\n  tag_82\n    /* \"#utility.yul\":2781:2787   */\n  dup5\n    /* \"#utility.yul\":2776:2779   */\n  dup3\n    /* \"#utility.yul\":2771:2774   */\n  dup6\n    /* \"#utility.yul\":2749:2788   */\n  tag_41\n  jump\t// in\ntag_82:\n    /* \"#utility.yul\":2468:2794   */\n  pop\n    /* \"#utility.yul\":2373:2794   */\n  swap4\n  swap3\n  pop\n  pop\n  pop\n  jump\t// out\n    /* \"#utility.yul\":2814:3169   */\ntag_43:\n    /* \"#utility.yul\":2881:2886   */\n  0x00\n    /* \"#utility.yul\":2930:2933   */\n  dup3\n    /* \"#utility.yul\":2923:2927   */\n  0x1f\n    /* \"#utility.yul\":2915:2921   */\n  dup4\n    /* \"#utility.yul\":2911:2928   */\n  add\n    /* \"#utility.yul\":2907:2934   */\n  slt\n    /* \"#utility.yul\":2897:3019   */\n  tag_84\n  jumpi\n    /* \"#utility.yul\":2938:3017   */\n  tag_85\n  tag_32\n  jump\t// in\ntag_85:\n    /* \"#utility.yul\":2897:3019   */\ntag_84:\n    /* \"#utility.yul\":3048:3054   */\n  dup2\n    /* \"#utility.yul\":3042:3055   */\n  mload\n    /* \"#utility.yul\":3073:3163   */\n  tag_86\n    /* \"#utility.yul\":3159:3162   */\n  dup5\n    /* \"#utility.yul\":3151:3157   */\n  dup3\n    /* \"#utility.yul\":3144:3148   */\n  0x20\n    /* \"#utility.yul\":3136:3142   */\n  dup7\n    /* \"#utility.yul\":3132:3149   */\n  add\n    /* \"#utility.yul\":3073:3163   */\n  tag_42\n  jump\t// in\ntag_86:\n    /* \"#utility.yul\":3064:3163   */\n  swap2\n  pop\n    /* \"#utility.yul\":2887:3169   */\n  pop\n    /* \"#utility.yul\":2814:3169   */\n  swap3\n  swap2\n  pop\n  pop\n  jump\t// out\n    /* \"#utility.yul\":3191:4151   */\ntag_44:\n    /* \"#utility.yul\":3308:3313   */\n  0x00\n    /* \"#utility.yul\":3333:3424   */\n  tag_88\n    /* \"#utility.yul\":3349:3423   */\n  tag_89\n    /* \"#utility.yul\":3416:3422   */\n  dup5\n    /* \"#utility.yul\":3349:3423   */\n  tag_37\n  jump\t// in\ntag_89:\n    /* \"#utility.yul\":3333:3424   */\n  tag_36\n  jump\t// in\ntag_88:\n    /* \"#utility.yul\":3324:3424   */\n  swap1\n  pop\n    /* \"#utility.yul\":3444:3449   */\n  dup1\n    /* \"#utility.yul\":3473:3479   */\n  dup4\n    /* \"#utility.yul\":3466:3471   */\n  dup3\n    /* \"#utility.yul\":3459:3480   */\n  mstore\n    /* \"#utility.yul\":3507:3511   */\n  0x20\n    /* \"#utility.yul\":3500:3505   */\n  dup3\n    /* \"#utility.yul\":3496:3512   */\n  add\n    /* \"#utility.yul\":3489:3512   */\n  swap1\n  pop\n    /* \"#utility.yul\":3560:3564   */\n  0x20\n    /* \"#utility.yul\":3552:3558   */\n  dup5\n    /* \"#utility.yul\":3548:3565   */\n  mul\n    /* \"#utility.yul\":3540:3546   */\n  dup4\n    /* \"#utility.yul\":3536:3566   */\n  add\n    /* \"#utility.yul\":3589:3592   */\n  dup6\n    /* \"#utility.yul\":3581:3587   */\n  dup2\n    /* \"#utility.yul\":3578:3593   */\n  gt\n    /* \"#utility.yul\":3575:3697   */\n  iszero\n  tag_90\n  jumpi\n    /* \"#utility.yul\":3608:3687   */\n  tag_91\n  tag_38\n  jump\t// in\ntag_91:\n    /* \"#utility.yul\":3575:3697   */\ntag_90:\n    /* \"#utility.yul\":3723:3729   */\n  dup4\n    /* \"#utility.yul\":3706:4145   */\ntag_92:\n    /* \"#utility.yul\":3740:3746   */\n  dup2\n    /* \"#utility.yul\":3735:3738   */\n  dup2\n    /* \"#utility.yul\":3732:3747   */\n  lt\n    /* \"#utility.yul\":3706:4145   */\n  iszero\n  tag_94\n  jumpi\n    /* \"#utility.yul\":3822:3825   */\n  dup1\n    /* \"#utility.yul\":3816:3826   */\n  mload\n    /* \"#utility.yul\":3858:3876   */\n  0xffffffffffffffff\n    /* \"#utility.yul\":3845:3856   */\n  dup2\n    /* \"#utility.yul\":3842:3877   */\n  gt\n    /* \"#utility.yul\":3839:3961   */\n  iszero\n  tag_95\n  jumpi\n    /* \"#utility.yul\":3880:3959   */\n  tag_96\n  tag_32\n  jump\t// in\ntag_96:\n    /* \"#utility.yul\":3839:3961   */\ntag_95:\n    /* \"#utility.yul\":4004:4015   */\n  dup1\n    /* \"#utility.yul\":3996:4002   */\n  dup7\n    /* \"#utility.yul\":3992:4016   */\n  add\n    /* \"#utility.yul\":4042:4100   */\n  tag_97\n    /* \"#utility.yul\":4096:4099   */\n  dup10\n    /* \"#utility.yul\":4084:4094   */\n  dup3\n    /* \"#utility.yul\":4042:4100   */\n  tag_43\n  jump\t// in\ntag_97:\n    /* \"#utility.yul\":4037:4040   */\n  dup6\n    /* \"#utility.yul\":4030:4101   */\n  mstore\n    /* \"#utility.yul\":4130:4134   */\n  0x20\n    /* \"#utility.yul\":4125:4128   */\n  dup6\n    /* \"#utility.yul\":4121:4135   */\n  add\n    /* \"#utility.yul\":4114:4135   */\n  swap5\n  pop\n    /* \"#utility.yul\":3782:4145   */\n  pop\n  pop\n    /* \"#utility.yul\":3766:3770   */\n  0x20\n    /* \"#utility.yul\":3761:3764   */\n  dup2\n    /* \"#utility.yul\":3757:3771   */\n  add\n    /* \"#utility.yul\":3750:3771   */\n  swap1\n  pop\n    /* \"#utility.yul\":3706:4145   */\n  jump(tag_92)\ntag_94:\n    /* \"#utility.yul\":3710:3731   */\n  pop\n    /* \"#utility.yul\":3314:4151   */\n  pop\n  pop\n    /* \"#utility.yul\":3191:4151   */\n  swap4\n  swap3\n  pop\n  pop\n  pop\n  jump\t// out\n    /* \"#utility.yul\":4173:4578   */\ntag_45:\n    /* \"#utility.yul\":4265:4270   */\n  0x00\n    /* \"#utility.yul\":4314:4317   */\n  dup3\n    /* \"#utility.yul\":4307:4311   */\n  0x1f\n    /* \"#utility.yul\":4299:4305   */\n  dup4\n    /* \"#utility.yul\":4295:4312   */\n  add\n    /* \"#utility.yul\":4291:4318   */\n  slt\n    /* \"#utility.yul\":4281:4403   */\n  tag_99\n  jumpi\n    /* \"#utility.yul\":4322:4401   */\n  tag_100\n  tag_32\n  jump\t// in\ntag_100:\n    /* \"#utility.yul\":4281:4403   */\ntag_99:\n    /* \"#utility.yul\":4432:4438   */\n  dup2\n    /* \"#utility.yul\":4426:4439   */\n  mload\n    /* \"#utility.yul\":4457:4572   */\n  tag_101\n    /* \"#utility.yul\":4568:4571   */\n  dup5\n    /* \"#utility.yul\":4560:4566   */\n  dup3\n    /* \"#utility.yul\":4553:4557   */\n  0x20\n    /* \"#utility.yul\":4545:4551   */\n  dup7\n    /* \"#utility.yul\":4541:4558   */\n  add\n    /* \"#utility.yul\":4457:4572   */\n  tag_44\n  jump\t// in\ntag_101:\n    /* \"#utility.yul\":4448:4572   */\n  swap2\n  pop\n    /* \"#utility.yul\":4271:4578   */\n  pop\n    /* \"#utility.yul\":4173:4578   */\n  swap3\n  swap2\n  pop\n  pop\n  jump\t// out\n    /* \"#utility.yul\":4584:5158   */\ntag_3:\n    /* \"#utility.yul\":4689:4695   */\n  0x00\n    /* \"#utility.yul\":4738:4740   */\n  0x20\n    /* \"#utility.yul\":4726:4735   */\n  dup3\n    /* \"#utility.yul\":4717:4724   */\n  dup5\n    /* \"#utility.yul\":4713:4736   */\n  sub\n    /* \"#utility.yul\":4709:4741   */\n  slt\n    /* \"#utility.yul\":4706:4825   */\n  iszero\n  tag_103\n  jumpi\n    /* \"#utility.yul\":4744:4823   */\n  tag_104\n  tag_30\n  jump\t// in\ntag_104:\n    /* \"#utility.yul\":4706:4825   */\ntag_103:\n    /* \"#utility.yul\":4885:4886   */\n  0x00\n    /* \"#utility.yul\":4874:4883   */\n  dup3\n    /* \"#utility.yul\":4870:4887   */\n  add\n    /* \"#utility.yul\":4864:4888   */\n  mload\n    /* \"#utility.yul\":4915:4933   */\n  0xffffffffffffffff\n    /* \"#utility.yul\":4907:4913   */\n  dup2\n    /* \"#utility.yul\":4904:4934   */\n  gt\n    /* \"#utility.yul\":4901:5018   */\n  iszero\n  tag_105\n  jumpi\n    /* \"#utility.yul\":4937:5016   */\n  tag_106\n  tag_31\n  jump\t// in\ntag_106:\n    /* \"#utility.yul\":4901:5018   */\ntag_105:\n    /* \"#utility.yul\":5042:5141   */\n  tag_107\n    /* \"#utility.yul\":5133:5140   */\n  dup5\n    /* \"#utility.yul\":5124:5130   */\n  dup3\n    /* \"#utility.yul\":5113:5122   */\n  dup6\n    /* \"#utility.yul\":5109:5131   */\n  add\n    /* \"#utility.yul\":5042:5141   */\n  tag_45\n  jump\t// in\ntag_107:\n    /* \"#utility.yul\":5032:5141   */\n  swap2\n  pop\n    /* \"#utility.yul\":4835:5151   */\n  pop\n    /* \"#utility.yul\":4584:5158   */\n  swap3\n  swap2\n  pop\n  pop\n  jump\t// out\n    /* \"#utility.yul\":5164:5344   */\ntag_11:\n    /* \"#utility.yul\":5212:5289   */\n  0x4e487b7100000000000000000000000000000000000000000000000000000000\n    /* \"#utility.yul\":5209:5210   */\n  0x00\n    /* \"#utility.yul\":5202:5290   */\n  mstore\n    /* \"#utility.yul\":5309:5313   */\n  0x32\n    /* \"#utility.yul\":5306:5307   */\n  0x04\n    /* \"#utility.yul\":5299:5314   */\n  mstore\n    /* \"#utility.yul\":5333:5337   */\n  0x24\n    /* \"#utility.yul\":5330:5331   */\n  0x00\n    /* \"#utility.yul\":5323:5338   */\n  revert\n    /* \"#utility.yul\":5350:5530   */\ntag_46:\n    /* \"#utility.yul\":5398:5475   */\n  0x4e487b7100000000000000000000000000000000000000000000000000000000\n    /* \"#utility.yul\":5395:5396   */\n  0x00\n    /* \"#utility.yul\":5388:5476   */\n  mstore\n    /* \"#utility.yul\":5495:5499   */\n  0x11\n    /* \"#utility.yul\":5492:5493   */\n  0x04\n    /* \"#utility.yul\":5485:5500   */\n  mstore\n    /* \"#utility.yul\":5519:5523   */\n  0x24\n    /* \"#utility.yul\":5516:5517   */\n  0x00\n    /* \"#utility.yul\":5509:5524   */\n  revert\n    /* \"#utility.yul\":5536:5613   */\ntag_47:\n    /* \"#utility.yul\":5573:5580   */\n  0x00\n    /* \"#utility.yul\":5602:5607   */\n  dup2\n    /* \"#utility.yul\":5591:5607   */\n  swap1\n  pop\n    /* \"#utility.yul\":5536:5613   */\n  swap2\n  swap1\n  pop\n  jump\t// out\n    /* \"#utility.yul\":5619:5852   */\ntag_16:\n    /* \"#utility.yul\":5658:5661   */\n  0x00\n    /* \"#utility.yul\":5681:5705   */\n  tag_112\n    /* \"#utility.yul\":5699:5704   */\n  dup3\n    /* \"#utility.yul\":5681:5705   */\n  tag_47\n  jump\t// in\ntag_112:\n    /* \"#utility.yul\":5672:5705   */\n  swap2\n  pop\n    /* \"#utility.yul\":5727:5793   */\n  0xffffffffffffffffffffffffffffffffffffffffffffffffffffffffffffffff\n    /* \"#utility.yul\":5720:5725   */\n  dup3\n    /* \"#utility.yul\":5717:5794   */\n  sub\n    /* \"#utility.yul\":5714:5817   */\n  tag_113\n  jumpi\n    /* \"#utility.yul\":5797:5815   */\n  tag_114\n  tag_46\n  jump\t// in\ntag_114:\n    /* \"#utility.yul\":5714:5817   */\ntag_113:\n    /* \"#utility.yul\":5844:5845   */\n  0x01\n    /* \"#utility.yul\":5837:5842   */\n  dup3\n    /* \"#utility.yul\":5833:5846   */\n  add\n    /* \"#utility.yul\":5826:5846   */\n  swap1\n  pop\n    /* \"#utility.yul\":5619:5852   */\n  swap2\n  swap1\n  pop\n  jump\t// out\n    /* \"#utility.yul\":5858:6038   */\ntag_48:\n    /* \"#utility.yul\":5906:5983   */\n  0x4e487b7100000000000000000000000000000000000000000000000000000000\n    /* \"#utility.yul\":5903:5904   */\n  0x00\n    /* \"#utility.yul\":5896:5984   */\n  mstore\n    /* \"#utility.yul\":6003:6007   */\n  0x22\n    /* \"#utility.yul\":6000:6001   */\n  0x04\n    /* \"#utility.yul\":5993:6008   */\n  mstore\n    /* \"#utility.yul\":6027:6031   */\n  0x24\n    /* \"#utility.yul\":6024:6025   */\n  0x00\n    /* \"#utility.yul\":6017:6032   */\n  revert\n    /* \"#utility.yul\":6044:6364   */\ntag_19:\n    /* \"#utility.yul\":6088:6094   */\n  0x00\n    /* \"#utility.yul\":6125:6126   */\n  0x02\n    /* \"#utility.yul\":6119:6123   */\n  dup3\n    /* \"#utility.yul\":6115:6127   */\n  div\n    /* \"#utility.yul\":6105:6127   */\n  swap1\n  pop\n    /* \"#utility.yul\":6172:6173   */\n  0x01\n    /* \"#utility.yul\":6166:6170   */\n  dup3\n    /* \"#utility.yul\":6162:6174   */\n  and\n    /* \"#utility.yul\":6193:6211   */\n  dup1\n    /* \"#utility.yul\":6183:6264   */\n  tag_117\n  jumpi\n    /* \"#utility.yul\":6249:6253   */\n  0x7f\n    /* \"#utility.yul\":6241:6247   */\n  dup3\n    /* \"#utility.yul\":6237:6254   */\n  and\n    /* \"#utility.yul\":6227:6254   */\n  swap2\n  pop\n    /* \"#utility.yul\":6183:6264   */\ntag_117:\n    /* \"#utility.yul\":6311:6313   */\n  0x20\n    /* \"#utility.yul\":6303:6309   */\n  dup3\n    /* \"#utility.yul\":6300:6314   */\n  lt\n    /* \"#utility.yul\":6280:6298   */\n  dup2\n    /* \"#utility.yul\":6277:6315   */\n  sub\n    /* \"#utility.yul\":6274:6358   */\n  tag_118\n  jumpi\n    /* \"#utility.yul\":6330:6348   */\n  tag_119\n  tag_48\n  jump\t// in\ntag_119:\n    /* \"#utility.yul\":6274:6358   */\ntag_118:\n    /* \"#utility.yul\":6095:6364   */\n  pop\n    /* \"#utility.yul\":6044:6364   */\n  swap2\n  swap1\n  pop\n  jump\t// out\n    /* \"VotingContract.sol\":74:2045  contract VotingContract {... */\ntag_17:\n  dataSize(sub_0)\n  dup1\n  dataOffset(sub_0)\n  0x00\n  codecopy\n  0x00\n  return\nstop\n\nsub_0: assembly {\n        /* \"VotingContract.sol\":74:2045  contract VotingContract {... */\n      mstore(0x40, 0x80)\n      callvalue\n      dup1\n      iszero\n      tag_1\n      jumpi\n      0x00\n      dup1\n      revert\n    tag_1:\n      pop\n      jumpi(tag_2, lt(calldatasize, 0x04))\n      shr(0xe0, calldataload(0x00))\n      dup1\n      0xa3ec138d\n      gt\n      tag_11\n      jumpi\n      dup1\n      0xa3ec138d\n      eq\n      tag_7\n      jumpi\n      dup1\n      0xb72d153d\n      eq\n      tag_8\n      jumpi\n      dup1\n      0xdfbf53ae\n      eq\n      tag_9\n      jumpi\n      dup1\n      0xf851a440\n      eq\n      tag_10\n      jumpi\n      jump(tag_2)\n    tag_11:\n      dup1\n      0x14034bd2\n      eq\n      tag_3\n      jumpi\n      dup1\n      0x4d25136a\n      eq\n      tag_4\n      jumpi\n      dup1\n      0x70651a18\n      eq\n      tag_5\n      jumpi\n      dup1\n      0x7f178f2e\n      eq\n      tag_6\n      jumpi\n    tag_2:\n      0x00\n      dup1\n      revert\n        /* \"VotingContract.sol\":1107:1500  function declareWinner() external onlyAdmin {... */\n    tag_3:\n      tag_12\n      tag_13\n      jump\t// in\n    tag_12:\n      stop\n        /* \"VotingContract.sol\":1765:1857  function getPartyNumber() external view  returns(uint) {... */\n    tag_4:\n      tag_14\n      tag_15\n      jump\t// in\n    tag_14:\n      mload(0x40)\n      tag_16\n      swap2\n      swap1\n      tag_17\n      jump\t// in\n    tag_16:\n      mload(0x40)\n      dup1\n      swap2\n      sub\n      swap1\n      return\n        /* \"VotingContract.sol\":478:500  Party[] public parties */\n    tag_5:\n      tag_18\n      0x04\n      dup1\n      calldatasize\n      sub\n      dup2\n      add\n      swap1\n      tag_19\n      swap2\n      swap1\n      tag_20\n      jump\t// in\n    tag_19:\n      tag_21\n      jump\t// in\n    tag_18:\n      mload(0x40)\n      tag_22\n      swap3\n      swap2\n      swap1\n      tag_23\n      jump\t// in\n    tag_22:\n      mload(0x40)\n      dup1\n      swap2\n      sub\n      swap1\n      return\n        /* \"VotingContract.sol\":791:1099  function giveVote(uint partyIndex) external {... */\n    tag_6:\n      tag_24\n      0x04\n      dup1\n      calldatasize\n      sub\n      dup2\n      add\n      swap1\n      tag_25\n      swap2\n      swap1\n      tag_20\n      jump\t// in\n    tag_25:\n      tag_26\n      jump\t// in\n    tag_24:\n      stop\n        /* \"VotingContract.sol\":425:469  mapping (address => VoterUser) public voters */\n    tag_7:\n      tag_27\n      0x04\n      dup1\n      calldatasize\n      sub\n      dup2\n      add\n      swap1\n      tag_28\n      swap2\n      swap1\n      tag_29\n      jump\t// in\n    tag_28:\n      tag_30\n      jump\t// in\n    tag_27:\n      mload(0x40)\n      tag_31\n      swap4\n      swap3\n      swap2\n      swap1\n      tag_32\n      jump\t// in\n    tag_31:\n      mload(0x40)\n      dup1\n      swap2\n      sub\n      swap1\n      return\n        /* \"VotingContract.sol\":1508:1760  function makeEligibleToVote(address voterUser) external onlyAdmin {... */\n    tag_8:\n      tag_33\n      0x04\n      dup1\n      calldatasize\n      sub\n      dup2\n      add\n      swap1\n      tag_34\n      swap2\n      swap1\n      tag_29\n      jump\t// in\n    tag_34:\n      tag_35\n      jump\t// in\n    tag_33:\n      stop\n        /* \"VotingContract.sol\":138:158  string public winner */\n    tag_9:\n      tag_36\n      tag_37\n      jump\t// in\n    tag_36:\n      mload(0x40)\n      tag_38\n      swap2\n      swap1\n      tag_39\n      jump\t// in\n    tag_38:\n      mload(0x40)\n      dup1\n      swap2\n      sub\n      swap1\n      return\n        /* \"VotingContract.sol\":111:131  address public admin */\n    tag_10:\n      tag_40\n      tag_41\n      jump\t// in\n    tag_40:\n      mload(0x40)\n      tag_42\n      swap2\n      swap1\n      tag_43\n      jump\t// in\n    tag_42:\n      mload(0x40)\n      dup1\n      swap2\n      sub\n      swap1\n      return\n        /* \"VotingContract.sol\":1107:1500  function declareWinner() external onlyAdmin {... */\n    tag_13:\n        /* \"VotingContract.sol\":2000:2005  admin */\n      0x00\n      dup1\n      sload\n      swap1\n      0x0100\n      exp\n      swap1\n      div\n      0xffffffffffffffffffffffffffffffffffffffff\n      and\n        /* \"VotingContract.sol\":1986:2005  msg.sender == admin */\n      0xffffffffffffffffffffffffffffffffffffffff\n      and\n        /* \"VotingContract.sol\":1986:1996  msg.sender */\n      caller\n        /* \"VotingContract.sol\":1986:2005  msg.sender == admin */\n      0xffffffffffffffffffffffffffffffffffffffff\n      and\n      eq\n        /* \"VotingContract.sol\":1964:2016  require(... */\n      tag_45\n      jumpi\n      0x00\n      dup1\n      revert\n    tag_45:\n        /* \"VotingContract.sol\":1162:1179  uint winningIndex */\n      0x00\n        /* \"VotingContract.sol\":1190:1206  uint voteCounter */\n      dup1\n        /* \"VotingContract.sol\":1209:1210  0 */\n      0x00\n        /* \"VotingContract.sol\":1190:1210  uint voteCounter = 0 */\n      swap1\n      pop\n        /* \"VotingContract.sol\":1225:1231  uint i */\n      0x00\n        /* \"VotingContract.sol\":1221:1439  for(uint i = 0; i < parties.length; i++) {... */\n    tag_47:\n        /* \"VotingContract.sol\":1241:1248  parties */\n      0x03\n        /* \"VotingContract.sol\":1241:1255  parties.length */\n      dup1\n      sload\n      swap1\n      pop\n        /* \"VotingContract.sol\":1237:1238  i */\n      dup2\n        /* \"VotingContract.sol\":1237:1255  i < parties.length */\n      lt\n        /* \"VotingContract.sol\":1221:1439  for(uint i = 0; i < parties.length; i++) {... */\n      iszero\n      tag_48\n      jumpi\n        /* \"VotingContract.sol\":1307:1318  voteCounter */\n      dup2\n        /* \"VotingContract.sol\":1280:1287  parties */\n      0x03\n        /* \"VotingContract.sol\":1288:1289  i */\n      dup3\n        /* \"VotingContract.sol\":1280:1290  parties[i] */\n      dup2\n      sload\n      dup2\n      lt\n      tag_50\n      jumpi\n      tag_51\n      tag_52\n      jump\t// in\n    tag_51:\n    tag_50:\n      swap1\n      0x00\n      mstore\n      keccak256(0x00, 0x20)\n      swap1\n      0x02\n      mul\n      add\n        /* \"VotingContract.sol\":1280:1304  parties[i].numberOfVotes */\n      0x01\n      add\n      sload\n        /* \"VotingContract.sol\":1280:1318  parties[i].numberOfVotes > voteCounter */\n      gt\n        /* \"VotingContract.sol\":1277:1428  if(parties[i].numberOfVotes > voteCounter) {... */\n      iszero\n      tag_54\n      jumpi\n        /* \"VotingContract.sol\":1353:1360  parties */\n      0x03\n        /* \"VotingContract.sol\":1361:1362  i */\n      dup2\n        /* \"VotingContract.sol\":1353:1363  parties[i] */\n      dup2\n      sload\n      dup2\n      lt\n      tag_55\n      jumpi\n      tag_56\n      tag_52\n      jump\t// in\n    tag_56:\n    tag_55:\n      swap1\n      0x00\n      mstore\n      keccak256(0x00, 0x20)\n      swap1\n      0x02\n      mul\n      add\n        /* \"VotingContract.sol\":1353:1377  parties[i].numberOfVotes */\n      0x01\n      add\n      sload\n        /* \"VotingContract.sol\":1339:1377  voteCounter = parties[i].numberOfVotes */\n      swap2\n      pop\n        /* \"VotingContract.sol\":1411:1412  i */\n      dup1\n        /* \"VotingContract.sol\":1396:1412  winningIndex = i */\n      swap3\n      pop\n        /* \"VotingContract.sol\":1277:1428  if(parties[i].numberOfVotes > voteCounter) {... */\n    tag_54:\n        /* \"VotingContract.sol\":1257:1260  i++ */\n      dup1\n      dup1\n      tag_58\n      swap1\n      tag_59\n      jump\t// in\n    tag_58:\n      swap2\n      pop\n      pop\n        /* \"VotingContract.sol\":1221:1439  for(uint i = 0; i < parties.length; i++) {... */\n      jump(tag_47)\n    tag_48:\n      pop\n        /* \"VotingContract.sol\":1460:1467  parties */\n      0x03\n        /* \"VotingContract.sol\":1468:1480  winningIndex */\n      dup3\n        /* \"VotingContract.sol\":1460:1481  parties[winningIndex] */\n      dup2\n      sload\n      dup2\n      lt\n      tag_60\n      jumpi\n      tag_61\n      tag_52\n      jump\t// in\n    tag_61:\n    tag_60:\n      swap1\n      0x00\n      mstore\n      keccak256(0x00, 0x20)\n      swap1\n      0x02\n      mul\n      add\n        /* \"VotingContract.sol\":1460:1491  parties[winningIndex].partyName */\n      0x00\n      add\n        /* \"VotingContract.sol\":1451:1457  winner */\n      0x01\n        /* \"VotingContract.sol\":1451:1491  winner = parties[winningIndex].partyName */\n      swap1\n      dup1\n      sload\n      tag_63\n      swap1\n      tag_64\n      jump\t// in\n    tag_63:\n      tag_65\n      swap3\n      swap2\n      swap1\n      tag_66\n      jump\t// in\n    tag_65:\n      pop\n        /* \"VotingContract.sol\":1151:1500  {... */\n      pop\n      pop\n        /* \"VotingContract.sol\":1107:1500  function declareWinner() external onlyAdmin {... */\n      jump\t// out\n        /* \"VotingContract.sol\":1765:1857  function getPartyNumber() external view  returns(uint) {... */\n    tag_15:\n        /* \"VotingContract.sol\":1814:1818  uint */\n      0x00\n        /* \"VotingContract.sol\":1838:1845  parties */\n      0x03\n        /* \"VotingContract.sol\":1838:1852  parties.length */\n      dup1\n      sload\n      swap1\n      pop\n        /* \"VotingContract.sol\":1831:1852  return parties.length */\n      swap1\n      pop\n        /* \"VotingContract.sol\":1765:1857  function getPartyNumber() external view  returns(uint) {... */\n      swap1\n      jump\t// out\n        /* \"VotingContract.sol\":478:500  Party[] public parties */\n    tag_21:\n      0x03\n      dup2\n      dup2\n      sload\n      dup2\n      lt\n      tag_68\n      jumpi\n      0x00\n      dup1\n      revert\n    tag_68:\n      swap1\n      0x00\n      mstore\n      keccak256(0x00, 0x20)\n      swap1\n      0x02\n      mul\n      add\n      0x00\n      swap2\n      pop\n      swap1\n      pop\n      dup1\n      0x00\n      add\n      dup1\n      sload\n      tag_70\n      swap1\n      tag_64\n      jump\t// in\n    tag_70:\n      dup1\n      0x1f\n      add\n      0x20\n      dup1\n      swap2\n      div\n      mul\n      0x20\n      add\n      mload(0x40)\n      swap1\n      dup2\n      add\n      0x40\n      mstore\n      dup1\n      swap3\n      swap2\n      swap1\n      dup2\n      dup2\n      mstore\n      0x20\n      add\n      dup3\n      dup1\n      sload\n      tag_71\n      swap1\n      tag_64\n      jump\t// in\n    tag_71:\n      dup1\n      iszero\n      tag_72\n      jumpi\n      dup1\n      0x1f\n      lt\n      tag_73\n      jumpi\n      0x0100\n      dup1\n      dup4\n      sload\n      div\n      mul\n      dup4\n      mstore\n      swap2\n      0x20\n      add\n      swap2\n      jump(tag_72)\n    tag_73:\n      dup3\n      add\n      swap2\n      swap1\n      0x00\n      mstore\n      keccak256(0x00, 0x20)\n      swap1\n    tag_74:\n      dup2\n      sload\n      dup2\n      mstore\n      swap1\n      0x01\n      add\n      swap1\n      0x20\n      add\n      dup1\n      dup4\n      gt\n      tag_74\n      jumpi\n      dup3\n      swap1\n      sub\n      0x1f\n      and\n      dup3\n      add\n      swap2\n    tag_72:\n      pop\n      pop\n      pop\n      pop\n      pop\n      swap1\n      dup1\n      0x01\n      add\n      sload\n      swap1\n      pop\n      dup3\n      jump\t// out\n        /* \"VotingContract.sol\":791:1099  function giveVote(uint partyIndex) external {... */\n    tag_26:\n        /* \"VotingContract.sol\":846:870  VoterUser storage caller */\n      0x00\n        /* \"VotingContract.sol\":873:879  voters */\n      0x02\n        /* \"VotingContract.sol\":873:891  voters[msg.sender] */\n      0x00\n        /* \"VotingContract.sol\":880:890  msg.sender */\n      caller\n        /* \"VotingContract.sol\":873:891  voters[msg.sender] */\n      0xffffffffffffffffffffffffffffffffffffffff\n      and\n      0xffffffffffffffffffffffffffffffffffffffff\n      and\n      dup2\n      mstore\n      0x20\n      add\n      swap1\n      dup2\n      mstore\n      0x20\n      add\n      0x00\n      keccak256\n        /* \"VotingContract.sol\":846:891  VoterUser storage caller = voters[msg.sender] */\n      swap1\n      pop\n        /* \"VotingContract.sol\":910:916  caller */\n      dup1\n        /* \"VotingContract.sol\":910:924  caller.canVote */\n      0x01\n      add\n      0x01\n      swap1\n      sload\n      swap1\n      0x0100\n      exp\n      swap1\n      div\n      0xff\n      and\n        /* \"VotingContract.sol\":902:925  require(caller.canVote) */\n      tag_76\n      jumpi\n      0x00\n      dup1\n      revert\n    tag_76:\n        /* \"VotingContract.sol\":945:951  caller */\n      dup1\n        /* \"VotingContract.sol\":945:963  caller.votingState */\n      0x01\n      add\n      0x00\n      swap1\n      sload\n      swap1\n      0x0100\n      exp\n      swap1\n      div\n      0xff\n      and\n        /* \"VotingContract.sol\":944:963  !caller.votingState */\n      iszero\n        /* \"VotingContract.sol\":936:964  require(!caller.votingState) */\n      tag_77\n      jumpi\n      0x00\n      dup1\n      revert\n    tag_77:\n        /* \"VotingContract.sol\":996:1000  true */\n      0x01\n        /* \"VotingContract.sol\":975:981  caller */\n      dup2\n        /* \"VotingContract.sol\":975:993  caller.votingState */\n      0x01\n      add\n      0x00\n        /* \"VotingContract.sol\":975:1000  caller.votingState = true */\n      0x0100\n      exp\n      dup2\n      sload\n      dup2\n      0xff\n      mul\n      not\n      and\n      swap1\n      dup4\n      iszero\n      iszero\n      mul\n      or\n      swap1\n      sstore\n      pop\n        /* \"VotingContract.sol\":1031:1041  partyIndex */\n      dup2\n        /* \"VotingContract.sol\":1011:1017  caller */\n      dup2\n        /* \"VotingContract.sol\":1011:1028  caller.votedParty */\n      0x00\n      add\n        /* \"VotingContract.sol\":1011:1041  caller.votedParty = partyIndex */\n      dup2\n      swap1\n      sstore\n      pop\n        /* \"VotingContract.sol\":1089:1090  1 */\n      0x01\n        /* \"VotingContract.sol\":1052:1059  parties */\n      0x03\n        /* \"VotingContract.sol\":1060:1070  partyIndex */\n      dup4\n        /* \"VotingContract.sol\":1052:1071  parties[partyIndex] */\n      dup2\n      sload\n      dup2\n      lt\n      tag_78\n      jumpi\n      tag_79\n      tag_52\n      jump\t// in\n    tag_79:\n    tag_78:\n      swap1\n      0x00\n      mstore\n      keccak256(0x00, 0x20)\n      swap1\n      0x02\n      mul\n      add\n        /* \"VotingContract.sol\":1052:1085  parties[partyIndex].numberOfVotes */\n      0x01\n      add\n      0x00\n        /* \"VotingContract.sol\":1052:1090  parties[partyIndex].numberOfVotes += 1 */\n      dup3\n      dup3\n      sload\n      tag_81\n      swap2\n      swap1\n      tag_82\n      jump\t// in\n    tag_81:\n      swap3\n      pop\n      pop\n      dup2\n      swap1\n      sstore\n      pop\n        /* \"VotingContract.sol\":835:1099  {... */\n      pop\n        /* \"VotingContract.sol\":791:1099  function giveVote(uint partyIndex) external {... */\n      pop\n      jump\t// out\n        /* \"VotingContract.sol\":425:469  mapping (address => VoterUser) public voters */\n    tag_30:\n      mstore(0x20, 0x02)\n      dup1\n      0x00\n      mstore\n      keccak256(0x00, 0x40)\n      0x00\n      swap2\n      pop\n      swap1\n      pop\n      dup1\n      0x00\n      add\n      sload\n      swap1\n      dup1\n      0x01\n      add\n      0x00\n      swap1\n      sload\n      swap1\n      0x0100\n      exp\n      swap1\n      div\n      0xff\n      and\n      swap1\n      dup1\n      0x01\n      add\n      0x01\n      swap1\n      sload\n      swap1\n      0x0100\n      exp\n      swap1\n      div\n      0xff\n      and\n      swap1\n      pop\n      dup4\n      jump\t// out\n        /* \"VotingContract.sol\":1508:1760  function makeEligibleToVote(address voterUser) external onlyAdmin {... */\n    tag_35:\n        /* \"VotingContract.sol\":2000:2005  admin */\n      0x00\n      dup1\n      sload\n      swap1\n      0x0100\n      exp\n      swap1\n      div\n      0xffffffffffffffffffffffffffffffffffffffff\n      and\n        /* \"VotingContract.sol\":1986:2005  msg.sender == admin */\n      0xffffffffffffffffffffffffffffffffffffffff\n      and\n        /* \"VotingContract.sol\":1986:1996  msg.sender */\n      caller\n        /* \"VotingContract.sol\":1986:2005  msg.sender == admin */\n      0xffffffffffffffffffffffffffffffffffffffff\n      and\n      eq\n        /* \"VotingContract.sol\":1964:2016  require(... */\n      tag_84\n      jumpi\n      0x00\n      dup1\n      revert\n    tag_84:\n        /* \"VotingContract.sol\":1608:1614  voters */\n      0x02\n        /* \"VotingContract.sol\":1608:1625  voters[voterUser] */\n      0x00\n        /* \"VotingContract.sol\":1615:1624  voterUser */\n      dup3\n        /* \"VotingContract.sol\":1608:1625  voters[voterUser] */\n      0xffffffffffffffffffffffffffffffffffffffff\n      and\n      0xffffffffffffffffffffffffffffffffffffffff\n      and\n      dup2\n      mstore\n      0x20\n      add\n      swap1\n      dup2\n      mstore\n      0x20\n      add\n      0x00\n      keccak256\n        /* \"VotingContract.sol\":1608:1637  voters[voterUser].votingState */\n      0x01\n      add\n      0x00\n      swap1\n      sload\n      swap1\n      0x0100\n      exp\n      swap1\n      div\n      0xff\n      and\n        /* \"VotingContract.sol\":1607:1637  !voters[voterUser].votingState */\n      iszero\n        /* \"VotingContract.sol\":1585:1649  require(... */\n      tag_86\n      jumpi\n      0x00\n      dup1\n      revert\n    tag_86:\n        /* \"VotingContract.sol\":1664:1670  voters */\n      0x02\n        /* \"VotingContract.sol\":1664:1681  voters[voterUser] */\n      0x00\n        /* \"VotingContract.sol\":1671:1680  voterUser */\n      dup3\n        /* \"VotingContract.sol\":1664:1681  voters[voterUser] */\n      0xffffffffffffffffffffffffffffffffffffffff\n      and\n      0xffffffffffffffffffffffffffffffffffffffff\n      and\n      dup2\n      mstore\n      0x20\n      add\n      swap1\n      dup2\n      mstore\n      0x20\n      add\n      0x00\n      keccak256\n        /* \"VotingContract.sol\":1664:1689  voters[voterUser].canVote */\n      0x01\n      add\n      0x01\n      swap1\n      sload\n      swap1\n      0x0100\n      exp\n      swap1\n      div\n      0xff\n      and\n        /* \"VotingContract.sol\":1660:1750  if(!voters[voterUser].canVote) {... */\n      tag_87\n      jumpi\n        /* \"VotingContract.sol\":1734:1738  true */\n      0x01\n        /* \"VotingContract.sol\":1706:1712  voters */\n      0x02\n        /* \"VotingContract.sol\":1706:1723  voters[voterUser] */\n      0x00\n        /* \"VotingContract.sol\":1713:1722  voterUser */\n      dup4\n        /* \"VotingContract.sol\":1706:1723  voters[voterUser] */\n      0xffffffffffffffffffffffffffffffffffffffff\n      and\n      0xffffffffffffffffffffffffffffffffffffffff\n      and\n      dup2\n      mstore\n      0x20\n      add\n      swap1\n      dup2\n      mstore\n      0x20\n      add\n      0x00\n      keccak256\n        /* \"VotingContract.sol\":1706:1731  voters[voterUser].canVote */\n      0x01\n      add\n      0x01\n        /* \"VotingContract.sol\":1706:1738  voters[voterUser].canVote = true */\n      0x0100\n      exp\n      dup2\n      sload\n      dup2\n      0xff\n      mul\n      not\n      and\n      swap1\n      dup4\n      iszero\n      iszero\n      mul\n      or\n      swap1\n      sstore\n      pop\n        /* \"VotingContract.sol\":1660:1750  if(!voters[voterUser].canVote) {... */\n    tag_87:\n        /* \"VotingContract.sol\":1508:1760  function makeEligibleToVote(address voterUser) external onlyAdmin {... */\n      pop\n      jump\t// out\n        /* \"VotingContract.sol\":138:158  string public winner */\n    tag_37:\n      0x01\n      dup1\n      sload\n      tag_88\n      swap1\n      tag_64\n      jump\t// in\n    tag_88:\n      dup1\n      0x1f\n      add\n      0x20\n      dup1\n      swap2\n      div\n      mul\n      0x20\n      add\n      mload(0x40)\n      swap1\n      dup2\n      add\n      0x40\n      mstore\n      dup1\n      swap3\n      swap2\n      swap1\n      dup2\n      dup2\n      mstore\n      0x20\n      add\n      dup3\n      dup1\n      sload\n      tag_89\n      swap1\n      tag_64\n      jump\t// in\n    tag_89:\n      dup1\n      iszero\n      tag_90\n      jumpi\n      dup1\n      0x1f\n      lt\n      tag_91\n      jumpi\n      0x0100\n      dup1\n      dup4\n      sload\n      div\n      mul\n      dup4\n      mstore\n      swap2\n      0x20\n      add\n      swap2\n      jump(tag_90)\n    tag_91:\n      dup3\n      add\n      swap2\n      swap1\n      0x00\n      mstore\n      keccak256(0x00, 0x20)\n      swap1\n    tag_92:\n      dup2\n      sload\n      dup2\n      mstore\n      swap1\n      0x01\n      add\n      swap1\n      0x20\n      add\n      dup1\n      dup4\n      gt\n      tag_92\n      jumpi\n      dup3\n      swap1\n      sub\n      0x1f\n      and\n      dup3\n      add\n      swap2\n    tag_90:\n      pop\n      pop\n      pop\n      pop\n      pop\n      dup2\n      jump\t// out\n        /* \"VotingContract.sol\":111:131  address public admin */\n    tag_41:\n      0x00\n      dup1\n      sload\n      swap1\n      0x0100\n      exp\n      swap1\n      div\n      0xffffffffffffffffffffffffffffffffffffffff\n      and\n      dup2\n      jump\t// out\n    tag_66:\n      dup3\n      dup1\n      sload\n      tag_93\n      swap1\n      tag_64\n      jump\t// in\n    tag_93:\n      swap1\n      0x00\n      mstore\n      keccak256(0x00, 0x20)\n      swap1\n      0x1f\n      add\n      0x20\n      swap1\n      div\n      dup2\n      add\n      swap3\n      dup3\n      tag_95\n      jumpi\n      0x00\n      dup6\n      sstore\n      jump(tag_94)\n    tag_95:\n      dup3\n      0x1f\n      lt\n      tag_96\n      jumpi\n      dup1\n      sload\n      dup6\n      sstore\n      jump(tag_94)\n    tag_96:\n      dup3\n      dup1\n      add\n      0x01\n      add\n      dup6\n      sstore\n      dup3\n      iszero\n      tag_94\n      jumpi\n      0x00\n      mstore\n      keccak256(0x00, 0x20)\n      swap2\n      0x1f\n      add\n      0x20\n      swap1\n      div\n      dup3\n      add\n    tag_97:\n      dup3\n      dup2\n      gt\n      iszero\n      tag_98\n      jumpi\n      dup3\n      sload\n      dup3\n      sstore\n      swap2\n      0x01\n      add\n      swap2\n      swap1\n      0x01\n      add\n      swap1\n      jump(tag_97)\n    tag_98:\n    tag_94:\n      pop\n      swap1\n      pop\n      tag_99\n      swap2\n      swap1\n      tag_100\n      jump\t// in\n    tag_99:\n      pop\n      swap1\n      jump\t// out\n    tag_100:\n    tag_101:\n      dup1\n      dup3\n      gt\n      iszero\n      tag_102\n      jumpi\n      0x00\n      dup2\n      0x00\n      swap1\n      sstore\n      pop\n      0x01\n      add\n      jump(tag_101)\n    tag_102:\n      pop\n      swap1\n      jump\t// out\n        /* \"#utility.yul\":7:84   */\n    tag_103:\n        /* \"#utility.yul\":44:51   */\n      0x00\n        /* \"#utility.yul\":73:78   */\n      dup2\n        /* \"#utility.yul\":62:78   */\n      swap1\n      pop\n        /* \"#utility.yul\":7:84   */\n      swap2\n      swap1\n      pop\n      jump\t// out\n        /* \"#utility.yul\":90:208   */\n    tag_104:\n        /* \"#utility.yul\":177:201   */\n      tag_127\n        /* \"#utility.yul\":195:200   */\n      dup2\n        /* \"#utility.yul\":177:201   */\n      tag_103\n      jump\t// in\n    tag_127:\n        /* \"#utility.yul\":172:175   */\n      dup3\n        /* \"#utility.yul\":165:202   */\n      mstore\n        /* \"#utility.yul\":90:208   */\n      pop\n      pop\n      jump\t// out\n        /* \"#utility.yul\":214:436   */\n    tag_17:\n        /* \"#utility.yul\":307:311   */\n      0x00\n        /* \"#utility.yul\":345:347   */\n      0x20\n        /* \"#utility.yul\":334:343   */\n      dup3\n        /* \"#utility.yul\":330:348   */\n      add\n        /* \"#utility.yul\":322:348   */\n      swap1\n      pop\n        /* \"#utility.yul\":358:429   */\n      tag_129\n        /* \"#utility.yul\":426:427   */\n      0x00\n        /* \"#utility.yul\":415:424   */\n      dup4\n        /* \"#utility.yul\":411:428   */\n      add\n        /* \"#utility.yul\":402:408   */\n      dup5\n        /* \"#utility.yul\":358:429   */\n      tag_104\n      jump\t// in\n    tag_129:\n        /* \"#utility.yul\":214:436   */\n      swap3\n      swap2\n      pop\n      pop\n      jump\t// out\n        /* \"#utility.yul\":523:640   */\n    tag_106:\n        /* \"#utility.yul\":632:633   */\n      0x00\n        /* \"#utility.yul\":629:630   */\n      dup1\n        /* \"#utility.yul\":622:634   */\n      revert\n        /* \"#utility.yul\":769:891   */\n    tag_108:\n        /* \"#utility.yul\":842:866   */\n      tag_134\n        /* \"#utility.yul\":860:865   */\n      dup2\n        /* \"#utility.yul\":842:866   */\n      tag_103\n      jump\t// in\n    tag_134:\n        /* \"#utility.yul\":835:840   */\n      dup2\n        /* \"#utility.yul\":832:867   */\n      eq\n        /* \"#utility.yul\":822:885   */\n      tag_135\n      jumpi\n        /* \"#utility.yul\":881:882   */\n      0x00\n        /* \"#utility.yul\":878:879   */\n      dup1\n        /* \"#utility.yul\":871:883   */\n      revert\n        /* \"#utility.yul\":822:885   */\n    tag_135:\n        /* \"#utility.yul\":769:891   */\n      pop\n      jump\t// out\n        /* \"#utility.yul\":897:1036   */\n    tag_109:\n        /* \"#utility.yul\":943:948   */\n      0x00\n        /* \"#utility.yul\":981:987   */\n      dup2\n        /* \"#utility.yul\":968:988   */\n      calldataload\n        /* \"#utility.yul\":959:988   */\n      swap1\n      pop\n        /* \"#utility.yul\":997:1030   */\n      tag_137\n        /* \"#utility.yul\":1024:1029   */\n      dup2\n        /* \"#utility.yul\":997:1030   */\n      tag_108\n      jump\t// in\n    tag_137:\n        /* \"#utility.yul\":897:1036   */\n      swap3\n      swap2\n      pop\n      pop\n      jump\t// out\n        /* \"#utility.yul\":1042:1371   */\n    tag_20:\n        /* \"#utility.yul\":1101:1107   */\n      0x00\n        /* \"#utility.yul\":1150:1152   */\n      0x20\n        /* \"#utility.yul\":1138:1147   */\n      dup3\n        /* \"#utility.yul\":1129:1136   */\n      dup5\n        /* \"#utility.yul\":1125:1148   */\n      sub\n        /* \"#utility.yul\":1121:1153   */\n      slt\n        /* \"#utility.yul\":1118:1237   */\n      iszero\n      tag_139\n      jumpi\n        /* \"#utility.yul\":1156:1235   */\n      tag_140\n      tag_106\n      jump\t// in\n    tag_140:\n        /* \"#utility.yul\":1118:1237   */\n    tag_139:\n        /* \"#utility.yul\":1276:1277   */\n      0x00\n        /* \"#utility.yul\":1301:1354   */\n      tag_141\n        /* \"#utility.yul\":1346:1353   */\n      dup5\n        /* \"#utility.yul\":1337:1343   */\n      dup3\n        /* \"#utility.yul\":1326:1335   */\n      dup6\n        /* \"#utility.yul\":1322:1344   */\n      add\n        /* \"#utility.yul\":1301:1354   */\n      tag_109\n      jump\t// in\n    tag_141:\n        /* \"#utility.yul\":1291:1354   */\n      swap2\n      pop\n        /* \"#utility.yul\":1247:1364   */\n      pop\n        /* \"#utility.yul\":1042:1371   */\n      swap3\n      swap2\n      pop\n      pop\n      jump\t// out\n        /* \"#utility.yul\":1377:1476   */\n    tag_110:\n        /* \"#utility.yul\":1429:1435   */\n      0x00\n        /* \"#utility.yul\":1463:1468   */\n      dup2\n        /* \"#utility.yul\":1457:1469   */\n      mload\n        /* \"#utility.yul\":1447:1469   */\n      swap1\n      pop\n        /* \"#utility.yul\":1377:1476   */\n      swap2\n      swap1\n      pop\n      jump\t// out\n        /* \"#utility.yul\":1482:1651   */\n    tag_111:\n        /* \"#utility.yul\":1566:1577   */\n      0x00\n        /* \"#utility.yul\":1600:1606   */\n      dup3\n        /* \"#utility.yul\":1595:1598   */\n      dup3\n        /* \"#utility.yul\":1588:1607   */\n      mstore\n        /* \"#utility.yul\":1640:1644   */\n      0x20\n        /* \"#utility.yul\":1635:1638   */\n      dup3\n        /* \"#utility.yul\":1631:1645   */\n      add\n        /* \"#utility.yul\":1616:1645   */\n      swap1\n      pop\n        /* \"#utility.yul\":1482:1651   */\n      swap3\n      swap2\n      pop\n      pop\n      jump\t// out\n        /* \"#utility.yul\":1657:1964   */\n    tag_112:\n        /* \"#utility.yul\":1725:1726   */\n      0x00\n        /* \"#utility.yul\":1735:1848   */\n    tag_145:\n        /* \"#utility.yul\":1749:1755   */\n      dup4\n        /* \"#utility.yul\":1746:1747   */\n      dup2\n        /* \"#utility.yul\":1743:1756   */\n      lt\n        /* \"#utility.yul\":1735:1848   */\n      iszero\n      tag_147\n      jumpi\n        /* \"#utility.yul\":1834:1835   */\n      dup1\n        /* \"#utility.yul\":1829:1832   */\n      dup3\n        /* \"#utility.yul\":1825:1836   */\n      add\n        /* \"#utility.yul\":1819:1837   */\n      mload\n        /* \"#utility.yul\":1815:1816   */\n      dup2\n        /* \"#utility.yul\":1810:1813   */\n      dup5\n        /* \"#utility.yul\":1806:1817   */\n      add\n        /* \"#utility.yul\":1799:1838   */\n      mstore\n        /* \"#utility.yul\":1771:1773   */\n      0x20\n        /* \"#utility.yul\":1768:1769   */\n      dup2\n        /* \"#utility.yul\":1764:1774   */\n      add\n        /* \"#utility.yul\":1759:1774   */\n      swap1\n      pop\n        /* \"#utility.yul\":1735:1848   */\n      jump(tag_145)\n    tag_147:\n        /* \"#utility.yul\":1866:1872   */\n      dup4\n        /* \"#utility.yul\":1863:1864   */\n      dup2\n        /* \"#utility.yul\":1860:1873   */\n      gt\n        /* \"#utility.yul\":1857:1958   */\n      iszero\n      tag_148\n      jumpi\n        /* \"#utility.yul\":1946:1947   */\n      0x00\n        /* \"#utility.yul\":1937:1943   */\n      dup5\n        /* \"#utility.yul\":1932:1935   */\n      dup5\n        /* \"#utility.yul\":1928:1944   */\n      add\n        /* \"#utility.yul\":1921:1948   */\n      mstore\n        /* \"#utility.yul\":1857:1958   */\n    tag_148:\n        /* \"#utility.yul\":1706:1964   */\n      pop\n        /* \"#utility.yul\":1657:1964   */\n      pop\n      pop\n      pop\n      jump\t// out\n        /* \"#utility.yul\":1970:2072   */\n    tag_113:\n        /* \"#utility.yul\":2011:2017   */\n      0x00\n        /* \"#utility.yul\":2062:2064   */\n      0x1f\n        /* \"#utility.yul\":2058:2065   */\n      not\n        /* \"#utility.yul\":2053:2055   */\n      0x1f\n        /* \"#utility.yul\":2046:2051   */\n      dup4\n        /* \"#utility.yul\":2042:2056   */\n      add\n        /* \"#utility.yul\":2038:2066   */\n      and\n        /* \"#utility.yul\":2028:2066   */\n      swap1\n      pop\n        /* \"#utility.yul\":1970:2072   */\n      swap2\n      swap1\n      pop\n      jump\t// out\n        /* \"#utility.yul\":2078:2442   */\n    tag_114:\n        /* \"#utility.yul\":2166:2169   */\n      0x00\n        /* \"#utility.yul\":2194:2233   */\n      tag_151\n        /* \"#utility.yul\":2227:2232   */\n      dup3\n        /* \"#utility.yul\":2194:2233   */\n      tag_110\n      jump\t// in\n    tag_151:\n        /* \"#utility.yul\":2249:2320   */\n      tag_152\n        /* \"#utility.yul\":2313:2319   */\n      dup2\n        /* \"#utility.yul\":2308:2311   */\n      dup6\n        /* \"#utility.yul\":2249:2320   */\n      tag_111\n      jump\t// in\n    tag_152:\n        /* \"#utility.yul\":2242:2320   */\n      swap4\n      pop\n        /* \"#utility.yul\":2329:2381   */\n      tag_153\n        /* \"#utility.yul\":2374:2380   */\n      dup2\n        /* \"#utility.yul\":2369:2372   */\n      dup6\n        /* \"#utility.yul\":2362:2366   */\n      0x20\n        /* \"#utility.yul\":2355:2360   */\n      dup7\n        /* \"#utility.yul\":2351:2367   */\n      add\n        /* \"#utility.yul\":2329:2381   */\n      tag_112\n      jump\t// in\n    tag_153:\n        /* \"#utility.yul\":2406:2435   */\n      tag_154\n        /* \"#utility.yul\":2428:2434   */\n      dup2\n        /* \"#utility.yul\":2406:2435   */\n      tag_113\n      jump\t// in\n    tag_154:\n        /* \"#utility.yul\":2401:2404   */\n      dup5\n        /* \"#utility.yul\":2397:2436   */\n      add\n        /* \"#utility.yul\":2390:2436   */\n      swap2\n      pop\n        /* \"#utility.yul\":2170:2442   */\n      pop\n        /* \"#utility.yul\":2078:2442   */\n      swap3\n      swap2\n      pop\n      pop\n      jump\t// out\n        /* \"#utility.yul\":2448:2871   */\n    tag_23:\n        /* \"#utility.yul\":2589:2593   */\n      0x00\n        /* \"#utility.yul\":2627:2629   */\n      0x40\n        /* \"#utility.yul\":2616:2625   */\n      dup3\n        /* \"#utility.yul\":2612:2630   */\n      add\n        /* \"#utility.yul\":2604:2630   */\n      swap1\n      pop\n        /* \"#utility.yul\":2676:2685   */\n      dup2\n        /* \"#utility.yul\":2670:2674   */\n      dup2\n        /* \"#utility.yul\":2666:2686   */\n      sub\n        /* \"#utility.yul\":2662:2663   */\n      0x00\n        /* \"#utility.yul\":2651:2660   */\n      dup4\n        /* \"#utility.yul\":2647:2664   */\n      add\n        /* \"#utility.yul\":2640:2687   */\n      mstore\n        /* \"#utility.yul\":2704:2782   */\n      tag_156\n        /* \"#utility.yul\":2777:2781   */\n      dup2\n        /* \"#utility.yul\":2768:2774   */\n      dup6\n        /* \"#utility.yul\":2704:2782   */\n      tag_114\n      jump\t// in\n    tag_156:\n        /* \"#utility.yul\":2696:2782   */\n      swap1\n      pop\n        /* \"#utility.yul\":2792:2864   */\n      tag_157\n        /* \"#utility.yul\":2860:2862   */\n      0x20\n        /* \"#utility.yul\":2849:2858   */\n      dup4\n        /* \"#utility.yul\":2845:2863   */\n      add\n        /* \"#utility.yul\":2836:2842   */\n      dup5\n        /* \"#utility.yul\":2792:2864   */\n      tag_104\n      jump\t// in\n    tag_157:\n        /* \"#utility.yul\":2448:2871   */\n      swap4\n      swap3\n      pop\n      pop\n      pop\n      jump\t// out\n        /* \"#utility.yul\":2877:3003   */\n    tag_115:\n        /* \"#utility.yul\":2914:2921   */\n      0x00\n        /* \"#utility.yul\":2954:2996   */\n      0xffffffffffffffffffffffffffffffffffffffff\n        /* \"#utility.yul\":2947:2952   */\n      dup3\n        /* \"#utility.yul\":2943:2997   */\n      and\n        /* \"#utility.yul\":2932:2997   */\n      swap1\n      pop\n        /* \"#utility.yul\":2877:3003   */\n      swap2\n      swap1\n      pop\n      jump\t// out\n        /* \"#utility.yul\":3009:3105   */\n    tag_116:\n        /* \"#utility.yul\":3046:3053   */\n      0x00\n        /* \"#utility.yul\":3075:3099   */\n      tag_160\n        /* \"#utility.yul\":3093:3098   */\n      dup3\n        /* \"#utility.yul\":3075:3099   */\n      tag_115\n      jump\t// in\n    tag_160:\n        /* \"#utility.yul\":3064:3099   */\n      swap1\n      pop\n        /* \"#utility.yul\":3009:3105   */\n      swap2\n      swap1\n      pop\n      jump\t// out\n        /* \"#utility.yul\":3111:3233   */\n    tag_117:\n        /* \"#utility.yul\":3184:3208   */\n      tag_162\n        /* \"#utility.yul\":3202:3207   */\n      dup2\n        /* \"#utility.yul\":3184:3208   */\n      tag_116\n      jump\t// in\n    tag_162:\n        /* \"#utility.yul\":3177:3182   */\n      dup2\n        /* \"#utility.yul\":3174:3209   */\n      eq\n        /* \"#utility.yul\":3164:3227   */\n      tag_163\n      jumpi\n        /* \"#utility.yul\":3223:3224   */\n      0x00\n        /* \"#utility.yul\":3220:3221   */\n      dup1\n        /* \"#utility.yul\":3213:3225   */\n      revert\n        /* \"#utility.yul\":3164:3227   */\n    tag_163:\n        /* \"#utility.yul\":3111:3233   */\n      pop\n      jump\t// out\n        /* \"#utility.yul\":3239:3378   */\n    tag_118:\n        /* \"#utility.yul\":3285:3290   */\n      0x00\n        /* \"#utility.yul\":3323:3329   */\n      dup2\n        /* \"#utility.yul\":3310:3330   */\n      calldataload\n        /* \"#utility.yul\":3301:3330   */\n      swap1\n      pop\n        /* \"#utility.yul\":3339:3372   */\n      tag_165\n        /* \"#utility.yul\":3366:3371   */\n      dup2\n        /* \"#utility.yul\":3339:3372   */\n      tag_117\n      jump\t// in\n    tag_165:\n        /* \"#utility.yul\":3239:3378   */\n      swap3\n      swap2\n      pop\n      pop\n      jump\t// out\n        /* \"#utility.yul\":3384:3713   */\n    tag_29:\n        /* \"#utility.yul\":3443:3449   */\n      0x00\n        /* \"#utility.yul\":3492:3494   */\n      0x20\n        /* \"#utility.yul\":3480:3489   */\n      dup3\n        /* \"#utility.yul\":3471:3478   */\n      dup5\n        /* \"#utility.yul\":3467:3490   */\n      sub\n        /* \"#utility.yul\":3463:3495   */\n      slt\n        /* \"#utility.yul\":3460:3579   */\n      iszero\n      tag_167\n      jumpi\n        /* \"#utility.yul\":3498:3577   */\n      tag_168\n      tag_106\n      jump\t// in\n    tag_168:\n        /* \"#utility.yul\":3460:3579   */\n    tag_167:\n        /* \"#utility.yul\":3618:3619   */\n      0x00\n        /* \"#utility.yul\":3643:3696   */\n      tag_169\n        /* \"#utility.yul\":3688:3695   */\n      dup5\n        /* \"#utility.yul\":3679:3685   */\n      dup3\n        /* \"#utility.yul\":3668:3677   */\n      dup6\n        /* \"#utility.yul\":3664:3686   */\n      add\n        /* \"#utility.yul\":3643:3696   */\n      tag_118\n      jump\t// in\n    tag_169:\n        /* \"#utility.yul\":3633:3696   */\n      swap2\n      pop\n        /* \"#utility.yul\":3589:3706   */\n      pop\n        /* \"#utility.yul\":3384:3713   */\n      swap3\n      swap2\n      pop\n      pop\n      jump\t// out\n        /* \"#utility.yul\":3719:3809   */\n    tag_119:\n        /* \"#utility.yul\":3753:3760   */\n      0x00\n        /* \"#utility.yul\":3796:3801   */\n      dup2\n        /* \"#utility.yul\":3789:3802   */\n      iszero\n        /* \"#utility.yul\":3782:3803   */\n      iszero\n        /* \"#utility.yul\":3771:3803   */\n      swap1\n      pop\n        /* \"#utility.yul\":3719:3809   */\n      swap2\n      swap1\n      pop\n      jump\t// out\n        /* \"#utility.yul\":3815:3924   */\n    tag_120:\n        /* \"#utility.yul\":3896:3917   */\n      tag_172\n        /* \"#utility.yul\":3911:3916   */\n      dup2\n        /* \"#utility.yul\":3896:3917   */\n      tag_119\n      jump\t// in\n    tag_172:\n        /* \"#utility.yul\":3891:3894   */\n      dup3\n        /* \"#utility.yul\":3884:3918   */\n      mstore\n        /* \"#utility.yul\":3815:3924   */\n      pop\n      pop\n      jump\t// out\n        /* \"#utility.yul\":3930:4348   */\n    tag_32:\n        /* \"#utility.yul\":4067:4071   */\n      0x00\n        /* \"#utility.yul\":4105:4107   */\n      0x60\n        /* \"#utility.yul\":4094:4103   */\n      dup3\n        /* \"#utility.yul\":4090:4108   */\n      add\n        /* \"#utility.yul\":4082:4108   */\n      swap1\n      pop\n        /* \"#utility.yul\":4118:4189   */\n      tag_174\n        /* \"#utility.yul\":4186:4187   */\n      0x00\n        /* \"#utility.yul\":4175:4184   */\n      dup4\n        /* \"#utility.yul\":4171:4188   */\n      add\n        /* \"#utility.yul\":4162:4168   */\n      dup7\n        /* \"#utility.yul\":4118:4189   */\n      tag_104\n      jump\t// in\n    tag_174:\n        /* \"#utility.yul\":4199:4265   */\n      tag_175\n        /* \"#utility.yul\":4261:4263   */\n      0x20\n        /* \"#utility.yul\":4250:4259   */\n      dup4\n        /* \"#utility.yul\":4246:4264   */\n      add\n        /* \"#utility.yul\":4237:4243   */\n      dup6\n        /* \"#utility.yul\":4199:4265   */\n      tag_120\n      jump\t// in\n    tag_175:\n        /* \"#utility.yul\":4275:4341   */\n      tag_176\n        /* \"#utility.yul\":4337:4339   */\n      0x40\n        /* \"#utility.yul\":4326:4335   */\n      dup4\n        /* \"#utility.yul\":4322:4340   */\n      add\n        /* \"#utility.yul\":4313:4319   */\n      dup5\n        /* \"#utility.yul\":4275:4341   */\n      tag_120\n      jump\t// in\n    tag_176:\n        /* \"#utility.yul\":3930:4348   */\n      swap5\n      swap4\n      pop\n      pop\n      pop\n      pop\n      jump\t// out\n        /* \"#utility.yul\":4354:4667   */\n    tag_39:\n        /* \"#utility.yul\":4467:4471   */\n      0x00\n        /* \"#utility.yul\":4505:4507   */\n      0x20\n        /* \"#utility.yul\":4494:4503   */\n      dup3\n        /* \"#utility.yul\":4490:4508   */\n      add\n        /* \"#utility.yul\":4482:4508   */\n      swap1\n      pop\n        /* \"#utility.yul\":4554:4563   */\n      dup2\n        /* \"#utility.yul\":4548:4552   */\n      dup2\n        /* \"#utility.yul\":4544:4564   */\n      sub\n        /* \"#utility.yul\":4540:4541   */\n      0x00\n        /* \"#utility.yul\":4529:4538   */\n      dup4\n        /* \"#utility.yul\":4525:4542   */\n      add\n        /* \"#utility.yul\":4518:4565   */\n      mstore\n        /* \"#utility.yul\":4582:4660   */\n      tag_178\n        /* \"#utility.yul\":4655:4659   */\n      dup2\n        /* \"#utility.yul\":4646:4652   */\n      dup5\n        /* \"#utility.yul\":4582:4660   */\n      tag_114\n      jump\t// in\n    tag_178:\n        /* \"#utility.yul\":4574:4660   */\n      swap1\n      pop\n        /* \"#utility.yul\":4354:4667   */\n      swap3\n      swap2\n      pop\n      pop\n      jump\t// out\n        /* \"#utility.yul\":4673:4791   */\n    tag_121:\n        /* \"#utility.yul\":4760:4784   */\n      tag_180\n        /* \"#utility.yul\":4778:4783   */\n      dup2\n        /* \"#utility.yul\":4760:4784   */\n      tag_116\n      jump\t// in\n    tag_180:\n        /* \"#utility.yul\":4755:4758   */\n      dup3\n        /* \"#utility.yul\":4748:4785   */\n      mstore\n        /* \"#utility.yul\":4673:4791   */\n      pop\n      pop\n      jump\t// out\n        /* \"#utility.yul\":4797:5019   */\n    tag_43:\n        /* \"#utility.yul\":4890:4894   */\n      0x00\n        /* \"#utility.yul\":4928:4930   */\n      0x20\n        /* \"#utility.yul\":4917:4926   */\n      dup3\n        /* \"#utility.yul\":4913:4931   */\n      add\n        /* \"#utility.yul\":4905:4931   */\n      swap1\n      pop\n        /* \"#utility.yul\":4941:5012   */\n      tag_182\n        /* \"#utility.yul\":5009:5010   */\n      0x00\n        /* \"#utility.yul\":4998:5007   */\n      dup4\n        /* \"#utility.yul\":4994:5011   */\n      add\n        /* \"#utility.yul\":4985:4991   */\n      dup5\n        /* \"#utility.yul\":4941:5012   */\n      tag_121\n      jump\t// in\n    tag_182:\n        /* \"#utility.yul\":4797:5019   */\n      swap3\n      swap2\n      pop\n      pop\n      jump\t// out\n        /* \"#utility.yul\":5025:5205   */\n    tag_52:\n        /* \"#utility.yul\":5073:5150   */\n      0x4e487b7100000000000000000000000000000000000000000000000000000000\n        /* \"#utility.yul\":5070:5071   */\n      0x00\n        /* \"#utility.yul\":5063:5151   */\n      mstore\n        /* \"#utility.yul\":5170:5174   */\n      0x32\n        /* \"#utility.yul\":5167:5168   */\n      0x04\n        /* \"#utility.yul\":5160:5175   */\n      mstore\n        /* \"#utility.yul\":5194:5198   */\n      0x24\n        /* \"#utility.yul\":5191:5192   */\n      0x00\n        /* \"#utility.yul\":5184:5199   */\n      revert\n        /* \"#utility.yul\":5211:5391   */\n    tag_122:\n        /* \"#utility.yul\":5259:5336   */\n      0x4e487b7100000000000000000000000000000000000000000000000000000000\n        /* \"#utility.yul\":5256:5257   */\n      0x00\n        /* \"#utility.yul\":5249:5337   */\n      mstore\n        /* \"#utility.yul\":5356:5360   */\n      0x11\n        /* \"#utility.yul\":5353:5354   */\n      0x04\n        /* \"#utility.yul\":5346:5361   */\n      mstore\n        /* \"#utility.yul\":5380:5384   */\n      0x24\n        /* \"#utility.yul\":5377:5378   */\n      0x00\n        /* \"#utility.yul\":5370:5385   */\n      revert\n        /* \"#utility.yul\":5397:5630   */\n    tag_59:\n        /* \"#utility.yul\":5436:5439   */\n      0x00\n        /* \"#utility.yul\":5459:5483   */\n      tag_186\n        /* \"#utility.yul\":5477:5482   */\n      dup3\n        /* \"#utility.yul\":5459:5483   */\n      tag_103\n      jump\t// in\n    tag_186:\n        /* \"#utility.yul\":5450:5483   */\n      swap2\n      pop\n        /* \"#utility.yul\":5505:5571   */\n      0xffffffffffffffffffffffffffffffffffffffffffffffffffffffffffffffff\n        /* \"#utility.yul\":5498:5503   */\n      dup3\n        /* \"#utility.yul\":5495:5572   */\n      sub\n        /* \"#utility.yul\":5492:5595   */\n      tag_187\n      jumpi\n        /* \"#utility.yul\":5575:5593   */\n      tag_188\n      tag_122\n      jump\t// in\n    tag_188:\n        /* \"#utility.yul\":5492:5595   */\n    tag_187:\n        /* \"#utility.yul\":5622:5623   */\n      0x01\n        /* \"#utility.yul\":5615:5620   */\n      dup3\n        /* \"#utility.yul\":5611:5624   */\n      add\n        /* \"#utility.yul\":5604:5624   */\n      swap1\n      pop\n        /* \"#utility.yul\":5397:5630   */\n      swap2\n      swap1\n      pop\n      jump\t// out\n        /* \"#utility.yul\":5636:5816   */\n    tag_123:\n        /* \"#utility.yul\":5684:5761   */\n      0x4e487b7100000000000000000000000000000000000000000000000000000000\n        /* \"#utility.yul\":5681:5682   */\n      0x00\n        /* \"#utility.yul\":5674:5762   */\n      mstore\n        /* \"#utility.yul\":5781:5785   */\n      0x22\n        /* \"#utility.yul\":5778:5779   */\n      0x04\n        /* \"#utility.yul\":5771:5786   */\n      mstore\n        /* \"#utility.yul\":5805:5809   */\n      0x24\n        /* \"#utility.yul\":5802:5803   */\n      0x00\n        /* \"#utility.yul\":5795:5810   */\n      revert\n        /* \"#utility.yul\":5822:6142   */\n    tag_64:\n        /* \"#utility.yul\":5866:5872   */\n      0x00\n        /* \"#utility.yul\":5903:5904   */\n      0x02\n        /* \"#utility.yul\":5897:5901   */\n      dup3\n        /* \"#utility.yul\":5893:5905   */\n      div\n        /* \"#utility.yul\":5883:5905   */\n      swap1\n      pop\n        /* \"#utility.yul\":5950:5951   */\n      0x01\n        /* \"#utility.yul\":5944:5948   */\n      dup3\n        /* \"#utility.yul\":5940:5952   */\n      and\n        /* \"#utility.yul\":5971:5989   */\n      dup1\n        /* \"#utility.yul\":5961:6042   */\n      tag_191\n      jumpi\n        /* \"#utility.yul\":6027:6031   */\n      0x7f\n        /* \"#utility.yul\":6019:6025   */\n      dup3\n        /* \"#utility.yul\":6015:6032   */\n      and\n        /* \"#utility.yul\":6005:6032   */\n      swap2\n      pop\n        /* \"#utility.yul\":5961:6042   */\n    tag_191:\n        /* \"#utility.yul\":6089:6091   */\n      0x20\n        /* \"#utility.yul\":6081:6087   */\n      dup3\n        /* \"#utility.yul\":6078:6092   */\n      lt\n        /* \"#utility.yul\":6058:6076   */\n      dup2\n        /* \"#utility.yul\":6055:6093   */\n      sub\n        /* \"#utility.yul\":6052:6136   */\n      tag_192\n      jumpi\n        /* \"#utility.yul\":6108:6126   */\n      tag_193\n      tag_123\n      jump\t// in\n    tag_193:\n        /* \"#utility.yul\":6052:6136   */\n    tag_192:\n        /* \"#utility.yul\":5873:6142   */\n      pop\n        /* \"#utility.yul\":5822:6142   */\n      swap2\n      swap1\n      pop\n      jump\t// out\n        /* \"#utility.yul\":6148:6453   */\n    tag_82:\n        /* \"#utility.yul\":6188:6191   */\n      0x00\n        /* \"#utility.yul\":6207:6227   */\n      tag_195\n        /* \"#utility.yul\":6225:6226   */\n      dup3\n        /* \"#utility.yul\":6207:6227   */\n      tag_103\n      jump\t// in\n    tag_195:\n        /* \"#utility.yul\":6202:6227   */\n      swap2\n      pop\n        /* \"#utility.yul\":6241:6261   */\n      tag_196\n        /* \"#utility.yul\":6259:6260   */\n      dup4\n        /* \"#utility.yul\":6241:6261   */\n      tag_103\n      jump\t// in\n    tag_196:\n        /* \"#utility.yul\":6236:6261   */\n      swap3\n      pop\n        /* \"#utility.yul\":6395:6396   */\n      dup3\n        /* \"#utility.yul\":6327:6393   */\n      0xffffffffffffffffffffffffffffffffffffffffffffffffffffffffffffffff\n        /* \"#utility.yul\":6323:6397   */\n      sub\n        /* \"#utility.yul\":6320:6321   */\n      dup3\n        /* \"#utility.yul\":6317:6398   */\n      gt\n        /* \"#utility.yul\":6314:6421   */\n      iszero\n      tag_197\n      jumpi\n        /* \"#utility.yul\":6401:6419   */\n      tag_198\n      tag_122\n      jump\t// in\n    tag_198:\n        /* \"#utility.yul\":6314:6421   */\n    tag_197:\n        /* \"#utility.yul\":6445:6446   */\n      dup3\n        /* \"#utility.yul\":6442:6443   */\n      dup3\n        /* \"#utility.yul\":6438:6447   */\n      add\n        /* \"#utility.yul\":6431:6447   */\n      swap1\n      pop\n        /* \"#utility.yul\":6148:6453   */\n      swap3\n      swap2\n      pop\n      pop\n      jump\t// out\n\n    auxdata: 0xa26469706673582212204f0abf6f6438d1eaa3c53dbb7abf1f3f15bb8159470f1288323da0e9df45342964736f6c634300080d0033\n}\n","bytecode":{"linkReferences":{},"object":"60806040523480156200001157600080fd5b506040516200115e3803806200115e833981810160405281019062000037919062000474565b336000806101000a81548173ffffffffffffffffffffffffffffffffffffffff021916908373ffffffffffffffffffffffffffffffffffffffff16021790555060005b8151811015620001235760036040518060400160405280848481518110620000a757620000a6620004c5565b5b60200260200101518152602001600081525090806001815401808255809150506001900390600052602060002090600202016000909190919091506000820151816000019080519060200190620001009291906200012b565b5060208201518160010155505080806200011a906200052d565b9150506200007a565b5050620005de565b8280546200013990620005a9565b90600052602060002090601f0160209004810192826200015d5760008555620001a9565b82601f106200017857805160ff1916838001178555620001a9565b82800160010185558215620001a9579182015b82811115620001a85782518255916020019190600101906200018b565b5b509050620001b89190620001bc565b5090565b5b80821115620001d7576000816000905550600101620001bd565b5090565b6000604051905090565b600080fd5b600080fd5b600080fd5b6000601f19601f8301169050919050565b7f4e487b7100000000000000000000000000000000000000000000000000000000600052604160045260246000fd5b6200023f82620001f4565b810181811067ffffffffffffffff8211171562000261576200026062000205565b5b80604052505050565b600062000276620001db565b905062000284828262000234565b919050565b600067ffffffffffffffff821115620002a757620002a662000205565b5b602082029050602081019050919050565b600080fd5b600080fd5b600067ffffffffffffffff821115620002e057620002df62000205565b5b620002eb82620001f4565b9050602081019050919050565b60005b8381101562000318578082015181840152602081019050620002fb565b8381111562000328576000848401525b50505050565b6000620003456200033f84620002c2565b6200026a565b905082815260208101848484011115620003645762000363620002bd565b5b62000371848285620002f8565b509392505050565b600082601f830112620003915762000390620001ef565b5b8151620003a38482602086016200032e565b91505092915050565b6000620003c3620003bd8462000289565b6200026a565b90508083825260208201905060208402830185811115620003e957620003e8620002b8565b5b835b818110156200043757805167ffffffffffffffff811115620004125762000411620001ef565b5b80860162000421898262000379565b85526020850194505050602081019050620003eb565b5050509392505050565b600082601f830112620004595762000458620001ef565b5b81516200046b848260208601620003ac565b91505092915050565b6000602082840312156200048d576200048c620001e5565b5b600082015167ffffffffffffffff811115620004ae57620004ad620001ea565b5b620004bc8482850162000441565b91505092915050565b7f4e487b7100000000000000000000000000000000000000000000000000000000600052603260045260246000fd5b7f4e487b7100000000000000000000000000000000000000000000000000000000600052601160045260246000fd5b6000819050919050565b60006200053a8262000523565b91507fffffffffffffffffffffffffffffffffffffffffffffffffffffffffffffffff82036200056f576200056e620004f4565b5b600182019050919050565b7f4e487b7100000000000000000000000000000000000000000000000000000000600052602260045260246000fd5b60006002820490506001821680620005c257607f821691505b602082108103620005d857620005d76200057a565b5b50919050565b610b7080620005ee6000396000f3fe608060405234801561001057600080fd5b50600436106100885760003560e01c8063a3ec138d1161005b578063a3ec138d14610102578063b72d153d14610134578063dfbf53ae14610150578063f851a4401461016e57610088565b806314034bd21461008d5780634d25136a1461009757806370651a18146100b55780637f178f2e146100e6575b600080fd5b61009561018c565b005b61009f6102ab565b6040516100ac9190610773565b60405180910390f35b6100cf60048036038101906100ca91906107bf565b6102b8565b6040516100dd929190610885565b60405180910390f35b61010060048036038101906100fb91906107bf565b610374565b005b61011c60048036038101906101179190610913565b610455565b60405161012b9392919061095b565b60405180910390f35b61014e60048036038101906101499190610913565b610499565b005b6101586105fe565b6040516101659190610992565b60405180910390f35b61017661068c565b60405161018391906109c3565b60405180910390f35b60008054906101000a900473ffffffffffffffffffffffffffffffffffffffff1673ffffffffffffffffffffffffffffffffffffffff163373ffffffffffffffffffffffffffffffffffffffff16146101e457600080fd5b6000806000905060005b6003805490508110156102675781600382815481106102105761020f6109de565b5b9060005260206000209060020201600101541115610254576003818154811061023c5761023b6109de565b5b90600052602060002090600202016001015491508092505b808061025f90610a3c565b9150506101ee565b506003828154811061027c5761027b6109de565b5b9060005260206000209060020201600001600190805461029b90610ab3565b6102a69291906106b0565b505050565b6000600380549050905090565b600381815481106102c857600080fd5b90600052602060002090600202016000915090508060000180546102eb90610ab3565b80601f016020809104026020016040519081016040528092919081815260200182805461031790610ab3565b80156103645780601f1061033957610100808354040283529160200191610364565b820191906000526020600020905b81548152906001019060200180831161034757829003601f168201915b5050505050908060010154905082565b6000600260003373ffffffffffffffffffffffffffffffffffffffff1673ffffffffffffffffffffffffffffffffffffffff16815260200190815260200160002090508060010160019054906101000a900460ff166103d257600080fd5b8060010160009054906101000a900460ff16156103ee57600080fd5b60018160010160006101000a81548160ff02191690831515021790555081816000018190555060016003838154811061042a576104296109de565b5b9060005260206000209060020201600101600082825461044a9190610ae4565b925050819055505050565b60026020528060005260406000206000915090508060000154908060010160009054906101000a900460ff16908060010160019054906101000a900460ff16905083565b60008054906101000a900473ffffffffffffffffffffffffffffffffffffffff1673ffffffffffffffffffffffffffffffffffffffff163373ffffffffffffffffffffffffffffffffffffffff16146104f157600080fd5b600260008273ffffffffffffffffffffffffffffffffffffffff1673ffffffffffffffffffffffffffffffffffffffff16815260200190815260200160002060010160009054906101000a900460ff161561054b57600080fd5b600260008273ffffffffffffffffffffffffffffffffffffffff1673ffffffffffffffffffffffffffffffffffffffff16815260200190815260200160002060010160019054906101000a900460ff166105fb576001600260008373ffffffffffffffffffffffffffffffffffffffff1673ffffffffffffffffffffffffffffffffffffffff16815260200190815260200160002060010160016101000a81548160ff0219169083151502179055505b50565b6001805461060b90610ab3565b80601f016020809104026020016040519081016040528092919081815260200182805461063790610ab3565b80156106845780601f1061065957610100808354040283529160200191610684565b820191906000526020600020905b81548152906001019060200180831161066757829003601f168201915b505050505081565b60008054906101000a900473ffffffffffffffffffffffffffffffffffffffff1681565b8280546106bc90610ab3565b90600052602060002090601f0160209004810192826106de576000855561072c565b82601f106106ef578054855561072c565b8280016001018555821561072c57600052602060002091601f016020900482015b8281111561072b578254825591600101919060010190610710565b5b509050610739919061073d565b5090565b5b8082111561075657600081600090555060010161073e565b5090565b6000819050919050565b61076d8161075a565b82525050565b60006020820190506107886000830184610764565b92915050565b600080fd5b61079c8161075a565b81146107a757600080fd5b50565b6000813590506107b981610793565b92915050565b6000602082840312156107d5576107d461078e565b5b60006107e3848285016107aa565b91505092915050565b600081519050919050565b600082825260208201905092915050565b60005b8381101561082657808201518184015260208101905061080b565b83811115610835576000848401525b50505050565b6000601f19601f8301169050919050565b6000610857826107ec565b61086181856107f7565b9350610871818560208601610808565b61087a8161083b565b840191505092915050565b6000604082019050818103600083015261089f818561084c565b90506108ae6020830184610764565b9392505050565b600073ffffffffffffffffffffffffffffffffffffffff82169050919050565b60006108e0826108b5565b9050919050565b6108f0816108d5565b81146108fb57600080fd5b50565b60008135905061090d816108e7565b92915050565b6000602082840312156109295761092861078e565b5b6000610937848285016108fe565b91505092915050565b60008115159050919050565b61095581610940565b82525050565b60006060820190506109706000830186610764565b61097d602083018561094c565b61098a604083018461094c565b949350505050565b600060208201905081810360008301526109ac818461084c565b905092915050565b6109bd816108d5565b82525050565b60006020820190506109d860008301846109b4565b92915050565b7f4e487b7100000000000000000000000000000000000000000000000000000000600052603260045260246000fd5b7f4e487b7100000000000000000000000000000000000000000000000000000000600052601160045260246000fd5b6000610a478261075a565b91507fffffffffffffffffffffffffffffffffffffffffffffffffffffffffffffffff8203610a7957610a78610a0d565b5b600182019050919050565b7f4e487b7100000000000000000000000000000000000000000000000000000000600052602260045260246000fd5b60006002820490506001821680610acb57607f821691505b602082108103610ade57610add610a84565b5b50919050565b6000610aef8261075a565b9150610afa8361075a565b9250827fffffffffffffffffffffffffffffffffffffffffffffffffffffffffffffffff03821115610b2f57610b2e610a0d565b5b82820190509291505056fea26469706673582212204f0abf6f6438d1eaa3c53dbb7abf1f3f15bb8159470f1288323da0e9df45342964736f6c634300080d0033","opcodes":"PUSH1 0x80 PUSH1 0x40 MSTORE CALLVALUE DUP1 ISZERO PUSH3 0x11 JUMPI PUSH1 0x0 DUP1 REVERT JUMPDEST POP PUSH1 0x40 MLOAD PUSH3 0x115E CODESIZE SUB DUP1 PUSH3 0x115E DUP4 CODECOPY DUP2 DUP2 ADD PUSH1 0x40 MSTORE DUP2 ADD SWAP1 PUSH3 0x37 SWAP2 SWAP1 PUSH3 0x474 JUMP JUMPDEST CALLER PUSH1 0x0 DUP1 PUSH2 0x100 EXP DUP2 SLOAD DUP2 PUSH20 0xFFFFFFFFFFFFFFFFFFFFFFFFFFFFFFFFFFFFFFFF MUL NOT AND SWAP1 DUP4 PUSH20 0xFFFFFFFFFFFFFFFFFFFFFFFFFFFFFFFFFFFFFFFF AND MUL OR SWAP1 SSTORE POP PUSH1 0x0 JUMPDEST DUP2 MLOAD DUP2 LT ISZERO PUSH3 0x123 JUMPI PUSH1 0x3 PUSH1 0x40 MLOAD DUP1 PUSH1 0x40 ADD PUSH1 0x40 MSTORE DUP1 DUP5 DUP5 DUP2 MLOAD DUP2 LT PUSH3 0xA7 JUMPI PUSH3 0xA6 PUSH3 0x4C5 JUMP JUMPDEST JUMPDEST PUSH1 0x20 MUL PUSH1 0x20 ADD ADD MLOAD DUP2 MSTORE PUSH1 0x20 ADD PUSH1 0x0 DUP2 MSTORE POP SWAP1 DUP1 PUSH1 0x1 DUP2 SLOAD ADD DUP1 DUP3 SSTORE DUP1 SWAP2 POP POP PUSH1 0x1 SWAP1 SUB SWAP1 PUSH1 0x0 MSTORE PUSH1 0x20 PUSH1 0x0 KECCAK256 SWAP1 PUSH1 0x2 MUL ADD PUSH1 0x0 SWAP1 SWAP2 SWAP1 SWAP2 SWAP1 SWAP2 POP PUSH1 0x0 DUP3 ADD MLOAD DUP2 PUSH1 0x0 ADD SWAP1 DUP1 MLOAD SWAP1 PUSH1 0x20 ADD SWAP1 PUSH3 0x100 SWAP3 SWAP2 SWAP1 PUSH3 0x12B JUMP JUMPDEST POP PUSH1 0x20 DUP3 ADD MLOAD DUP2 PUSH1 0x1 ADD SSTORE POP POP DUP1 DUP1 PUSH3 0x11A SWAP1 PUSH3 0x52D JUMP JUMPDEST SWAP2 POP POP PUSH3 0x7A JUMP JUMPDEST POP POP PUSH3 0x5DE JUMP JUMPDEST DUP3 DUP1 SLOAD PUSH3 0x139 SWAP1 PUSH3 0x5A9 JUMP JUMPDEST SWAP1 PUSH1 0x0 MSTORE PUSH1 0x20 PUSH1 0x0 KECCAK256 SWAP1 PUSH1 0x1F ADD PUSH1 0x20 SWAP1 DIV DUP2 ADD SWAP3 DUP3 PUSH3 0x15D JUMPI PUSH1 0x0 DUP6 SSTORE PUSH3 0x1A9 JUMP JUMPDEST DUP3 PUSH1 0x1F LT PUSH3 0x178 JUMPI DUP1 MLOAD PUSH1 0xFF NOT AND DUP4 DUP1 ADD OR DUP6 SSTORE PUSH3 0x1A9 JUMP JUMPDEST DUP3 DUP1 ADD PUSH1 0x1 ADD DUP6 SSTORE DUP3 ISZERO PUSH3 0x1A9 JUMPI SWAP2 DUP3 ADD JUMPDEST DUP3 DUP2 GT ISZERO PUSH3 0x1A8 JUMPI DUP3 MLOAD DUP3 SSTORE SWAP2 PUSH1 0x20 ADD SWAP2 SWAP1 PUSH1 0x1 ADD SWAP1 PUSH3 0x18B JUMP JUMPDEST JUMPDEST POP SWAP1 POP PUSH3 0x1B8 SWAP2 SWAP1 PUSH3 0x1BC JUMP JUMPDEST POP SWAP1 JUMP JUMPDEST JUMPDEST DUP1 DUP3 GT ISZERO PUSH3 0x1D7 JUMPI PUSH1 0x0 DUP2 PUSH1 0x0 SWAP1 SSTORE POP PUSH1 0x1 ADD PUSH3 0x1BD JUMP JUMPDEST POP SWAP1 JUMP JUMPDEST PUSH1 0x0 PUSH1 0x40 MLOAD SWAP1 POP SWAP1 JUMP JUMPDEST PUSH1 0x0 DUP1 REVERT JUMPDEST PUSH1 0x0 DUP1 REVERT JUMPDEST PUSH1 0x0 DUP1 REVERT JUMPDEST PUSH1 0x0 PUSH1 0x1F NOT PUSH1 0x1F DUP4 ADD AND SWAP1 POP SWAP2 SWAP1 POP JUMP JUMPDEST PUSH32 0x4E487B7100000000000000000000000000000000000000000000000000000000 PUSH1 0x0 MSTORE PUSH1 0x41 PUSH1 0x4 MSTORE PUSH1 0x24 PUSH1 0x0 REVERT JUMPDEST PUSH3 0x23F DUP3 PUSH3 0x1F4 JUMP JUMPDEST DUP2 ADD DUP2 DUP2 LT PUSH8 0xFFFFFFFFFFFFFFFF DUP3 GT OR ISZERO PUSH3 0x261 JUMPI PUSH3 0x260 PUSH3 0x205 JUMP JUMPDEST JUMPDEST DUP1 PUSH1 0x40 MSTORE POP POP POP JUMP JUMPDEST PUSH1 0x0 PUSH3 0x276 PUSH3 0x1DB JUMP JUMPDEST SWAP1 POP PUSH3 0x284 DUP3 DUP3 PUSH3 0x234 JUMP JUMPDEST SWAP2 SWAP1 POP JUMP JUMPDEST PUSH1 0x0 PUSH8 0xFFFFFFFFFFFFFFFF DUP3 GT ISZERO PUSH3 0x2A7 JUMPI PUSH3 0x2A6 PUSH3 0x205 JUMP JUMPDEST JUMPDEST PUSH1 0x20 DUP3 MUL SWAP1 POP PUSH1 0x20 DUP2 ADD SWAP1 POP SWAP2 SWAP1 POP JUMP JUMPDEST PUSH1 0x0 DUP1 REVERT JUMPDEST PUSH1 0x0 DUP1 REVERT JUMPDEST PUSH1 0x0 PUSH8 0xFFFFFFFFFFFFFFFF DUP3 GT ISZERO PUSH3 0x2E0 JUMPI PUSH3 0x2DF PUSH3 0x205 JUMP JUMPDEST JUMPDEST PUSH3 0x2EB DUP3 PUSH3 0x1F4 JUMP JUMPDEST SWAP1 POP PUSH1 0x20 DUP2 ADD SWAP1 POP SWAP2 SWAP1 POP JUMP JUMPDEST PUSH1 0x0 JUMPDEST DUP4 DUP2 LT ISZERO PUSH3 0x318 JUMPI DUP1 DUP3 ADD MLOAD DUP2 DUP5 ADD MSTORE PUSH1 0x20 DUP2 ADD SWAP1 POP PUSH3 0x2FB JUMP JUMPDEST DUP4 DUP2 GT ISZERO PUSH3 0x328 JUMPI PUSH1 0x0 DUP5 DUP5 ADD MSTORE JUMPDEST POP POP POP POP JUMP JUMPDEST PUSH1 0x0 PUSH3 0x345 PUSH3 0x33F DUP5 PUSH3 0x2C2 JUMP JUMPDEST PUSH3 0x26A JUMP JUMPDEST SWAP1 POP DUP3 DUP2 MSTORE PUSH1 0x20 DUP2 ADD DUP5 DUP5 DUP5 ADD GT ISZERO PUSH3 0x364 JUMPI PUSH3 0x363 PUSH3 0x2BD JUMP JUMPDEST JUMPDEST PUSH3 0x371 DUP5 DUP3 DUP6 PUSH3 0x2F8 JUMP JUMPDEST POP SWAP4 SWAP3 POP POP POP JUMP JUMPDEST PUSH1 0x0 DUP3 PUSH1 0x1F DUP4 ADD SLT PUSH3 0x391 JUMPI PUSH3 0x390 PUSH3 0x1EF JUMP JUMPDEST JUMPDEST DUP2 MLOAD PUSH3 0x3A3 DUP5 DUP3 PUSH1 0x20 DUP7 ADD PUSH3 0x32E JUMP JUMPDEST SWAP2 POP POP SWAP3 SWAP2 POP POP JUMP JUMPDEST PUSH1 0x0 PUSH3 0x3C3 PUSH3 0x3BD DUP5 PUSH3 0x289 JUMP JUMPDEST PUSH3 0x26A JUMP JUMPDEST SWAP1 POP DUP1 DUP4 DUP3 MSTORE PUSH1 0x20 DUP3 ADD SWAP1 POP PUSH1 0x20 DUP5 MUL DUP4 ADD DUP6 DUP2 GT ISZERO PUSH3 0x3E9 JUMPI PUSH3 0x3E8 PUSH3 0x2B8 JUMP JUMPDEST JUMPDEST DUP4 JUMPDEST DUP2 DUP2 LT ISZERO PUSH3 0x437 JUMPI DUP1 MLOAD PUSH8 0xFFFFFFFFFFFFFFFF DUP2 GT ISZERO PUSH3 0x412 JUMPI PUSH3 0x411 PUSH3 0x1EF JUMP JUMPDEST JUMPDEST DUP1 DUP7 ADD PUSH3 0x421 DUP10 DUP3 PUSH3 0x379 JUMP JUMPDEST DUP6 MSTORE PUSH1 0x20 DUP6 ADD SWAP5 POP POP POP PUSH1 0x20 DUP2 ADD SWAP1 POP PUSH3 0x3EB JUMP JUMPDEST POP POP POP SWAP4 SWAP3 POP POP POP JUMP JUMPDEST PUSH1 0x0 DUP3 PUSH1 0x1F DUP4 ADD SLT PUSH3 0x459 JUMPI PUSH3 0x458 PUSH3 0x1EF JUMP JUMPDEST JUMPDEST DUP2 MLOAD PUSH3 0x46B DUP5 DUP3 PUSH1 0x20 DUP7 ADD PUSH3 0x3AC JUMP JUMPDEST SWAP2 POP POP SWAP3 SWAP2 POP POP JUMP JUMPDEST PUSH1 0x0 PUSH1 0x20 DUP3 DUP5 SUB SLT ISZERO PUSH3 0x48D JUMPI PUSH3 0x48C PUSH3 0x1E5 JUMP JUMPDEST JUMPDEST PUSH1 0x0 DUP3 ADD MLOAD PUSH8 0xFFFFFFFFFFFFFFFF DUP2 GT ISZERO PUSH3 0x4AE JUMPI PUSH3 0x4AD PUSH3 0x1EA JUMP JUMPDEST JUMPDEST PUSH3 0x4BC DUP5 DUP3 DUP6 ADD PUSH3 0x441 JUMP JUMPDEST SWAP2 POP POP SWAP3 SWAP2 POP POP JUMP JUMPDEST PUSH32 0x4E487B7100000000000000000000000000000000000000000000000000000000 PUSH1 0x0 MSTORE PUSH1 0x32 PUSH1 0x4 MSTORE PUSH1 0x24 PUSH1 0x0 REVERT JUMPDEST PUSH32 0x4E487B7100000000000000000000000000000000000000000000000000000000 PUSH1 0x0 MSTORE PUSH1 0x11 PUSH1 0x4 MSTORE PUSH1 0x24 PUSH1 0x0 REVERT JUMPDEST PUSH1 0x0 DUP2 SWAP1 POP SWAP2 SWAP1 POP JUMP JUMPDEST PUSH1 0x0 PUSH3 0x53A DUP3 PUSH3 0x523 JUMP JUMPDEST SWAP2 POP PUSH32 0xFFFFFFFFFFFFFFFFFFFFFFFFFFFFFFFFFFFFFFFFFFFFFFFFFFFFFFFFFFFFFFFF DUP3 SUB PUSH3 0x56F JUMPI PUSH3 0x56E PUSH3 0x4F4 JUMP JUMPDEST JUMPDEST PUSH1 0x1 DUP3 ADD SWAP1 POP SWAP2 SWAP1 POP JUMP JUMPDEST PUSH32 0x4E487B7100000000000000000000000000000000000000000000000000000000 PUSH1 0x0 MSTORE PUSH1 0x22 PUSH1 0x4 MSTORE PUSH1 0x24 PUSH1 0x0 REVERT JUMPDEST PUSH1 0x0 PUSH1 0x2 DUP3 DIV SWAP1 POP PUSH1 0x1 DUP3 AND DUP1 PUSH3 0x5C2 JUMPI PUSH1 0x7F DUP3 AND SWAP2 POP JUMPDEST PUSH1 0x20 DUP3 LT DUP2 SUB PUSH3 0x5D8 JUMPI PUSH3 0x5D7 PUSH3 0x57A JUMP JUMPDEST JUMPDEST POP SWAP2 SWAP1 POP JUMP JUMPDEST PUSH2 0xB70 DUP1 PUSH3 0x5EE PUSH1 0x0 CODECOPY PUSH1 0x0 RETURN INVALID PUSH1 0x80 PUSH1 0x40 MSTORE CALLVALUE DUP1 ISZERO PUSH2 0x10 JUMPI PUSH1 0x0 DUP1 REVERT JUMPDEST POP PUSH1 0x4 CALLDATASIZE LT PUSH2 0x88 JUMPI PUSH1 0x0 CALLDATALOAD PUSH1 0xE0 SHR DUP1 PUSH4 0xA3EC138D GT PUSH2 0x5B JUMPI DUP1 PUSH4 0xA3EC138D EQ PUSH2 0x102 JUMPI DUP1 PUSH4 0xB72D153D EQ PUSH2 0x134 JUMPI DUP1 PUSH4 0xDFBF53AE EQ PUSH2 0x150 JUMPI DUP1 PUSH4 0xF851A440 EQ PUSH2 0x16E JUMPI PUSH2 0x88 JUMP JUMPDEST DUP1 PUSH4 0x14034BD2 EQ PUSH2 0x8D JUMPI DUP1 PUSH4 0x4D25136A EQ PUSH2 0x97 JUMPI DUP1 PUSH4 0x70651A18 EQ PUSH2 0xB5 JUMPI DUP1 PUSH4 0x7F178F2E EQ PUSH2 0xE6 JUMPI JUMPDEST PUSH1 0x0 DUP1 REVERT JUMPDEST PUSH2 0x95 PUSH2 0x18C JUMP JUMPDEST STOP JUMPDEST PUSH2 0x9F PUSH2 0x2AB JUMP JUMPDEST PUSH1 0x40 MLOAD PUSH2 0xAC SWAP2 SWAP1 PUSH2 0x773 JUMP JUMPDEST PUSH1 0x40 MLOAD DUP1 SWAP2 SUB SWAP1 RETURN JUMPDEST PUSH2 0xCF PUSH1 0x4 DUP1 CALLDATASIZE SUB DUP2 ADD SWAP1 PUSH2 0xCA SWAP2 SWAP1 PUSH2 0x7BF JUMP JUMPDEST PUSH2 0x2B8 JUMP JUMPDEST PUSH1 0x40 MLOAD PUSH2 0xDD SWAP3 SWAP2 SWAP1 PUSH2 0x885 JUMP JUMPDEST PUSH1 0x40 MLOAD DUP1 SWAP2 SUB SWAP1 RETURN JUMPDEST PUSH2 0x100 PUSH1 0x4 DUP1 CALLDATASIZE SUB DUP2 ADD SWAP1 PUSH2 0xFB SWAP2 SWAP1 PUSH2 0x7BF JUMP JUMPDEST PUSH2 0x374 JUMP JUMPDEST STOP JUMPDEST PUSH2 0x11C PUSH1 0x4 DUP1 CALLDATASIZE SUB DUP2 ADD SWAP1 PUSH2 0x117 SWAP2 SWAP1 PUSH2 0x913 JUMP JUMPDEST PUSH2 0x455 JUMP JUMPDEST PUSH1 0x40 MLOAD PUSH2 0x12B SWAP4 SWAP3 SWAP2 SWAP1 PUSH2 0x95B JUMP JUMPDEST PUSH1 0x40 MLOAD DUP1 SWAP2 SUB SWAP1 RETURN JUMPDEST PUSH2 0x14E PUSH1 0x4 DUP1 CALLDATASIZE SUB DUP2 ADD SWAP1 PUSH2 0x149 SWAP2 SWAP1 PUSH2 0x913 JUMP JUMPDEST PUSH2 0x499 JUMP JUMPDEST STOP JUMPDEST PUSH2 0x158 PUSH2 0x5FE JUMP JUMPDEST PUSH1 0x40 MLOAD PUSH2 0x165 SWAP2 SWAP1 PUSH2 0x992 JUMP JUMPDEST PUSH1 0x40 MLOAD DUP1 SWAP2 SUB SWAP1 RETURN JUMPDEST PUSH2 0x176 PUSH2 0x68C JUMP JUMPDEST PUSH1 0x40 MLOAD PUSH2 0x183 SWAP2 SWAP1 PUSH2 0x9C3 JUMP JUMPDEST PUSH1 0x40 MLOAD DUP1 SWAP2 SUB SWAP1 RETURN JUMPDEST PUSH1 0x0 DUP1 SLOAD SWAP1 PUSH2 0x100 EXP SWAP1 DIV PUSH20 0xFFFFFFFFFFFFFFFFFFFFFFFFFFFFFFFFFFFFFFFF AND PUSH20 0xFFFFFFFFFFFFFFFFFFFFFFFFFFFFFFFFFFFFFFFF AND CALLER PUSH20 0xFFFFFFFFFFFFFFFFFFFFFFFFFFFFFFFFFFFFFFFF AND EQ PUSH2 0x1E4 JUMPI PUSH1 0x0 DUP1 REVERT JUMPDEST PUSH1 0x0 DUP1 PUSH1 0x0 SWAP1 POP PUSH1 0x0 JUMPDEST PUSH1 0x3 DUP1 SLOAD SWAP1 POP DUP2 LT ISZERO PUSH2 0x267 JUMPI DUP2 PUSH1 0x3 DUP3 DUP2 SLOAD DUP2 LT PUSH2 0x210 JUMPI PUSH2 0x20F PUSH2 0x9DE JUMP JUMPDEST JUMPDEST SWAP1 PUSH1 0x0 MSTORE PUSH1 0x20 PUSH1 0x0 KECCAK256 SWAP1 PUSH1 0x2 MUL ADD PUSH1 0x1 ADD SLOAD GT ISZERO PUSH2 0x254 JUMPI PUSH1 0x3 DUP2 DUP2 SLOAD DUP2 LT PUSH2 0x23C JUMPI PUSH2 0x23B PUSH2 0x9DE JUMP JUMPDEST JUMPDEST SWAP1 PUSH1 0x0 MSTORE PUSH1 0x20 PUSH1 0x0 KECCAK256 SWAP1 PUSH1 0x2 MUL ADD PUSH1 0x1 ADD SLOAD SWAP2 POP DUP1 SWAP3 POP JUMPDEST DUP1 DUP1 PUSH2 0x25F SWAP1 PUSH2 0xA3C JUMP JUMPDEST SWAP2 POP POP PUSH2 0x1EE JUMP JUMPDEST POP PUSH1 0x3 DUP3 DUP2 SLOAD DUP2 LT PUSH2 0x27C JUMPI PUSH2 0x27B PUSH2 0x9DE JUMP JUMPDEST JUMPDEST SWAP1 PUSH1 0x0 MSTORE PUSH1 0x20 PUSH1 0x0 KECCAK256 SWAP1 PUSH1 0x2 MUL ADD PUSH1 0x0 ADD PUSH1 0x1 SWAP1 DUP1 SLOAD PUSH2 0x29B SWAP1 PUSH2 0xAB3 JUMP JUMPDEST PUSH2 0x2A6 SWAP3 SWAP2 SWAP1 PUSH2 0x6B0 JUMP JUMPDEST POP POP POP JUMP JUMPDEST PUSH1 0x0 PUSH1 0x3 DUP1 SLOAD SWAP1 POP SWAP1 POP SWAP1 JUMP JUMPDEST PUSH1 0x3 DUP2 DUP2 SLOAD DUP2 LT PUSH2 0x2C8 JUMPI PUSH1 0x0 DUP1 REVERT JUMPDEST SWAP1 PUSH1 0x0 MSTORE PUSH1 0x20 PUSH1 0x0 KECCAK256 SWAP1 PUSH1 0x2 MUL ADD PUSH1 0x0 SWAP2 POP SWAP1 POP DUP1 PUSH1 0x0 ADD DUP1 SLOAD PUSH2 0x2EB SWAP1 PUSH2 0xAB3 JUMP JUMPDEST DUP1 PUSH1 0x1F ADD PUSH1 0x20 DUP1 SWAP2 DIV MUL PUSH1 0x20 ADD PUSH1 0x40 MLOAD SWAP1 DUP2 ADD PUSH1 0x40 MSTORE DUP1 SWAP3 SWAP2 SWAP1 DUP2 DUP2 MSTORE PUSH1 0x20 ADD DUP3 DUP1 SLOAD PUSH2 0x317 SWAP1 PUSH2 0xAB3 JUMP JUMPDEST DUP1 ISZERO PUSH2 0x364 JUMPI DUP1 PUSH1 0x1F LT PUSH2 0x339 JUMPI PUSH2 0x100 DUP1 DUP4 SLOAD DIV MUL DUP4 MSTORE SWAP2 PUSH1 0x20 ADD SWAP2 PUSH2 0x364 JUMP JUMPDEST DUP3 ADD SWAP2 SWAP1 PUSH1 0x0 MSTORE PUSH1 0x20 PUSH1 0x0 KECCAK256 SWAP1 JUMPDEST DUP2 SLOAD DUP2 MSTORE SWAP1 PUSH1 0x1 ADD SWAP1 PUSH1 0x20 ADD DUP1 DUP4 GT PUSH2 0x347 JUMPI DUP3 SWAP1 SUB PUSH1 0x1F AND DUP3 ADD SWAP2 JUMPDEST POP POP POP POP POP SWAP1 DUP1 PUSH1 0x1 ADD SLOAD SWAP1 POP DUP3 JUMP JUMPDEST PUSH1 0x0 PUSH1 0x2 PUSH1 0x0 CALLER PUSH20 0xFFFFFFFFFFFFFFFFFFFFFFFFFFFFFFFFFFFFFFFF AND PUSH20 0xFFFFFFFFFFFFFFFFFFFFFFFFFFFFFFFFFFFFFFFF AND DUP2 MSTORE PUSH1 0x20 ADD SWAP1 DUP2 MSTORE PUSH1 0x20 ADD PUSH1 0x0 KECCAK256 SWAP1 POP DUP1 PUSH1 0x1 ADD PUSH1 0x1 SWAP1 SLOAD SWAP1 PUSH2 0x100 EXP SWAP1 DIV PUSH1 0xFF AND PUSH2 0x3D2 JUMPI PUSH1 0x0 DUP1 REVERT JUMPDEST DUP1 PUSH1 0x1 ADD PUSH1 0x0 SWAP1 SLOAD SWAP1 PUSH2 0x100 EXP SWAP1 DIV PUSH1 0xFF AND ISZERO PUSH2 0x3EE JUMPI PUSH1 0x0 DUP1 REVERT JUMPDEST PUSH1 0x1 DUP2 PUSH1 0x1 ADD PUSH1 0x0 PUSH2 0x100 EXP DUP2 SLOAD DUP2 PUSH1 0xFF MUL NOT AND SWAP1 DUP4 ISZERO ISZERO MUL OR SWAP1 SSTORE POP DUP2 DUP2 PUSH1 0x0 ADD DUP2 SWAP1 SSTORE POP PUSH1 0x1 PUSH1 0x3 DUP4 DUP2 SLOAD DUP2 LT PUSH2 0x42A JUMPI PUSH2 0x429 PUSH2 0x9DE JUMP JUMPDEST JUMPDEST SWAP1 PUSH1 0x0 MSTORE PUSH1 0x20 PUSH1 0x0 KECCAK256 SWAP1 PUSH1 0x2 MUL ADD PUSH1 0x1 ADD PUSH1 0x0 DUP3 DUP3 SLOAD PUSH2 0x44A SWAP2 SWAP1 PUSH2 0xAE4 JUMP JUMPDEST SWAP3 POP POP DUP2 SWAP1 SSTORE POP POP POP JUMP JUMPDEST PUSH1 0x2 PUSH1 0x20 MSTORE DUP1 PUSH1 0x0 MSTORE PUSH1 0x40 PUSH1 0x0 KECCAK256 PUSH1 0x0 SWAP2 POP SWAP1 POP DUP1 PUSH1 0x0 ADD SLOAD SWAP1 DUP1 PUSH1 0x1 ADD PUSH1 0x0 SWAP1 SLOAD SWAP1 PUSH2 0x100 EXP SWAP1 DIV PUSH1 0xFF AND SWAP1 DUP1 PUSH1 0x1 ADD PUSH1 0x1 SWAP1 SLOAD SWAP1 PUSH2 0x100 EXP SWAP1 DIV PUSH1 0xFF AND SWAP1 POP DUP4 JUMP JUMPDEST PUSH1 0x0 DUP1 SLOAD SWAP1 PUSH2 0x100 EXP SWAP1 DIV PUSH20 0xFFFFFFFFFFFFFFFFFFFFFFFFFFFFFFFFFFFFFFFF AND PUSH20 0xFFFFFFFFFFFFFFFFFFFFFFFFFFFFFFFFFFFFFFFF AND CALLER PUSH20 0xFFFFFFFFFFFFFFFFFFFFFFFFFFFFFFFFFFFFFFFF AND EQ PUSH2 0x4F1 JUMPI PUSH1 0x0 DUP1 REVERT JUMPDEST PUSH1 0x2 PUSH1 0x0 DUP3 PUSH20 0xFFFFFFFFFFFFFFFFFFFFFFFFFFFFFFFFFFFFFFFF AND PUSH20 0xFFFFFFFFFFFFFFFFFFFFFFFFFFFFFFFFFFFFFFFF AND DUP2 MSTORE PUSH1 0x20 ADD SWAP1 DUP2 MSTORE PUSH1 0x20 ADD PUSH1 0x0 KECCAK256 PUSH1 0x1 ADD PUSH1 0x0 SWAP1 SLOAD SWAP1 PUSH2 0x100 EXP SWAP1 DIV PUSH1 0xFF AND ISZERO PUSH2 0x54B JUMPI PUSH1 0x0 DUP1 REVERT JUMPDEST PUSH1 0x2 PUSH1 0x0 DUP3 PUSH20 0xFFFFFFFFFFFFFFFFFFFFFFFFFFFFFFFFFFFFFFFF AND PUSH20 0xFFFFFFFFFFFFFFFFFFFFFFFFFFFFFFFFFFFFFFFF AND DUP2 MSTORE PUSH1 0x20 ADD SWAP1 DUP2 MSTORE PUSH1 0x20 ADD PUSH1 0x0 KECCAK256 PUSH1 0x1 ADD PUSH1 0x1 SWAP1 SLOAD SWAP1 PUSH2 0x100 EXP SWAP1 DIV PUSH1 0xFF AND PUSH2 0x5FB JUMPI PUSH1 0x1 PUSH1 0x2 PUSH1 0x0 DUP4 PUSH20 0xFFFFFFFFFFFFFFFFFFFFFFFFFFFFFFFFFFFFFFFF AND PUSH20 0xFFFFFFFFFFFFFFFFFFFFFFFFFFFFFFFFFFFFFFFF AND DUP2 MSTORE PUSH1 0x20 ADD SWAP1 DUP2 MSTORE PUSH1 0x20 ADD PUSH1 0x0 KECCAK256 PUSH1 0x1 ADD PUSH1 0x1 PUSH2 0x100 EXP DUP2 SLOAD DUP2 PUSH1 0xFF MUL NOT AND SWAP1 DUP4 ISZERO ISZERO MUL OR SWAP1 SSTORE POP JUMPDEST POP JUMP JUMPDEST PUSH1 0x1 DUP1 SLOAD PUSH2 0x60B SWAP1 PUSH2 0xAB3 JUMP JUMPDEST DUP1 PUSH1 0x1F ADD PUSH1 0x20 DUP1 SWAP2 DIV MUL PUSH1 0x20 ADD PUSH1 0x40 MLOAD SWAP1 DUP2 ADD PUSH1 0x40 MSTORE DUP1 SWAP3 SWAP2 SWAP1 DUP2 DUP2 MSTORE PUSH1 0x20 ADD DUP3 DUP1 SLOAD PUSH2 0x637 SWAP1 PUSH2 0xAB3 JUMP JUMPDEST DUP1 ISZERO PUSH2 0x684 JUMPI DUP1 PUSH1 0x1F LT PUSH2 0x659 JUMPI PUSH2 0x100 DUP1 DUP4 SLOAD DIV MUL DUP4 MSTORE SWAP2 PUSH1 0x20 ADD SWAP2 PUSH2 0x684 JUMP JUMPDEST DUP3 ADD SWAP2 SWAP1 PUSH1 0x0 MSTORE PUSH1 0x20 PUSH1 0x0 KECCAK256 SWAP1 JUMPDEST DUP2 SLOAD DUP2 MSTORE SWAP1 PUSH1 0x1 ADD SWAP1 PUSH1 0x20 ADD DUP1 DUP4 GT PUSH2 0x667 JUMPI DUP3 SWAP1 SUB PUSH1 0x1F AND DUP3 ADD SWAP2 JUMPDEST POP POP POP POP POP DUP2 JUMP JUMPDEST PUSH1 0x0 DUP1 SLOAD SWAP1 PUSH2 0x100 EXP SWAP1 DIV PUSH20 0xFFFFFFFFFFFFFFFFFFFFFFFFFFFFFFFFFFFFFFFF AND DUP2 JUMP JUMPDEST DUP3 DUP1 SLOAD PUSH2 0x6BC SWAP1 PUSH2 0xAB3 JUMP JUMPDEST SWAP1 PUSH1 0x0 MSTORE PUSH1 0x20 PUSH1 0x0 KECCAK256 SWAP1 PUSH1 0x1F ADD PUSH1 0x20 SWAP1 DIV DUP2 ADD SWAP3 DUP3 PUSH2 0x6DE JUMPI PUSH1 0x0 DUP6 SSTORE PUSH2 0x72C JUMP JUMPDEST DUP3 PUSH1 0x1F LT PUSH2 0x6EF JUMPI DUP1 SLOAD DUP6 SSTORE PUSH2 0x72C JUMP JUMPDEST DUP3 DUP1 ADD PUSH1 0x1 ADD DUP6 SSTORE DUP3 ISZERO PUSH2 0x72C JUMPI PUSH1 0x0 MSTORE PUSH1 0x20 PUSH1 0x0 KECCAK256 SWAP2 PUSH1 0x1F ADD PUSH1 0x20 SWAP1 DIV DUP3 ADD JUMPDEST DUP3 DUP2 GT ISZERO PUSH2 0x72B JUMPI DUP3 SLOAD DUP3 SSTORE SWAP2 PUSH1 0x1 ADD SWAP2 SWAP1 PUSH1 0x1 ADD SWAP1 PUSH2 0x710 JUMP JUMPDEST JUMPDEST POP SWAP1 POP PUSH2 0x739 SWAP2 SWAP1 PUSH2 0x73D JUMP JUMPDEST POP SWAP1 JUMP JUMPDEST JUMPDEST DUP1 DUP3 GT ISZERO PUSH2 0x756 JUMPI PUSH1 0x0 DUP2 PUSH1 0x0 SWAP1 SSTORE POP PUSH1 0x1 ADD PUSH2 0x73E JUMP JUMPDEST POP SWAP1 JUMP JUMPDEST PUSH1 0x0 DUP2 SWAP1 POP SWAP2 SWAP1 POP JUMP JUMPDEST PUSH2 0x76D DUP2 PUSH2 0x75A JUMP JUMPDEST DUP3 MSTORE POP POP JUMP JUMPDEST PUSH1 0x0 PUSH1 0x20 DUP3 ADD SWAP1 POP PUSH2 0x788 PUSH1 0x0 DUP4 ADD DUP5 PUSH2 0x764 JUMP JUMPDEST SWAP3 SWAP2 POP POP JUMP JUMPDEST PUSH1 0x0 DUP1 REVERT JUMPDEST PUSH2 0x79C DUP2 PUSH2 0x75A JUMP JUMPDEST DUP2 EQ PUSH2 0x7A7 JUMPI PUSH1 0x0 DUP1 REVERT JUMPDEST POP JUMP JUMPDEST PUSH1 0x0 DUP2 CALLDATALOAD SWAP1 POP PUSH2 0x7B9 DUP2 PUSH2 0x793 JUMP JUMPDEST SWAP3 SWAP2 POP POP JUMP JUMPDEST PUSH1 0x0 PUSH1 0x20 DUP3 DUP5 SUB SLT ISZERO PUSH2 0x7D5 JUMPI PUSH2 0x7D4 PUSH2 0x78E JUMP JUMPDEST JUMPDEST PUSH1 0x0 PUSH2 0x7E3 DUP5 DUP3 DUP6 ADD PUSH2 0x7AA JUMP JUMPDEST SWAP2 POP POP SWAP3 SWAP2 POP POP JUMP JUMPDEST PUSH1 0x0 DUP2 MLOAD SWAP1 POP SWAP2 SWAP1 POP JUMP JUMPDEST PUSH1 0x0 DUP3 DUP3 MSTORE PUSH1 0x20 DUP3 ADD SWAP1 POP SWAP3 SWAP2 POP POP JUMP JUMPDEST PUSH1 0x0 JUMPDEST DUP4 DUP2 LT ISZERO PUSH2 0x826 JUMPI DUP1 DUP3 ADD MLOAD DUP2 DUP5 ADD MSTORE PUSH1 0x20 DUP2 ADD SWAP1 POP PUSH2 0x80B JUMP JUMPDEST DUP4 DUP2 GT ISZERO PUSH2 0x835 JUMPI PUSH1 0x0 DUP5 DUP5 ADD MSTORE JUMPDEST POP POP POP POP JUMP JUMPDEST PUSH1 0x0 PUSH1 0x1F NOT PUSH1 0x1F DUP4 ADD AND SWAP1 POP SWAP2 SWAP1 POP JUMP JUMPDEST PUSH1 0x0 PUSH2 0x857 DUP3 PUSH2 0x7EC JUMP JUMPDEST PUSH2 0x861 DUP2 DUP6 PUSH2 0x7F7 JUMP JUMPDEST SWAP4 POP PUSH2 0x871 DUP2 DUP6 PUSH1 0x20 DUP7 ADD PUSH2 0x808 JUMP JUMPDEST PUSH2 0x87A DUP2 PUSH2 0x83B JUMP JUMPDEST DUP5 ADD SWAP2 POP POP SWAP3 SWAP2 POP POP JUMP JUMPDEST PUSH1 0x0 PUSH1 0x40 DUP3 ADD SWAP1 POP DUP2 DUP2 SUB PUSH1 0x0 DUP4 ADD MSTORE PUSH2 0x89F DUP2 DUP6 PUSH2 0x84C JUMP JUMPDEST SWAP1 POP PUSH2 0x8AE PUSH1 0x20 DUP4 ADD DUP5 PUSH2 0x764 JUMP JUMPDEST SWAP4 SWAP3 POP POP POP JUMP JUMPDEST PUSH1 0x0 PUSH20 0xFFFFFFFFFFFFFFFFFFFFFFFFFFFFFFFFFFFFFFFF DUP3 AND SWAP1 POP SWAP2 SWAP1 POP JUMP JUMPDEST PUSH1 0x0 PUSH2 0x8E0 DUP3 PUSH2 0x8B5 JUMP JUMPDEST SWAP1 POP SWAP2 SWAP1 POP JUMP JUMPDEST PUSH2 0x8F0 DUP2 PUSH2 0x8D5 JUMP JUMPDEST DUP2 EQ PUSH2 0x8FB JUMPI PUSH1 0x0 DUP1 REVERT JUMPDEST POP JUMP JUMPDEST PUSH1 0x0 DUP2 CALLDATALOAD SWAP1 POP PUSH2 0x90D DUP2 PUSH2 0x8E7 JUMP JUMPDEST SWAP3 SWAP2 POP POP JUMP JUMPDEST PUSH1 0x0 PUSH1 0x20 DUP3 DUP5 SUB SLT ISZERO PUSH2 0x929 JUMPI PUSH2 0x928 PUSH2 0x78E JUMP JUMPDEST JUMPDEST PUSH1 0x0 PUSH2 0x937 DUP5 DUP3 DUP6 ADD PUSH2 0x8FE JUMP JUMPDEST SWAP2 POP POP SWAP3 SWAP2 POP POP JUMP JUMPDEST PUSH1 0x0 DUP2 ISZERO ISZERO SWAP1 POP SWAP2 SWAP1 POP JUMP JUMPDEST PUSH2 0x955 DUP2 PUSH2 0x940 JUMP JUMPDEST DUP3 MSTORE POP POP JUMP JUMPDEST PUSH1 0x0 PUSH1 0x60 DUP3 ADD SWAP1 POP PUSH2 0x970 PUSH1 0x0 DUP4 ADD DUP7 PUSH2 0x764 JUMP JUMPDEST PUSH2 0x97D PUSH1 0x20 DUP4 ADD DUP6 PUSH2 0x94C JUMP JUMPDEST PUSH2 0x98A PUSH1 0x40 DUP4 ADD DUP5 PUSH2 0x94C JUMP JUMPDEST SWAP5 SWAP4 POP POP POP POP JUMP JUMPDEST PUSH1 0x0 PUSH1 0x20 DUP3 ADD SWAP1 POP DUP2 DUP2 SUB PUSH1 0x0 DUP4 ADD MSTORE PUSH2 0x9AC DUP2 DUP5 PUSH2 0x84C JUMP JUMPDEST SWAP1 POP SWAP3 SWAP2 POP POP JUMP JUMPDEST PUSH2 0x9BD DUP2 PUSH2 0x8D5 JUMP JUMPDEST DUP3 MSTORE POP POP JUMP JUMPDEST PUSH1 0x0 PUSH1 0x20 DUP3 ADD SWAP1 POP PUSH2 0x9D8 PUSH1 0x0 DUP4 ADD DUP5 PUSH2 0x9B4 JUMP JUMPDEST SWAP3 SWAP2 POP POP JUMP JUMPDEST PUSH32 0x4E487B7100000000000000000000000000000000000000000000000000000000 PUSH1 0x0 MSTORE PUSH1 0x32 PUSH1 0x4 MSTORE PUSH1 0x24 PUSH1 0x0 REVERT JUMPDEST PUSH32 0x4E487B7100000000000000000000000000000000000000000000000000000000 PUSH1 0x0 MSTORE PUSH1 0x11 PUSH1 0x4 MSTORE PUSH1 0x24 PUSH1 0x0 REVERT JUMPDEST PUSH1 0x0 PUSH2 0xA47 DUP3 PUSH2 0x75A JUMP JUMPDEST SWAP2 POP PUSH32 0xFFFFFFFFFFFFFFFFFFFFFFFFFFFFFFFFFFFFFFFFFFFFFFFFFFFFFFFFFFFFFFFF DUP3 SUB PUSH2 0xA79 JUMPI PUSH2 0xA78 PUSH2 0xA0D JUMP JUMPDEST JUMPDEST PUSH1 0x1 DUP3 ADD SWAP1 POP SWAP2 SWAP1 POP JUMP JUMPDEST PUSH32 0x4E487B7100000000000000000000000000000000000000000000000000000000 PUSH1 0x0 MSTORE PUSH1 0x22 PUSH1 0x4 MSTORE PUSH1 0x24 PUSH1 0x0 REVERT JUMPDEST PUSH1 0x0 PUSH1 0x2 DUP3 DIV SWAP1 POP PUSH1 0x1 DUP3 AND DUP1 PUSH2 0xACB JUMPI PUSH1 0x7F DUP3 AND SWAP2 POP JUMPDEST PUSH1 0x20 DUP3 LT DUP2 SUB PUSH2 0xADE JUMPI PUSH2 0xADD PUSH2 0xA84 JUMP JUMPDEST JUMPDEST POP SWAP2 SWAP1 POP JUMP JUMPDEST PUSH1 0x0 PUSH2 0xAEF DUP3 PUSH2 0x75A JUMP JUMPDEST SWAP2 POP PUSH2 0xAFA DUP4 PUSH2 0x75A JUMP JUMPDEST SWAP3 POP DUP3 PUSH32 0xFFFFFFFFFFFFFFFFFFFFFFFFFFFFFFFFFFFFFFFFFFFFFFFFFFFFFFFFFFFFFFFF SUB DUP3 GT ISZERO PUSH2 0xB2F JUMPI PUSH2 0xB2E PUSH2 0xA0D JUMP JUMPDEST JUMPDEST DUP3 DUP3 ADD SWAP1 POP SWAP3 SWAP2 POP POP JUMP INVALID LOG2 PUSH5 0x6970667358 0x22 SLT KECCAK256 0x4F EXP 0xBF PUSH16 0x6438D1EAA3C53DBB7ABF1F3F15BB8159 SELFBALANCE 0xF SLT DUP9 ORIGIN RETURNDATASIZE LOG0 0xE9 0xDF GASLIMIT CALLVALUE 0x29 PUSH5 0x736F6C6343 STOP ADDMOD 0xD STOP CALLER "},"gasEstimates":{"creation":{"codeDepositCost":"585600","executionCost":"infinite","totalCost":"infinite"},"external":{"admin()":"2577","declareWinner()":"infinite","getPartyNumber()":"2468","giveVote(uint256)":"infinite","makeEligibleToVote(address)":"31608","parties(uint256)":"infinite","voters(address)":"infinite","winner()":"infinite"}},"methodIdentifiers":{"admin()":"f851a440","declareWinner()":"14034bd2","getPartyNumber()":"4d25136a","giveVote(uint256)":"7f178f2e","makeEligibleToVote(address)":"b72d153d","parties(uint256)":"70651a18","voters(address)":"a3ec138d","winner()":"dfbf53ae"}},"storageLayout":{"storage":[{"astId":3,"contract":"VotingContract.sol:VotingContract","label":"admin","offset":0,"slot":"0","type":"t_address"},{"astId":5,"contract":"VotingContract.sol:VotingContract","label":"winner","offset":0,"slot":"1","type":"t_string_storage"},{"astId":22,"contract":"VotingContract.sol:VotingContract","label":"voters","offset":0,"slot":"2","type":"t_mapping(t_address,t_struct(VoterUser)17_storage)"},{"astId":26,"contract":"VotingContract.sol:VotingContract","label":"parties","offset":0,"slot":"3","type":"t_array(t_struct(Party)10_storage)dyn_storage"}],"types":{"t_address":{"encoding":"inplace","label":"address","numberOfBytes":"20"},"t_array(t_struct(Party)10_storage)dyn_storage":{"base":"t_struct(Party)10_storage","encoding":"dynamic_array","label":"struct VotingContract.Party[]","numberOfBytes":"32"},"t_bool":{"encoding":"inplace","label":"bool","numberOfBytes":"1"},"t_mapping(t_address,t_struct(VoterUser)17_storage)":{"encoding":"mapping","key":"t_address","label":"mapping(address => struct VotingContract.VoterUser)","numberOfBytes":"32","value":"t_struct(VoterUser)17_storage"},"t_string_storage":{"encoding":"bytes","label":"string","numberOfBytes":"32"},"t_struct(Party)10_storage":{"encoding":"inplace","label":"struct VotingContract.Party","members":[{"astId":7,"contract":"VotingContract.sol:VotingContract","label":"partyName","offset":0,"slot":"0","type":"t_string_storage"},{"astId":9,"contract":"VotingContract.sol:VotingContract","label":"numberOfVotes","offset":0,"slot":"1","type":"t_uint256"}],"numberOfBytes":"64"},"t_struct(VoterUser)17_storage":{"encoding":"inplace","label":"struct VotingContract.VoterUser","members":[{"astId":12,"contract":"VotingContract.sol:VotingContract","label":"votedParty","offset":0,"slot":"0","type":"t_uint256"},{"astId":14,"contract":"VotingContract.sol:VotingContract","label":"votingState","offset":0,"slot":"1","type":"t_bool"},{"astId":16,"contract":"VotingContract.sol:VotingContract","label":"canVote","offset":1,"slot":"1","type":"t_bool"}],"numberOfBytes":"64"},"t_uint256":{"encoding":"inplace","label":"uint256","numberOfBytes":"32"}}},"userdoc":{"kind":"user","methods":{},"version":1}}